{"contracts/BinaryOptionMarketFlareFactory.sol":{"BinaryOptionMarketFlareFactory":{"abi":[{"inputs":[],"stateMutability":"nonpayable","type":"constructor"},{"anonymous":false,"inputs":[{"indexed":false,"internalType":"address","name":"marketAddress","type":"address"},{"indexed":false,"internalType":"string","name":"tradingPair","type":"string"},{"indexed":false,"internalType":"bytes21","name":"priceFeedId","type":"bytes21"},{"indexed":false,"internalType":"uint256","name":"strikePrice","type":"uint256"},{"indexed":false,"internalType":"uint256","name":"maturityTime","type":"uint256"},{"indexed":false,"internalType":"uint256","name":"feePercentage","type":"uint256"},{"indexed":false,"internalType":"uint8","name":"indexBg","type":"uint8"}],"name":"MarketCreated","type":"event"},{"inputs":[{"internalType":"string","name":"tradingPair","type":"string"},{"internalType":"bytes21","name":"priceFeedId","type":"bytes21"},{"internalType":"uint256","name":"strikePrice","type":"uint256"},{"internalType":"uint256","name":"maturityTime","type":"uint256"},{"internalType":"uint256","name":"feePercentage","type":"uint256"},{"internalType":"uint8","name":"indexBg","type":"uint8"}],"name":"createMarket","outputs":[{"internalType":"address","name":"","type":"address"}],"stateMutability":"nonpayable","type":"function"},{"inputs":[{"internalType":"uint256","name":"","type":"uint256"}],"name":"deployedMarkets","outputs":[{"internalType":"address","name":"","type":"address"}],"stateMutability":"view","type":"function"},{"inputs":[],"name":"getDeployedMarkets","outputs":[{"internalType":"address[]","name":"","type":"address[]"}],"stateMutability":"view","type":"function"},{"inputs":[],"name":"getDeployedMarketsCount","outputs":[{"internalType":"uint256","name":"","type":"uint256"}],"stateMutability":"view","type":"function"},{"inputs":[],"name":"owner","outputs":[{"internalType":"address","name":"","type":"address"}],"stateMutability":"view","type":"function"}],"evm":{"bytecode":{"linkReferences":{},"object":"608060405234801561001057600080fd5b50600080546001600160a01b031916331790556121c3806100326000396000f3fe60806040523480156200001157600080fd5b50600436106200005e5760003560e01c80630967803a14620000635780631b0bbbd214620000795780631bee8cb914620000925780635b51eb8814620000c25780638da5cb5b14620000d9575b600080fd5b6001546040519081526020015b60405180910390f35b62000083620000ed565b60405162000070919062000273565b620000a9620000a33660046200030c565b62000151565b6040516001600160a01b03909116815260200162000070565b620000a9620000d336600462000408565b6200023a565b600054620000a9906001600160a01b031681565b606060018054806020026020016040519081016040528092919081815260200182805480156200014757602002820191906000526020600020905b81546001600160a01b0316815260019091019060200180831162000128575b5050505050905090565b60008033888888888888604051620001699062000265565b6200017b979695949392919062000422565b604051809103906000f08015801562000198573d6000803e3d6000fd5b506001805480820182556000919091527fb10e2d527612073b26eecdfd717e6a320cf44b4afac2b0732d9fcbe2b7fa0cf60180546001600160a01b0319166001600160a01b03831617905560405190915081907f0ad75d32c9c29f6f238dce11f604f04cb1df28d1de8b7e8a67ce7acf4972e41690620002269083908c908c908c908c908c908c9062000422565b60405180910390a198975050505050505050565b600181815481106200024b57600080fd5b6000918252602090912001546001600160a01b0316905081565b611cc580620004c983390190565b6020808252825182820181905260009190848201906040850190845b81811015620002b65783516001600160a01b0316835292840192918401916001016200028f565b50909695505050505050565b634e487b7160e01b600052604160045260246000fd5b80356affffffffffffffffffffff1981168114620002f557600080fd5b919050565b803560ff81168114620002f557600080fd5b60008060008060008060c087890312156200032657600080fd5b863567ffffffffffffffff808211156200033f57600080fd5b818901915089601f8301126200035457600080fd5b813581811115620003695762000369620002c2565b604051601f8201601f19908116603f01168101908382118183101715620003945762000394620002c2565b816040528281528c6020848701011115620003ae57600080fd5b82602086016020830137600060208483010152809a505050505050620003d760208801620002d8565b9450604087013593506060870135925060808701359150620003fc60a08801620002fa565b90509295509295509295565b6000602082840312156200041b57600080fd5b5035919050565b60018060a01b03881681526000602060e08184015288518060e085015260005b8181101562000461578a81018301518582016101000152820162000442565b506101009150600082828601015281601f19601f830116850101925050506200049a60408301886affffffffffffffffffffff19169052565b8560608301528460808301528360a0830152620004bc60c083018460ff169052565b9897505050505050505056fe6080604052600a600d553480156200001657600080fd5b5060405162001cc538038062001cc5833981016040819052620000399162000486565b62000044336200022d565b428311620000a55760405162461bcd60e51b815260206004820152602360248201527f4d617475726974792074696d65206d75737420626520696e207468652066757460448201526275726560e81b60648201526084015b60405180910390fd5b60018210158015620000b8575060c88211155b620001065760405162461bcd60e51b815260206004820181905260248201527f466565206d757374206265206265747765656e20302e312520616e642032302560448201526064016200009c565b60018160ff16101580156200011f5750600a8160ff1611155b6200017f5760405162461bcd60e51b815260206004820152602960248201527f496e646578206261636b67726f756e64206d757374206265206265747765656e6044820152680203120616e642031360bc1b60648201526084016200009c565b620001896200027d565b600380546001600160a01b0319166001600160a01b03929092169190911790556005620001b7878262000640565b50600480546001600160a81b031916605887901c17905560408051808201909152848152600060209091018190526001859055600255601283905542601155600d8290556015805460ff191660ff8316179055600c805461ff001916905562000220876200034b565b5050505050505062000731565b600080546001600160a01b038381166001600160a01b0319831681178455604051919092169283917f8be0079c531659141344cd1fd0a4f28419497f9722a3daafe3b4186f6b6457e09190a35050565b600073ad67fe66660fb8dfe9d6b1b4240d8650e30f60196001600160a01b031663159354a2604051602001620002cd90602080825260069082015265233a39b7ab1960d11b604082015260600190565b604051602081830303815290604052805190602001206040518263ffffffff1660e01b81526004016200030291815260200190565b602060405180830381865afa15801562000320573d6000803e3d6000fd5b505050506040513d601f19601f820116820180604052508101906200034691906200070c565b905090565b62000355620003ca565b6001600160a01b038116620003bc5760405162461bcd60e51b815260206004820152602660248201527f4f776e61626c653a206e6577206f776e657220697320746865207a65726f206160448201526564647265737360d01b60648201526084016200009c565b620003c7816200022d565b50565b6000546001600160a01b03163314620004265760405162461bcd60e51b815260206004820181905260248201527f4f776e61626c653a2063616c6c6572206973206e6f7420746865206f776e657260448201526064016200009c565b565b80516001600160a01b03811681146200044057600080fd5b919050565b634e487b7160e01b600052604160045260246000fd5b80516001600160581b0319811681146200044057600080fd5b805160ff811681146200044057600080fd5b600080600080600080600060e0888a031215620004a257600080fd5b620004ad8862000428565b602089810151919850906001600160401b0380821115620004cd57600080fd5b818b0191508b601f830112620004e257600080fd5b815181811115620004f757620004f762000445565b604051601f8201601f19908116603f0116810190838211818310171562000522576200052262000445565b816040528281528e868487010111156200053b57600080fd5b600093505b828410156200055f578484018601518185018701529285019262000540565b6000868483010152809b505050505050506200057e604089016200045b565b9450606088015193506080880151925060a08801519150620005a360c0890162000474565b905092959891949750929550565b600181811c90821680620005c657607f821691505b602082108103620005e757634e487b7160e01b600052602260045260246000fd5b50919050565b601f8211156200063b57600081815260208120601f850160051c81016020861015620006165750805b601f850160051c820191505b81811015620006375782815560010162000622565b5050505b505050565b81516001600160401b038111156200065c576200065c62000445565b62000674816200066d8454620005b1565b84620005ed565b602080601f831160018114620006ac5760008415620006935750858301515b600019600386901b1c1916600185901b17855562000637565b600085815260208120601f198616915b82811015620006dd57888601518255948401946001909101908401620006bc565b5085821015620006fc5787850151600019600388901b60f8161c191681555b5050505050600190811b01905550565b6000602082840312156200071f57600080fd5b6200072a8262000428565b9392505050565b61158480620007416000396000f3fe6080604052600436106101b75760003560e01c80638da5cb5b116100ec578063b88a802f1161008a578063eb91d37e11610064578063eb91d37e146104cb578063f2fde38b14610508578063f86e83e514610528578063ff50abdc1461055457600080fd5b8063b88a802f14610479578063ba5b79821461048e578063d42f6e39146104a957600080fd5b80639ce05df7116100c65780639ce05df7146104065780639e891f3e1461041b578063a001ecdd14610430578063a5e1803a1461044657600080fd5b80638da5cb5b1461037457806398508ecd1461039c5780639af1d35a146103cc57600080fd5b80634e8bfdaa11610159578063715018a611610133578063715018a61461030457806373b2e80e146103195780637a40624b146103495780637d7b39e41461035f57600080fd5b80634e8bfdaa146102ab57806351b72dc5146102c1578063553fc574146102ee57600080fd5b80632b9b55b3116101955780632b9b55b31461024257806333500e26146102595780633ccfd60b1461026c5780633f6fa6551461028157600080fd5b8063055ad42e146101bc57806305ed76c4146101f15780631955e14614610215575b600080fd5b3480156101c857600080fd5b50600c546101db90610100900460ff1681565b6040516101e891906111fa565b60405180910390f35b3480156101fd57600080fd5b5061020760135481565b6040519081526020016101e8565b34801561022157600080fd5b50610207610230366004611214565b600e6020526000908152604090205481565b34801561024e57600080fd5b5061025761056a565b005b610257610267366004611244565b61072d565b34801561027857600080fd5b50610257610928565b34801561028d57600080fd5b50600c5461029b9060ff1681565b60405190151581526020016101e8565b3480156102b757600080fd5b5061020760125481565b3480156102cd57600080fd5b506102076102dc366004611214565b600f6020526000908152604090205481565b3480156102fa57600080fd5b5061020760145481565b34801561031057600080fd5b506102576109de565b34801561032557600080fd5b5061029b610334366004611214565b60106020526000908152604090205460ff1681565b34801561035557600080fd5b5061020760115481565b34801561036b57600080fd5b506102576109f2565b34801561038057600080fd5b506000546040516001600160a01b0390911681526020016101e8565b3480156103a857600080fd5b506001546002546103b7919082565b604080519283526020830191909152016101e8565b3480156103d857600080fd5b50600854600954600a546103eb92919083565b604080519384526020840192909252908201526060016101e8565b34801561041257600080fd5b50600254610207565b34801561042757600080fd5b50610257610a7a565b34801561043c57600080fd5b50610207600d5481565b34801561045257600080fd5b5061045b610b55565b6040805192835267ffffffffffffffff9091166020830152016101e8565b34801561048557600080fd5b50610257610bef565b34801561049a57600080fd5b506006546007546103b7919082565b3480156104b557600080fd5b506104be610ee7565b6040516101e89190611265565b3480156104d757600080fd5b506104e0610f75565b6040805193845260009290920b602084015267ffffffffffffffff16908201526060016101e8565b34801561051457600080fd5b50610257610523366004611214565b61100c565b34801561053457600080fd5b506015546105429060ff1681565b60405160ff90911681526020016101e8565b34801561056057600080fd5b50610207600b5481565b610572611085565b6000600c54610100900460ff166003811115610590576105906111e4565b146105e25760405162461bcd60e51b815260206004820152601b60248201527f4d61726b6574206e6f7420696e2074726164696e67207068617365000000000060448201526064015b60405180910390fd5b60125442101561062b5760405162461bcd60e51b8152602060048201526014602482015273546f6f206561726c7920746f207265736f6c766560601b60448201526064016105d9565b600354600480546040516349f4fc0360e11b815260589190911b6affffffffffffffffffffff191691810191909152600091829182916001600160a01b0316906393e9f806906024016060604051808303816000875af1158015610693573d6000803e3d6000fd5b505050506040513d601f19601f820116820180604052508101906106b791906112d0565b9194509250905082600083810b12156106ef576106d38361132a565b6106de90600a61142e565b6106e8908561143d565b9050610713565b60008360000b13156107135761070683600a61142e565b6107109085611454565b90505b610727818367ffffffffffffffff166110df565b50505050565b6001600c54610100900460ff16600381111561074b5761074b6111e4565b1461078f5760405162461bcd60e51b81526020600482015260146024820152734e6f7420696e2062696464696e6720706861736560601b60448201526064016105d9565b600034116107df5760405162461bcd60e51b815260206004820152601f60248201527f56616c7565206d7573742062652067726561746572207468616e207a65726f0060448201526064016105d9565b60008160018111156107f3576107f36111e4565b0361083c57346006600001600082825461080d9190611476565b9091555050336000908152600e602052604081208054349290610831908490611476565b9091555061087b9050565b34600660010160008282546108519190611476565b9091555050336000908152600f602052604081208054349290610875908490611476565b90915550505b34600b600082825461088d9190611476565b9091555050600654600754600b5460408051428152602081019490945283019190915260608201527f5fd7e45cc570ececa5a25e81af5f4acc6a2456c0fb1eee17751ec71677d32f3c9060800160405180910390a1336001600160a01b03167f70bd4a33bf447720d717d08f3affb5aecfe4d2ebb8e3dd94539f5313e2447643823460405161091d92919061149d565b60405180910390a250565b610930611085565b478061097e5760405162461bcd60e51b815260206004820152601760248201527f4e6f2062616c616e636520746f2077697468647261772e00000000000000000060448201526064016105d9565b604051339082156108fc029083906000818181858888f193505050501580156109ab573d6000803e3d6000fd5b5060405181815233907f7fcf532c15f0a6db0bd6d0e038bea71d30d808c7d98cb3bf7268a95bf5081b659060200161091d565b6109e6611085565b6109f06000611194565b565b6109fa611085565b6000600c54610100900460ff166003811115610a1857610a186111e4565b14610a655760405162461bcd60e51b815260206004820152601b60248201527f4d61726b6574206e6f7420696e2074726164696e67207068617365000000000060448201526064016105d9565b600c805461ff00191661010017905542601455565b610a82611085565b6002600c54610100900460ff166003811115610aa057610aa06111e4565b14610aed5760405162461bcd60e51b815260206004820152601c60248201527f4d61726b6574206e6f7420696e206d617475726974792070686173650000000060448201526064016105d9565b600c5460ff161515600114610b445760405162461bcd60e51b815260206004820152601a60248201527f4d61726b6574206973206e6f74207265736f6c7665642079657400000000000060448201526064016105d9565b600c805461ff001916610300179055565b60035460048054604051632cff56fb60e11b815260009384936001600160a01b03909116926359feadf692610ba59260589290921b91016affffffffffffffffffffff1991909116815260200190565b60408051808303816000875af1158015610bc3573d6000803e3d6000fd5b505050506040513d601f19601f82011682018060405250810190610be791906114b8565b915091509091565b6003600c54610100900460ff166003811115610c0d57610c0d6111e4565b14610c5a5760405162461bcd60e51b815260206004820152601a60248201527f4d61726b6574206e6f7420696e2065787069727920706861736500000000000060448201526064016105d9565b600c5460ff16610cac5760405162461bcd60e51b815260206004820152601a60248201527f4d61726b6574206973206e6f74207265736f6c7665642079657400000000000060448201526064016105d9565b3360009081526010602052604090205460ff1615610d055760405162461bcd60e51b815260206004820152601660248201527514995dd85c9908185b1c9958591e4818db185a5b595960521b60448201526064016105d9565b6002546001546000908210610d1c57506000610d20565b5060015b6000808080846001811115610d3757610d376111e4565b03610d6357336000908152600e602052604090205460065490935091508215610d5e575060015b610d85565b336000908152600f602052604090205460075490935091508215610d85575060015b336001600160a01b03167fcaf126c1b7df3cc94d90d37f4a60f866c0c7c56f50d45e3136fc1dc71e210eba8583604051610dc09291906114e4565b60405180910390a260008311610e185760405162461bcd60e51b815260206004820152601b60248201527f4e6f206465706f73697473206f6e2077696e6e696e672073696465000000000060448201526064016105d9565b600082600b5485610e29919061143d565b610e339190611454565b905060006064600d5483610e47919061143d565b610e519190611454565b90506000610e5f8284611501565b33600081815260106020526040808220805460ff1916600117905551929350909183156108fc0291849190818181858888f19350505050158015610ea7573d6000803e3d6000fd5b5060405181815233907f106f923f993c2149d49b4255ff723acafa1f2d94393f561d3eda32ae348f72419060200160405180910390a25050505050505050565b60058054610ef490611514565b80601f0160208091040260200160405190810160405280929190818152602001828054610f2090611514565b8015610f6d5780601f10610f4257610100808354040283529160200191610f6d565b820191906000526020600020905b815481529060010190602001808311610f5057829003601f168201915b505050505081565b600354600480546040516349f4fc0360e11b815260589190911b6affffffffffffffffffffff191691810191909152600091829182916001600160a01b0316906393e9f806906024016060604051808303816000875af1158015610fdd573d6000803e3d6000fd5b505050506040513d601f19601f8201168201806040525081019061100191906112d0565b925092509250909192565b611014611085565b6001600160a01b0381166110795760405162461bcd60e51b815260206004820152602660248201527f4f776e61626c653a206e6577206f776e657220697320746865207a65726f206160448201526564647265737360d01b60648201526084016105d9565b61108281611194565b50565b6000546001600160a01b031633146109f05760405162461bcd60e51b815260206004820181905260248201527f4f776e61626c653a2063616c6c6572206973206e6f7420746865206f776e657260448201526064016105d9565b600c805461020161ffff1990911617905560028290554260135560408051838152602081018390527f6dfc24f0f2fb42e49fb4fa3ffa8abb148cab908a1fb8335b3f128a08b2594af1910160405180910390a160015460009083106111465750600061114a565b5060015b60006001600160a01b03167fcaf126c1b7df3cc94d90d37f4a60f866c0c7c56f50d45e3136fc1dc71e210eba8260016040516111879291906114e4565b60405180910390a2505050565b600080546001600160a01b038381166001600160a01b0319831681178455604051919092169283917f8be0079c531659141344cd1fd0a4f28419497f9722a3daafe3b4186f6b6457e09190a35050565b634e487b7160e01b600052602160045260246000fd5b602081016004831061120e5761120e6111e4565b91905290565b60006020828403121561122657600080fd5b81356001600160a01b038116811461123d57600080fd5b9392505050565b60006020828403121561125657600080fd5b81356002811061123d57600080fd5b600060208083528351808285015260005b8181101561129257858101830151858201604001528201611276565b506000604082860101526040601f19601f8301168501019250505092915050565b805167ffffffffffffffff811681146112cb57600080fd5b919050565b6000806000606084860312156112e557600080fd5b8351925060208401518060000b81146112fd57600080fd5b915061130b604085016112b3565b90509250925092565b634e487b7160e01b600052601160045260246000fd5b600081810b6080810161133f5761133f611314565b60000392915050565b600181815b8085111561138357816000190482111561136957611369611314565b8085161561137657918102915b93841c939080029061134d565b509250929050565b60008261139a57506001611428565b816113a757506000611428565b81600181146113bd57600281146113c7576113e3565b6001915050611428565b60ff8411156113d8576113d8611314565b50506001821b611428565b5060208310610133831016604e8410600b8410161715611406575081810a611428565b6114108383611348565b806000190482111561142457611424611314565b0290505b92915050565b600061123d60ff84168361138b565b808202811582820484141761142857611428611314565b60008261147157634e487b7160e01b600052601260045260246000fd5b500490565b8082018082111561142857611428611314565b60028110611499576114996111e4565b9052565b604081016114ab8285611489565b8260208301529392505050565b600080604083850312156114cb57600080fd5b825191506114db602084016112b3565b90509250929050565b604081016114f28285611489565b82151560208301529392505050565b8181038181111561142857611428611314565b600181811c9082168061152857607f821691505b60208210810361154857634e487b7160e01b600052602260045260246000fd5b5091905056fea2646970667358221220a2aa3890f8a59d943dde4a8c3dd55ba0609b201e2cbcd33478f1534d624ee23e64736f6c63430008140033a26469706673582212205b4684e662bbd2990c7157735afb3c71d964abad40b32dc21f1422facfde49a764736f6c63430008140033","opcodes":"PUSH1 0x80 PUSH1 0x40 MSTORE CALLVALUE DUP1 ISZERO PUSH2 0x10 JUMPI PUSH1 0x0 DUP1 REVERT JUMPDEST POP PUSH1 0x0 DUP1 SLOAD PUSH1 0x1 PUSH1 0x1 PUSH1 0xA0 SHL SUB NOT AND CALLER OR SWAP1 SSTORE PUSH2 0x21C3 DUP1 PUSH2 0x32 PUSH1 0x0 CODECOPY PUSH1 0x0 RETURN INVALID PUSH1 0x80 PUSH1 0x40 MSTORE CALLVALUE DUP1 ISZERO PUSH3 0x11 JUMPI PUSH1 0x0 DUP1 REVERT JUMPDEST POP PUSH1 0x4 CALLDATASIZE LT PUSH3 0x5E JUMPI PUSH1 0x0 CALLDATALOAD PUSH1 0xE0 SHR DUP1 PUSH4 0x967803A EQ PUSH3 0x63 JUMPI DUP1 PUSH4 0x1B0BBBD2 EQ PUSH3 0x79 JUMPI DUP1 PUSH4 0x1BEE8CB9 EQ PUSH3 0x92 JUMPI DUP1 PUSH4 0x5B51EB88 EQ PUSH3 0xC2 JUMPI DUP1 PUSH4 0x8DA5CB5B EQ PUSH3 0xD9 JUMPI JUMPDEST PUSH1 0x0 DUP1 REVERT JUMPDEST PUSH1 0x1 SLOAD PUSH1 0x40 MLOAD SWAP1 DUP2 MSTORE PUSH1 0x20 ADD JUMPDEST PUSH1 0x40 MLOAD DUP1 SWAP2 SUB SWAP1 RETURN JUMPDEST PUSH3 0x83 PUSH3 0xED JUMP JUMPDEST PUSH1 0x40 MLOAD PUSH3 0x70 SWAP2 SWAP1 PUSH3 0x273 JUMP JUMPDEST PUSH3 0xA9 PUSH3 0xA3 CALLDATASIZE PUSH1 0x4 PUSH3 0x30C JUMP JUMPDEST PUSH3 0x151 JUMP JUMPDEST PUSH1 0x40 MLOAD PUSH1 0x1 PUSH1 0x1 PUSH1 0xA0 SHL SUB SWAP1 SWAP2 AND DUP2 MSTORE PUSH1 0x20 ADD PUSH3 0x70 JUMP JUMPDEST PUSH3 0xA9 PUSH3 0xD3 CALLDATASIZE PUSH1 0x4 PUSH3 0x408 JUMP JUMPDEST PUSH3 0x23A JUMP JUMPDEST PUSH1 0x0 SLOAD PUSH3 0xA9 SWAP1 PUSH1 0x1 PUSH1 0x1 PUSH1 0xA0 SHL SUB AND DUP2 JUMP JUMPDEST PUSH1 0x60 PUSH1 0x1 DUP1 SLOAD DUP1 PUSH1 0x20 MUL PUSH1 0x20 ADD PUSH1 0x40 MLOAD SWAP1 DUP2 ADD PUSH1 0x40 MSTORE DUP1 SWAP3 SWAP2 SWAP1 DUP2 DUP2 MSTORE PUSH1 0x20 ADD DUP3 DUP1 SLOAD DUP1 ISZERO PUSH3 0x147 JUMPI PUSH1 0x20 MUL DUP3 ADD SWAP2 SWAP1 PUSH1 0x0 MSTORE PUSH1 0x20 PUSH1 0x0 KECCAK256 SWAP1 JUMPDEST DUP2 SLOAD PUSH1 0x1 PUSH1 0x1 PUSH1 0xA0 SHL SUB AND DUP2 MSTORE PUSH1 0x1 SWAP1 SWAP2 ADD SWAP1 PUSH1 0x20 ADD DUP1 DUP4 GT PUSH3 0x128 JUMPI JUMPDEST POP POP POP POP POP SWAP1 POP SWAP1 JUMP JUMPDEST PUSH1 0x0 DUP1 CALLER DUP9 DUP9 DUP9 DUP9 DUP9 DUP9 PUSH1 0x40 MLOAD PUSH3 0x169 SWAP1 PUSH3 0x265 JUMP JUMPDEST PUSH3 0x17B SWAP8 SWAP7 SWAP6 SWAP5 SWAP4 SWAP3 SWAP2 SWAP1 PUSH3 0x422 JUMP JUMPDEST PUSH1 0x40 MLOAD DUP1 SWAP2 SUB SWAP1 PUSH1 0x0 CREATE DUP1 ISZERO DUP1 ISZERO PUSH3 0x198 JUMPI RETURNDATASIZE PUSH1 0x0 DUP1 RETURNDATACOPY RETURNDATASIZE PUSH1 0x0 REVERT JUMPDEST POP PUSH1 0x1 DUP1 SLOAD DUP1 DUP3 ADD DUP3 SSTORE PUSH1 0x0 SWAP2 SWAP1 SWAP2 MSTORE PUSH32 0xB10E2D527612073B26EECDFD717E6A320CF44B4AFAC2B0732D9FCBE2B7FA0CF6 ADD DUP1 SLOAD PUSH1 0x1 PUSH1 0x1 PUSH1 0xA0 SHL SUB NOT AND PUSH1 0x1 PUSH1 0x1 PUSH1 0xA0 SHL SUB DUP4 AND OR SWAP1 SSTORE PUSH1 0x40 MLOAD SWAP1 SWAP2 POP DUP2 SWAP1 PUSH32 0xAD75D32C9C29F6F238DCE11F604F04CB1DF28D1DE8B7E8A67CE7ACF4972E416 SWAP1 PUSH3 0x226 SWAP1 DUP4 SWAP1 DUP13 SWAP1 DUP13 SWAP1 DUP13 SWAP1 DUP13 SWAP1 DUP13 SWAP1 DUP13 SWAP1 PUSH3 0x422 JUMP JUMPDEST PUSH1 0x40 MLOAD DUP1 SWAP2 SUB SWAP1 LOG1 SWAP9 SWAP8 POP POP POP POP POP POP POP POP JUMP JUMPDEST PUSH1 0x1 DUP2 DUP2 SLOAD DUP2 LT PUSH3 0x24B JUMPI PUSH1 0x0 DUP1 REVERT JUMPDEST PUSH1 0x0 SWAP2 DUP3 MSTORE PUSH1 0x20 SWAP1 SWAP2 KECCAK256 ADD SLOAD PUSH1 0x1 PUSH1 0x1 PUSH1 0xA0 SHL SUB AND SWAP1 POP DUP2 JUMP JUMPDEST PUSH2 0x1CC5 DUP1 PUSH3 0x4C9 DUP4 CODECOPY ADD SWAP1 JUMP JUMPDEST PUSH1 0x20 DUP1 DUP3 MSTORE DUP3 MLOAD DUP3 DUP3 ADD DUP2 SWAP1 MSTORE PUSH1 0x0 SWAP2 SWAP1 DUP5 DUP3 ADD SWAP1 PUSH1 0x40 DUP6 ADD SWAP1 DUP5 JUMPDEST DUP2 DUP2 LT ISZERO PUSH3 0x2B6 JUMPI DUP4 MLOAD PUSH1 0x1 PUSH1 0x1 PUSH1 0xA0 SHL SUB AND DUP4 MSTORE SWAP3 DUP5 ADD SWAP3 SWAP2 DUP5 ADD SWAP2 PUSH1 0x1 ADD PUSH3 0x28F JUMP JUMPDEST POP SWAP1 SWAP7 SWAP6 POP POP POP POP POP POP JUMP JUMPDEST PUSH4 0x4E487B71 PUSH1 0xE0 SHL PUSH1 0x0 MSTORE PUSH1 0x41 PUSH1 0x4 MSTORE PUSH1 0x24 PUSH1 0x0 REVERT JUMPDEST DUP1 CALLDATALOAD PUSH11 0xFFFFFFFFFFFFFFFFFFFFFF NOT DUP2 AND DUP2 EQ PUSH3 0x2F5 JUMPI PUSH1 0x0 DUP1 REVERT JUMPDEST SWAP2 SWAP1 POP JUMP JUMPDEST DUP1 CALLDATALOAD PUSH1 0xFF DUP2 AND DUP2 EQ PUSH3 0x2F5 JUMPI PUSH1 0x0 DUP1 REVERT JUMPDEST PUSH1 0x0 DUP1 PUSH1 0x0 DUP1 PUSH1 0x0 DUP1 PUSH1 0xC0 DUP8 DUP10 SUB SLT ISZERO PUSH3 0x326 JUMPI PUSH1 0x0 DUP1 REVERT JUMPDEST DUP7 CALLDATALOAD PUSH8 0xFFFFFFFFFFFFFFFF DUP1 DUP3 GT ISZERO PUSH3 0x33F JUMPI PUSH1 0x0 DUP1 REVERT JUMPDEST DUP2 DUP10 ADD SWAP2 POP DUP10 PUSH1 0x1F DUP4 ADD SLT PUSH3 0x354 JUMPI PUSH1 0x0 DUP1 REVERT JUMPDEST DUP2 CALLDATALOAD DUP2 DUP2 GT ISZERO PUSH3 0x369 JUMPI PUSH3 0x369 PUSH3 0x2C2 JUMP JUMPDEST PUSH1 0x40 MLOAD PUSH1 0x1F DUP3 ADD PUSH1 0x1F NOT SWAP1 DUP2 AND PUSH1 0x3F ADD AND DUP2 ADD SWAP1 DUP4 DUP3 GT DUP2 DUP4 LT OR ISZERO PUSH3 0x394 JUMPI PUSH3 0x394 PUSH3 0x2C2 JUMP JUMPDEST DUP2 PUSH1 0x40 MSTORE DUP3 DUP2 MSTORE DUP13 PUSH1 0x20 DUP5 DUP8 ADD ADD GT ISZERO PUSH3 0x3AE JUMPI PUSH1 0x0 DUP1 REVERT JUMPDEST DUP3 PUSH1 0x20 DUP7 ADD PUSH1 0x20 DUP4 ADD CALLDATACOPY PUSH1 0x0 PUSH1 0x20 DUP5 DUP4 ADD ADD MSTORE DUP1 SWAP11 POP POP POP POP POP POP PUSH3 0x3D7 PUSH1 0x20 DUP9 ADD PUSH3 0x2D8 JUMP JUMPDEST SWAP5 POP PUSH1 0x40 DUP8 ADD CALLDATALOAD SWAP4 POP PUSH1 0x60 DUP8 ADD CALLDATALOAD SWAP3 POP PUSH1 0x80 DUP8 ADD CALLDATALOAD SWAP2 POP PUSH3 0x3FC PUSH1 0xA0 DUP9 ADD PUSH3 0x2FA JUMP JUMPDEST SWAP1 POP SWAP3 SWAP6 POP SWAP3 SWAP6 POP SWAP3 SWAP6 JUMP JUMPDEST PUSH1 0x0 PUSH1 0x20 DUP3 DUP5 SUB SLT ISZERO PUSH3 0x41B JUMPI PUSH1 0x0 DUP1 REVERT JUMPDEST POP CALLDATALOAD SWAP2 SWAP1 POP JUMP JUMPDEST PUSH1 0x1 DUP1 PUSH1 0xA0 SHL SUB DUP9 AND DUP2 MSTORE PUSH1 0x0 PUSH1 0x20 PUSH1 0xE0 DUP2 DUP5 ADD MSTORE DUP9 MLOAD DUP1 PUSH1 0xE0 DUP6 ADD MSTORE PUSH1 0x0 JUMPDEST DUP2 DUP2 LT ISZERO PUSH3 0x461 JUMPI DUP11 DUP2 ADD DUP4 ADD MLOAD DUP6 DUP3 ADD PUSH2 0x100 ADD MSTORE DUP3 ADD PUSH3 0x442 JUMP JUMPDEST POP PUSH2 0x100 SWAP2 POP PUSH1 0x0 DUP3 DUP3 DUP7 ADD ADD MSTORE DUP2 PUSH1 0x1F NOT PUSH1 0x1F DUP4 ADD AND DUP6 ADD ADD SWAP3 POP POP POP PUSH3 0x49A PUSH1 0x40 DUP4 ADD DUP9 PUSH11 0xFFFFFFFFFFFFFFFFFFFFFF NOT AND SWAP1 MSTORE JUMP JUMPDEST DUP6 PUSH1 0x60 DUP4 ADD MSTORE DUP5 PUSH1 0x80 DUP4 ADD MSTORE DUP4 PUSH1 0xA0 DUP4 ADD MSTORE PUSH3 0x4BC PUSH1 0xC0 DUP4 ADD DUP5 PUSH1 0xFF AND SWAP1 MSTORE JUMP JUMPDEST SWAP9 SWAP8 POP POP POP POP POP POP POP POP JUMP INVALID PUSH1 0x80 PUSH1 0x40 MSTORE PUSH1 0xA PUSH1 0xD SSTORE CALLVALUE DUP1 ISZERO PUSH3 0x16 JUMPI PUSH1 0x0 DUP1 REVERT JUMPDEST POP PUSH1 0x40 MLOAD PUSH3 0x1CC5 CODESIZE SUB DUP1 PUSH3 0x1CC5 DUP4 CODECOPY DUP2 ADD PUSH1 0x40 DUP2 SWAP1 MSTORE PUSH3 0x39 SWAP2 PUSH3 0x486 JUMP JUMPDEST PUSH3 0x44 CALLER PUSH3 0x22D JUMP JUMPDEST TIMESTAMP DUP4 GT PUSH3 0xA5 JUMPI PUSH1 0x40 MLOAD PUSH3 0x461BCD PUSH1 0xE5 SHL DUP2 MSTORE PUSH1 0x20 PUSH1 0x4 DUP3 ADD MSTORE PUSH1 0x23 PUSH1 0x24 DUP3 ADD MSTORE PUSH32 0x4D617475726974792074696D65206D75737420626520696E2074686520667574 PUSH1 0x44 DUP3 ADD MSTORE PUSH3 0x757265 PUSH1 0xE8 SHL PUSH1 0x64 DUP3 ADD MSTORE PUSH1 0x84 ADD JUMPDEST PUSH1 0x40 MLOAD DUP1 SWAP2 SUB SWAP1 REVERT JUMPDEST PUSH1 0x1 DUP3 LT ISZERO DUP1 ISZERO PUSH3 0xB8 JUMPI POP PUSH1 0xC8 DUP3 GT ISZERO JUMPDEST PUSH3 0x106 JUMPI PUSH1 0x40 MLOAD PUSH3 0x461BCD PUSH1 0xE5 SHL DUP2 MSTORE PUSH1 0x20 PUSH1 0x4 DUP3 ADD DUP2 SWAP1 MSTORE PUSH1 0x24 DUP3 ADD MSTORE PUSH32 0x466565206D757374206265206265747765656E20302E312520616E6420323025 PUSH1 0x44 DUP3 ADD MSTORE PUSH1 0x64 ADD PUSH3 0x9C JUMP JUMPDEST PUSH1 0x1 DUP2 PUSH1 0xFF AND LT ISZERO DUP1 ISZERO PUSH3 0x11F JUMPI POP PUSH1 0xA DUP2 PUSH1 0xFF AND GT ISZERO JUMPDEST PUSH3 0x17F JUMPI PUSH1 0x40 MLOAD PUSH3 0x461BCD PUSH1 0xE5 SHL DUP2 MSTORE PUSH1 0x20 PUSH1 0x4 DUP3 ADD MSTORE PUSH1 0x29 PUSH1 0x24 DUP3 ADD MSTORE PUSH32 0x496E646578206261636B67726F756E64206D757374206265206265747765656E PUSH1 0x44 DUP3 ADD MSTORE PUSH9 0x203120616E6420313 PUSH1 0xBC SHL PUSH1 0x64 DUP3 ADD MSTORE PUSH1 0x84 ADD PUSH3 0x9C JUMP JUMPDEST PUSH3 0x189 PUSH3 0x27D JUMP JUMPDEST PUSH1 0x3 DUP1 SLOAD PUSH1 0x1 PUSH1 0x1 PUSH1 0xA0 SHL SUB NOT AND PUSH1 0x1 PUSH1 0x1 PUSH1 0xA0 SHL SUB SWAP3 SWAP1 SWAP3 AND SWAP2 SWAP1 SWAP2 OR SWAP1 SSTORE PUSH1 0x5 PUSH3 0x1B7 DUP8 DUP3 PUSH3 0x640 JUMP JUMPDEST POP PUSH1 0x4 DUP1 SLOAD PUSH1 0x1 PUSH1 0x1 PUSH1 0xA8 SHL SUB NOT AND PUSH1 0x58 DUP8 SWAP1 SHR OR SWAP1 SSTORE PUSH1 0x40 DUP1 MLOAD DUP1 DUP3 ADD SWAP1 SWAP2 MSTORE DUP5 DUP2 MSTORE PUSH1 0x0 PUSH1 0x20 SWAP1 SWAP2 ADD DUP2 SWAP1 MSTORE PUSH1 0x1 DUP6 SWAP1 SSTORE PUSH1 0x2 SSTORE PUSH1 0x12 DUP4 SWAP1 SSTORE TIMESTAMP PUSH1 0x11 SSTORE PUSH1 0xD DUP3 SWAP1 SSTORE PUSH1 0x15 DUP1 SLOAD PUSH1 0xFF NOT AND PUSH1 0xFF DUP4 AND OR SWAP1 SSTORE PUSH1 0xC DUP1 SLOAD PUSH2 0xFF00 NOT AND SWAP1 SSTORE PUSH3 0x220 DUP8 PUSH3 0x34B JUMP JUMPDEST POP POP POP POP POP POP POP PUSH3 0x731 JUMP JUMPDEST PUSH1 0x0 DUP1 SLOAD PUSH1 0x1 PUSH1 0x1 PUSH1 0xA0 SHL SUB DUP4 DUP2 AND PUSH1 0x1 PUSH1 0x1 PUSH1 0xA0 SHL SUB NOT DUP4 AND DUP2 OR DUP5 SSTORE PUSH1 0x40 MLOAD SWAP2 SWAP1 SWAP3 AND SWAP3 DUP4 SWAP2 PUSH32 0x8BE0079C531659141344CD1FD0A4F28419497F9722A3DAAFE3B4186F6B6457E0 SWAP2 SWAP1 LOG3 POP POP JUMP JUMPDEST PUSH1 0x0 PUSH20 0xAD67FE66660FB8DFE9D6B1B4240D8650E30F6019 PUSH1 0x1 PUSH1 0x1 PUSH1 0xA0 SHL SUB AND PUSH4 0x159354A2 PUSH1 0x40 MLOAD PUSH1 0x20 ADD PUSH3 0x2CD SWAP1 PUSH1 0x20 DUP1 DUP3 MSTORE PUSH1 0x6 SWAP1 DUP3 ADD MSTORE PUSH6 0x233A39B7AB19 PUSH1 0xD1 SHL PUSH1 0x40 DUP3 ADD MSTORE PUSH1 0x60 ADD SWAP1 JUMP JUMPDEST PUSH1 0x40 MLOAD PUSH1 0x20 DUP2 DUP4 SUB SUB DUP2 MSTORE SWAP1 PUSH1 0x40 MSTORE DUP1 MLOAD SWAP1 PUSH1 0x20 ADD KECCAK256 PUSH1 0x40 MLOAD DUP3 PUSH4 0xFFFFFFFF AND PUSH1 0xE0 SHL DUP2 MSTORE PUSH1 0x4 ADD PUSH3 0x302 SWAP2 DUP2 MSTORE PUSH1 0x20 ADD SWAP1 JUMP JUMPDEST PUSH1 0x20 PUSH1 0x40 MLOAD DUP1 DUP4 SUB DUP2 DUP7 GAS STATICCALL ISZERO DUP1 ISZERO PUSH3 0x320 JUMPI RETURNDATASIZE PUSH1 0x0 DUP1 RETURNDATACOPY RETURNDATASIZE PUSH1 0x0 REVERT JUMPDEST POP POP POP POP PUSH1 0x40 MLOAD RETURNDATASIZE PUSH1 0x1F NOT PUSH1 0x1F DUP3 ADD AND DUP3 ADD DUP1 PUSH1 0x40 MSTORE POP DUP2 ADD SWAP1 PUSH3 0x346 SWAP2 SWAP1 PUSH3 0x70C JUMP JUMPDEST SWAP1 POP SWAP1 JUMP JUMPDEST PUSH3 0x355 PUSH3 0x3CA JUMP JUMPDEST PUSH1 0x1 PUSH1 0x1 PUSH1 0xA0 SHL SUB DUP2 AND PUSH3 0x3BC JUMPI PUSH1 0x40 MLOAD PUSH3 0x461BCD PUSH1 0xE5 SHL DUP2 MSTORE PUSH1 0x20 PUSH1 0x4 DUP3 ADD MSTORE PUSH1 0x26 PUSH1 0x24 DUP3 ADD MSTORE PUSH32 0x4F776E61626C653A206E6577206F776E657220697320746865207A65726F2061 PUSH1 0x44 DUP3 ADD MSTORE PUSH6 0x646472657373 PUSH1 0xD0 SHL PUSH1 0x64 DUP3 ADD MSTORE PUSH1 0x84 ADD PUSH3 0x9C JUMP JUMPDEST PUSH3 0x3C7 DUP2 PUSH3 0x22D JUMP JUMPDEST POP JUMP JUMPDEST PUSH1 0x0 SLOAD PUSH1 0x1 PUSH1 0x1 PUSH1 0xA0 SHL SUB AND CALLER EQ PUSH3 0x426 JUMPI PUSH1 0x40 MLOAD PUSH3 0x461BCD PUSH1 0xE5 SHL DUP2 MSTORE PUSH1 0x20 PUSH1 0x4 DUP3 ADD DUP2 SWAP1 MSTORE PUSH1 0x24 DUP3 ADD MSTORE PUSH32 0x4F776E61626C653A2063616C6C6572206973206E6F7420746865206F776E6572 PUSH1 0x44 DUP3 ADD MSTORE PUSH1 0x64 ADD PUSH3 0x9C JUMP JUMPDEST JUMP JUMPDEST DUP1 MLOAD PUSH1 0x1 PUSH1 0x1 PUSH1 0xA0 SHL SUB DUP2 AND DUP2 EQ PUSH3 0x440 JUMPI PUSH1 0x0 DUP1 REVERT JUMPDEST SWAP2 SWAP1 POP JUMP JUMPDEST PUSH4 0x4E487B71 PUSH1 0xE0 SHL PUSH1 0x0 MSTORE PUSH1 0x41 PUSH1 0x4 MSTORE PUSH1 0x24 PUSH1 0x0 REVERT JUMPDEST DUP1 MLOAD PUSH1 0x1 PUSH1 0x1 PUSH1 0x58 SHL SUB NOT DUP2 AND DUP2 EQ PUSH3 0x440 JUMPI PUSH1 0x0 DUP1 REVERT JUMPDEST DUP1 MLOAD PUSH1 0xFF DUP2 AND DUP2 EQ PUSH3 0x440 JUMPI PUSH1 0x0 DUP1 REVERT JUMPDEST PUSH1 0x0 DUP1 PUSH1 0x0 DUP1 PUSH1 0x0 DUP1 PUSH1 0x0 PUSH1 0xE0 DUP9 DUP11 SUB SLT ISZERO PUSH3 0x4A2 JUMPI PUSH1 0x0 DUP1 REVERT JUMPDEST PUSH3 0x4AD DUP9 PUSH3 0x428 JUMP JUMPDEST PUSH1 0x20 DUP10 DUP2 ADD MLOAD SWAP2 SWAP9 POP SWAP1 PUSH1 0x1 PUSH1 0x1 PUSH1 0x40 SHL SUB DUP1 DUP3 GT ISZERO PUSH3 0x4CD JUMPI PUSH1 0x0 DUP1 REVERT JUMPDEST DUP2 DUP12 ADD SWAP2 POP DUP12 PUSH1 0x1F DUP4 ADD SLT PUSH3 0x4E2 JUMPI PUSH1 0x0 DUP1 REVERT JUMPDEST DUP2 MLOAD DUP2 DUP2 GT ISZERO PUSH3 0x4F7 JUMPI PUSH3 0x4F7 PUSH3 0x445 JUMP JUMPDEST PUSH1 0x40 MLOAD PUSH1 0x1F DUP3 ADD PUSH1 0x1F NOT SWAP1 DUP2 AND PUSH1 0x3F ADD AND DUP2 ADD SWAP1 DUP4 DUP3 GT DUP2 DUP4 LT OR ISZERO PUSH3 0x522 JUMPI PUSH3 0x522 PUSH3 0x445 JUMP JUMPDEST DUP2 PUSH1 0x40 MSTORE DUP3 DUP2 MSTORE DUP15 DUP7 DUP5 DUP8 ADD ADD GT ISZERO PUSH3 0x53B JUMPI PUSH1 0x0 DUP1 REVERT JUMPDEST PUSH1 0x0 SWAP4 POP JUMPDEST DUP3 DUP5 LT ISZERO PUSH3 0x55F JUMPI DUP5 DUP5 ADD DUP7 ADD MLOAD DUP2 DUP6 ADD DUP8 ADD MSTORE SWAP3 DUP6 ADD SWAP3 PUSH3 0x540 JUMP JUMPDEST PUSH1 0x0 DUP7 DUP5 DUP4 ADD ADD MSTORE DUP1 SWAP12 POP POP POP POP POP POP POP PUSH3 0x57E PUSH1 0x40 DUP10 ADD PUSH3 0x45B JUMP JUMPDEST SWAP5 POP PUSH1 0x60 DUP9 ADD MLOAD SWAP4 POP PUSH1 0x80 DUP9 ADD MLOAD SWAP3 POP PUSH1 0xA0 DUP9 ADD MLOAD SWAP2 POP PUSH3 0x5A3 PUSH1 0xC0 DUP10 ADD PUSH3 0x474 JUMP JUMPDEST SWAP1 POP SWAP3 SWAP6 SWAP9 SWAP2 SWAP5 SWAP8 POP SWAP3 SWAP6 POP JUMP JUMPDEST PUSH1 0x1 DUP2 DUP2 SHR SWAP1 DUP3 AND DUP1 PUSH3 0x5C6 JUMPI PUSH1 0x7F DUP3 AND SWAP2 POP JUMPDEST PUSH1 0x20 DUP3 LT DUP2 SUB PUSH3 0x5E7 JUMPI PUSH4 0x4E487B71 PUSH1 0xE0 SHL PUSH1 0x0 MSTORE PUSH1 0x22 PUSH1 0x4 MSTORE PUSH1 0x24 PUSH1 0x0 REVERT JUMPDEST POP SWAP2 SWAP1 POP JUMP JUMPDEST PUSH1 0x1F DUP3 GT ISZERO PUSH3 0x63B JUMPI PUSH1 0x0 DUP2 DUP2 MSTORE PUSH1 0x20 DUP2 KECCAK256 PUSH1 0x1F DUP6 ADD PUSH1 0x5 SHR DUP2 ADD PUSH1 0x20 DUP7 LT ISZERO PUSH3 0x616 JUMPI POP DUP1 JUMPDEST PUSH1 0x1F DUP6 ADD PUSH1 0x5 SHR DUP3 ADD SWAP2 POP JUMPDEST DUP2 DUP2 LT ISZERO PUSH3 0x637 JUMPI DUP3 DUP2 SSTORE PUSH1 0x1 ADD PUSH3 0x622 JUMP JUMPDEST POP POP POP JUMPDEST POP POP POP JUMP JUMPDEST DUP2 MLOAD PUSH1 0x1 PUSH1 0x1 PUSH1 0x40 SHL SUB DUP2 GT ISZERO PUSH3 0x65C JUMPI PUSH3 0x65C PUSH3 0x445 JUMP JUMPDEST PUSH3 0x674 DUP2 PUSH3 0x66D DUP5 SLOAD PUSH3 0x5B1 JUMP JUMPDEST DUP5 PUSH3 0x5ED JUMP JUMPDEST PUSH1 0x20 DUP1 PUSH1 0x1F DUP4 GT PUSH1 0x1 DUP2 EQ PUSH3 0x6AC JUMPI PUSH1 0x0 DUP5 ISZERO PUSH3 0x693 JUMPI POP DUP6 DUP4 ADD MLOAD JUMPDEST PUSH1 0x0 NOT PUSH1 0x3 DUP7 SWAP1 SHL SHR NOT AND PUSH1 0x1 DUP6 SWAP1 SHL OR DUP6 SSTORE PUSH3 0x637 JUMP JUMPDEST PUSH1 0x0 DUP6 DUP2 MSTORE PUSH1 0x20 DUP2 KECCAK256 PUSH1 0x1F NOT DUP7 AND SWAP2 JUMPDEST DUP3 DUP2 LT ISZERO PUSH3 0x6DD JUMPI DUP9 DUP7 ADD MLOAD DUP3 SSTORE SWAP5 DUP5 ADD SWAP5 PUSH1 0x1 SWAP1 SWAP2 ADD SWAP1 DUP5 ADD PUSH3 0x6BC JUMP JUMPDEST POP DUP6 DUP3 LT ISZERO PUSH3 0x6FC JUMPI DUP8 DUP6 ADD MLOAD PUSH1 0x0 NOT PUSH1 0x3 DUP9 SWAP1 SHL PUSH1 0xF8 AND SHR NOT AND DUP2 SSTORE JUMPDEST POP POP POP POP POP PUSH1 0x1 SWAP1 DUP2 SHL ADD SWAP1 SSTORE POP JUMP JUMPDEST PUSH1 0x0 PUSH1 0x20 DUP3 DUP5 SUB SLT ISZERO PUSH3 0x71F JUMPI PUSH1 0x0 DUP1 REVERT JUMPDEST PUSH3 0x72A DUP3 PUSH3 0x428 JUMP JUMPDEST SWAP4 SWAP3 POP POP POP JUMP JUMPDEST PUSH2 0x1584 DUP1 PUSH3 0x741 PUSH1 0x0 CODECOPY PUSH1 0x0 RETURN INVALID PUSH1 0x80 PUSH1 0x40 MSTORE PUSH1 0x4 CALLDATASIZE LT PUSH2 0x1B7 JUMPI PUSH1 0x0 CALLDATALOAD PUSH1 0xE0 SHR DUP1 PUSH4 0x8DA5CB5B GT PUSH2 0xEC JUMPI DUP1 PUSH4 0xB88A802F GT PUSH2 0x8A JUMPI DUP1 PUSH4 0xEB91D37E GT PUSH2 0x64 JUMPI DUP1 PUSH4 0xEB91D37E EQ PUSH2 0x4CB JUMPI DUP1 PUSH4 0xF2FDE38B EQ PUSH2 0x508 JUMPI DUP1 PUSH4 0xF86E83E5 EQ PUSH2 0x528 JUMPI DUP1 PUSH4 0xFF50ABDC EQ PUSH2 0x554 JUMPI PUSH1 0x0 DUP1 REVERT JUMPDEST DUP1 PUSH4 0xB88A802F EQ PUSH2 0x479 JUMPI DUP1 PUSH4 0xBA5B7982 EQ PUSH2 0x48E JUMPI DUP1 PUSH4 0xD42F6E39 EQ PUSH2 0x4A9 JUMPI PUSH1 0x0 DUP1 REVERT JUMPDEST DUP1 PUSH4 0x9CE05DF7 GT PUSH2 0xC6 JUMPI DUP1 PUSH4 0x9CE05DF7 EQ PUSH2 0x406 JUMPI DUP1 PUSH4 0x9E891F3E EQ PUSH2 0x41B JUMPI DUP1 PUSH4 0xA001ECDD EQ PUSH2 0x430 JUMPI DUP1 PUSH4 0xA5E1803A EQ PUSH2 0x446 JUMPI PUSH1 0x0 DUP1 REVERT JUMPDEST DUP1 PUSH4 0x8DA5CB5B EQ PUSH2 0x374 JUMPI DUP1 PUSH4 0x98508ECD EQ PUSH2 0x39C JUMPI DUP1 PUSH4 0x9AF1D35A EQ PUSH2 0x3CC JUMPI PUSH1 0x0 DUP1 REVERT JUMPDEST DUP1 PUSH4 0x4E8BFDAA GT PUSH2 0x159 JUMPI DUP1 PUSH4 0x715018A6 GT PUSH2 0x133 JUMPI DUP1 PUSH4 0x715018A6 EQ PUSH2 0x304 JUMPI DUP1 PUSH4 0x73B2E80E EQ PUSH2 0x319 JUMPI DUP1 PUSH4 0x7A40624B EQ PUSH2 0x349 JUMPI DUP1 PUSH4 0x7D7B39E4 EQ PUSH2 0x35F JUMPI PUSH1 0x0 DUP1 REVERT JUMPDEST DUP1 PUSH4 0x4E8BFDAA EQ PUSH2 0x2AB JUMPI DUP1 PUSH4 0x51B72DC5 EQ PUSH2 0x2C1 JUMPI DUP1 PUSH4 0x553FC574 EQ PUSH2 0x2EE JUMPI PUSH1 0x0 DUP1 REVERT JUMPDEST DUP1 PUSH4 0x2B9B55B3 GT PUSH2 0x195 JUMPI DUP1 PUSH4 0x2B9B55B3 EQ PUSH2 0x242 JUMPI DUP1 PUSH4 0x33500E26 EQ PUSH2 0x259 JUMPI DUP1 PUSH4 0x3CCFD60B EQ PUSH2 0x26C JUMPI DUP1 PUSH4 0x3F6FA655 EQ PUSH2 0x281 JUMPI PUSH1 0x0 DUP1 REVERT JUMPDEST DUP1 PUSH4 0x55AD42E EQ PUSH2 0x1BC JUMPI DUP1 PUSH4 0x5ED76C4 EQ PUSH2 0x1F1 JUMPI DUP1 PUSH4 0x1955E146 EQ PUSH2 0x215 JUMPI JUMPDEST PUSH1 0x0 DUP1 REVERT JUMPDEST CALLVALUE DUP1 ISZERO PUSH2 0x1C8 JUMPI PUSH1 0x0 DUP1 REVERT JUMPDEST POP PUSH1 0xC SLOAD PUSH2 0x1DB SWAP1 PUSH2 0x100 SWAP1 DIV PUSH1 0xFF AND DUP2 JUMP JUMPDEST PUSH1 0x40 MLOAD PUSH2 0x1E8 SWAP2 SWAP1 PUSH2 0x11FA JUMP JUMPDEST PUSH1 0x40 MLOAD DUP1 SWAP2 SUB SWAP1 RETURN JUMPDEST CALLVALUE DUP1 ISZERO PUSH2 0x1FD JUMPI PUSH1 0x0 DUP1 REVERT JUMPDEST POP PUSH2 0x207 PUSH1 0x13 SLOAD DUP2 JUMP JUMPDEST PUSH1 0x40 MLOAD SWAP1 DUP2 MSTORE PUSH1 0x20 ADD PUSH2 0x1E8 JUMP JUMPDEST CALLVALUE DUP1 ISZERO PUSH2 0x221 JUMPI PUSH1 0x0 DUP1 REVERT JUMPDEST POP PUSH2 0x207 PUSH2 0x230 CALLDATASIZE PUSH1 0x4 PUSH2 0x1214 JUMP JUMPDEST PUSH1 0xE PUSH1 0x20 MSTORE PUSH1 0x0 SWAP1 DUP2 MSTORE PUSH1 0x40 SWAP1 KECCAK256 SLOAD DUP2 JUMP JUMPDEST CALLVALUE DUP1 ISZERO PUSH2 0x24E JUMPI PUSH1 0x0 DUP1 REVERT JUMPDEST POP PUSH2 0x257 PUSH2 0x56A JUMP JUMPDEST STOP JUMPDEST PUSH2 0x257 PUSH2 0x267 CALLDATASIZE PUSH1 0x4 PUSH2 0x1244 JUMP JUMPDEST PUSH2 0x72D JUMP JUMPDEST CALLVALUE DUP1 ISZERO PUSH2 0x278 JUMPI PUSH1 0x0 DUP1 REVERT JUMPDEST POP PUSH2 0x257 PUSH2 0x928 JUMP JUMPDEST CALLVALUE DUP1 ISZERO PUSH2 0x28D JUMPI PUSH1 0x0 DUP1 REVERT JUMPDEST POP PUSH1 0xC SLOAD PUSH2 0x29B SWAP1 PUSH1 0xFF AND DUP2 JUMP JUMPDEST PUSH1 0x40 MLOAD SWAP1 ISZERO ISZERO DUP2 MSTORE PUSH1 0x20 ADD PUSH2 0x1E8 JUMP JUMPDEST CALLVALUE DUP1 ISZERO PUSH2 0x2B7 JUMPI PUSH1 0x0 DUP1 REVERT JUMPDEST POP PUSH2 0x207 PUSH1 0x12 SLOAD DUP2 JUMP JUMPDEST CALLVALUE DUP1 ISZERO PUSH2 0x2CD JUMPI PUSH1 0x0 DUP1 REVERT JUMPDEST POP PUSH2 0x207 PUSH2 0x2DC CALLDATASIZE PUSH1 0x4 PUSH2 0x1214 JUMP JUMPDEST PUSH1 0xF PUSH1 0x20 MSTORE PUSH1 0x0 SWAP1 DUP2 MSTORE PUSH1 0x40 SWAP1 KECCAK256 SLOAD DUP2 JUMP JUMPDEST CALLVALUE DUP1 ISZERO PUSH2 0x2FA JUMPI PUSH1 0x0 DUP1 REVERT JUMPDEST POP PUSH2 0x207 PUSH1 0x14 SLOAD DUP2 JUMP JUMPDEST CALLVALUE DUP1 ISZERO PUSH2 0x310 JUMPI PUSH1 0x0 DUP1 REVERT JUMPDEST POP PUSH2 0x257 PUSH2 0x9DE JUMP JUMPDEST CALLVALUE DUP1 ISZERO PUSH2 0x325 JUMPI PUSH1 0x0 DUP1 REVERT JUMPDEST POP PUSH2 0x29B PUSH2 0x334 CALLDATASIZE PUSH1 0x4 PUSH2 0x1214 JUMP JUMPDEST PUSH1 0x10 PUSH1 0x20 MSTORE PUSH1 0x0 SWAP1 DUP2 MSTORE PUSH1 0x40 SWAP1 KECCAK256 SLOAD PUSH1 0xFF AND DUP2 JUMP JUMPDEST CALLVALUE DUP1 ISZERO PUSH2 0x355 JUMPI PUSH1 0x0 DUP1 REVERT JUMPDEST POP PUSH2 0x207 PUSH1 0x11 SLOAD DUP2 JUMP JUMPDEST CALLVALUE DUP1 ISZERO PUSH2 0x36B JUMPI PUSH1 0x0 DUP1 REVERT JUMPDEST POP PUSH2 0x257 PUSH2 0x9F2 JUMP JUMPDEST CALLVALUE DUP1 ISZERO PUSH2 0x380 JUMPI PUSH1 0x0 DUP1 REVERT JUMPDEST POP PUSH1 0x0 SLOAD PUSH1 0x40 MLOAD PUSH1 0x1 PUSH1 0x1 PUSH1 0xA0 SHL SUB SWAP1 SWAP2 AND DUP2 MSTORE PUSH1 0x20 ADD PUSH2 0x1E8 JUMP JUMPDEST CALLVALUE DUP1 ISZERO PUSH2 0x3A8 JUMPI PUSH1 0x0 DUP1 REVERT JUMPDEST POP PUSH1 0x1 SLOAD PUSH1 0x2 SLOAD PUSH2 0x3B7 SWAP2 SWAP1 DUP3 JUMP JUMPDEST PUSH1 0x40 DUP1 MLOAD SWAP3 DUP4 MSTORE PUSH1 0x20 DUP4 ADD SWAP2 SWAP1 SWAP2 MSTORE ADD PUSH2 0x1E8 JUMP JUMPDEST CALLVALUE DUP1 ISZERO PUSH2 0x3D8 JUMPI PUSH1 0x0 DUP1 REVERT JUMPDEST POP PUSH1 0x8 SLOAD PUSH1 0x9 SLOAD PUSH1 0xA SLOAD PUSH2 0x3EB SWAP3 SWAP2 SWAP1 DUP4 JUMP JUMPDEST PUSH1 0x40 DUP1 MLOAD SWAP4 DUP5 MSTORE PUSH1 0x20 DUP5 ADD SWAP3 SWAP1 SWAP3 MSTORE SWAP1 DUP3 ADD MSTORE PUSH1 0x60 ADD PUSH2 0x1E8 JUMP JUMPDEST CALLVALUE DUP1 ISZERO PUSH2 0x412 JUMPI PUSH1 0x0 DUP1 REVERT JUMPDEST POP PUSH1 0x2 SLOAD PUSH2 0x207 JUMP JUMPDEST CALLVALUE DUP1 ISZERO PUSH2 0x427 JUMPI PUSH1 0x0 DUP1 REVERT JUMPDEST POP PUSH2 0x257 PUSH2 0xA7A JUMP JUMPDEST CALLVALUE DUP1 ISZERO PUSH2 0x43C JUMPI PUSH1 0x0 DUP1 REVERT JUMPDEST POP PUSH2 0x207 PUSH1 0xD SLOAD DUP2 JUMP JUMPDEST CALLVALUE DUP1 ISZERO PUSH2 0x452 JUMPI PUSH1 0x0 DUP1 REVERT JUMPDEST POP PUSH2 0x45B PUSH2 0xB55 JUMP JUMPDEST PUSH1 0x40 DUP1 MLOAD SWAP3 DUP4 MSTORE PUSH8 0xFFFFFFFFFFFFFFFF SWAP1 SWAP2 AND PUSH1 0x20 DUP4 ADD MSTORE ADD PUSH2 0x1E8 JUMP JUMPDEST CALLVALUE DUP1 ISZERO PUSH2 0x485 JUMPI PUSH1 0x0 DUP1 REVERT JUMPDEST POP PUSH2 0x257 PUSH2 0xBEF JUMP JUMPDEST CALLVALUE DUP1 ISZERO PUSH2 0x49A JUMPI PUSH1 0x0 DUP1 REVERT JUMPDEST POP PUSH1 0x6 SLOAD PUSH1 0x7 SLOAD PUSH2 0x3B7 SWAP2 SWAP1 DUP3 JUMP JUMPDEST CALLVALUE DUP1 ISZERO PUSH2 0x4B5 JUMPI PUSH1 0x0 DUP1 REVERT JUMPDEST POP PUSH2 0x4BE PUSH2 0xEE7 JUMP JUMPDEST PUSH1 0x40 MLOAD PUSH2 0x1E8 SWAP2 SWAP1 PUSH2 0x1265 JUMP JUMPDEST CALLVALUE DUP1 ISZERO PUSH2 0x4D7 JUMPI PUSH1 0x0 DUP1 REVERT JUMPDEST POP PUSH2 0x4E0 PUSH2 0xF75 JUMP JUMPDEST PUSH1 0x40 DUP1 MLOAD SWAP4 DUP5 MSTORE PUSH1 0x0 SWAP3 SWAP1 SWAP3 SIGNEXTEND PUSH1 0x20 DUP5 ADD MSTORE PUSH8 0xFFFFFFFFFFFFFFFF AND SWAP1 DUP3 ADD MSTORE PUSH1 0x60 ADD PUSH2 0x1E8 JUMP JUMPDEST CALLVALUE DUP1 ISZERO PUSH2 0x514 JUMPI PUSH1 0x0 DUP1 REVERT JUMPDEST POP PUSH2 0x257 PUSH2 0x523 CALLDATASIZE PUSH1 0x4 PUSH2 0x1214 JUMP JUMPDEST PUSH2 0x100C JUMP JUMPDEST CALLVALUE DUP1 ISZERO PUSH2 0x534 JUMPI PUSH1 0x0 DUP1 REVERT JUMPDEST POP PUSH1 0x15 SLOAD PUSH2 0x542 SWAP1 PUSH1 0xFF AND DUP2 JUMP JUMPDEST PUSH1 0x40 MLOAD PUSH1 0xFF SWAP1 SWAP2 AND DUP2 MSTORE PUSH1 0x20 ADD PUSH2 0x1E8 JUMP JUMPDEST CALLVALUE DUP1 ISZERO PUSH2 0x560 JUMPI PUSH1 0x0 DUP1 REVERT JUMPDEST POP PUSH2 0x207 PUSH1 0xB SLOAD DUP2 JUMP JUMPDEST PUSH2 0x572 PUSH2 0x1085 JUMP JUMPDEST PUSH1 0x0 PUSH1 0xC SLOAD PUSH2 0x100 SWAP1 DIV PUSH1 0xFF AND PUSH1 0x3 DUP2 GT ISZERO PUSH2 0x590 JUMPI PUSH2 0x590 PUSH2 0x11E4 JUMP JUMPDEST EQ PUSH2 0x5E2 JUMPI PUSH1 0x40 MLOAD PUSH3 0x461BCD PUSH1 0xE5 SHL DUP2 MSTORE PUSH1 0x20 PUSH1 0x4 DUP3 ADD MSTORE PUSH1 0x1B PUSH1 0x24 DUP3 ADD MSTORE PUSH32 0x4D61726B6574206E6F7420696E2074726164696E672070686173650000000000 PUSH1 0x44 DUP3 ADD MSTORE PUSH1 0x64 ADD JUMPDEST PUSH1 0x40 MLOAD DUP1 SWAP2 SUB SWAP1 REVERT JUMPDEST PUSH1 0x12 SLOAD TIMESTAMP LT ISZERO PUSH2 0x62B JUMPI PUSH1 0x40 MLOAD PUSH3 0x461BCD PUSH1 0xE5 SHL DUP2 MSTORE PUSH1 0x20 PUSH1 0x4 DUP3 ADD MSTORE PUSH1 0x14 PUSH1 0x24 DUP3 ADD MSTORE PUSH20 0x546F6F206561726C7920746F207265736F6C7665 PUSH1 0x60 SHL PUSH1 0x44 DUP3 ADD MSTORE PUSH1 0x64 ADD PUSH2 0x5D9 JUMP JUMPDEST PUSH1 0x3 SLOAD PUSH1 0x4 DUP1 SLOAD PUSH1 0x40 MLOAD PUSH4 0x49F4FC03 PUSH1 0xE1 SHL DUP2 MSTORE PUSH1 0x58 SWAP2 SWAP1 SWAP2 SHL PUSH11 0xFFFFFFFFFFFFFFFFFFFFFF NOT AND SWAP2 DUP2 ADD SWAP2 SWAP1 SWAP2 MSTORE PUSH1 0x0 SWAP2 DUP3 SWAP2 DUP3 SWAP2 PUSH1 0x1 PUSH1 0x1 PUSH1 0xA0 SHL SUB AND SWAP1 PUSH4 0x93E9F806 SWAP1 PUSH1 0x24 ADD PUSH1 0x60 PUSH1 0x40 MLOAD DUP1 DUP4 SUB DUP2 PUSH1 0x0 DUP8 GAS CALL ISZERO DUP1 ISZERO PUSH2 0x693 JUMPI RETURNDATASIZE PUSH1 0x0 DUP1 RETURNDATACOPY RETURNDATASIZE PUSH1 0x0 REVERT JUMPDEST POP POP POP POP PUSH1 0x40 MLOAD RETURNDATASIZE PUSH1 0x1F NOT PUSH1 0x1F DUP3 ADD AND DUP3 ADD DUP1 PUSH1 0x40 MSTORE POP DUP2 ADD SWAP1 PUSH2 0x6B7 SWAP2 SWAP1 PUSH2 0x12D0 JUMP JUMPDEST SWAP2 SWAP5 POP SWAP3 POP SWAP1 POP DUP3 PUSH1 0x0 DUP4 DUP2 SIGNEXTEND SLT ISZERO PUSH2 0x6EF JUMPI PUSH2 0x6D3 DUP4 PUSH2 0x132A JUMP JUMPDEST PUSH2 0x6DE SWAP1 PUSH1 0xA PUSH2 0x142E JUMP JUMPDEST PUSH2 0x6E8 SWAP1 DUP6 PUSH2 0x143D JUMP JUMPDEST SWAP1 POP PUSH2 0x713 JUMP JUMPDEST PUSH1 0x0 DUP4 PUSH1 0x0 SIGNEXTEND SGT ISZERO PUSH2 0x713 JUMPI PUSH2 0x706 DUP4 PUSH1 0xA PUSH2 0x142E JUMP JUMPDEST PUSH2 0x710 SWAP1 DUP6 PUSH2 0x1454 JUMP JUMPDEST SWAP1 POP JUMPDEST PUSH2 0x727 DUP2 DUP4 PUSH8 0xFFFFFFFFFFFFFFFF AND PUSH2 0x10DF JUMP JUMPDEST POP POP POP POP JUMP JUMPDEST PUSH1 0x1 PUSH1 0xC SLOAD PUSH2 0x100 SWAP1 DIV PUSH1 0xFF AND PUSH1 0x3 DUP2 GT ISZERO PUSH2 0x74B JUMPI PUSH2 0x74B PUSH2 0x11E4 JUMP JUMPDEST EQ PUSH2 0x78F JUMPI PUSH1 0x40 MLOAD PUSH3 0x461BCD PUSH1 0xE5 SHL DUP2 MSTORE PUSH1 0x20 PUSH1 0x4 DUP3 ADD MSTORE PUSH1 0x14 PUSH1 0x24 DUP3 ADD MSTORE PUSH20 0x4E6F7420696E2062696464696E67207068617365 PUSH1 0x60 SHL PUSH1 0x44 DUP3 ADD MSTORE PUSH1 0x64 ADD PUSH2 0x5D9 JUMP JUMPDEST PUSH1 0x0 CALLVALUE GT PUSH2 0x7DF JUMPI PUSH1 0x40 MLOAD PUSH3 0x461BCD PUSH1 0xE5 SHL DUP2 MSTORE PUSH1 0x20 PUSH1 0x4 DUP3 ADD MSTORE PUSH1 0x1F PUSH1 0x24 DUP3 ADD MSTORE PUSH32 0x56616C7565206D7573742062652067726561746572207468616E207A65726F00 PUSH1 0x44 DUP3 ADD MSTORE PUSH1 0x64 ADD PUSH2 0x5D9 JUMP JUMPDEST PUSH1 0x0 DUP2 PUSH1 0x1 DUP2 GT ISZERO PUSH2 0x7F3 JUMPI PUSH2 0x7F3 PUSH2 0x11E4 JUMP JUMPDEST SUB PUSH2 0x83C JUMPI CALLVALUE PUSH1 0x6 PUSH1 0x0 ADD PUSH1 0x0 DUP3 DUP3 SLOAD PUSH2 0x80D SWAP2 SWAP1 PUSH2 0x1476 JUMP JUMPDEST SWAP1 SWAP2 SSTORE POP POP CALLER PUSH1 0x0 SWAP1 DUP2 MSTORE PUSH1 0xE PUSH1 0x20 MSTORE PUSH1 0x40 DUP2 KECCAK256 DUP1 SLOAD CALLVALUE SWAP3 SWAP1 PUSH2 0x831 SWAP1 DUP5 SWAP1 PUSH2 0x1476 JUMP JUMPDEST SWAP1 SWAP2 SSTORE POP PUSH2 0x87B SWAP1 POP JUMP JUMPDEST CALLVALUE PUSH1 0x6 PUSH1 0x1 ADD PUSH1 0x0 DUP3 DUP3 SLOAD PUSH2 0x851 SWAP2 SWAP1 PUSH2 0x1476 JUMP JUMPDEST SWAP1 SWAP2 SSTORE POP POP CALLER PUSH1 0x0 SWAP1 DUP2 MSTORE PUSH1 0xF PUSH1 0x20 MSTORE PUSH1 0x40 DUP2 KECCAK256 DUP1 SLOAD CALLVALUE SWAP3 SWAP1 PUSH2 0x875 SWAP1 DUP5 SWAP1 PUSH2 0x1476 JUMP JUMPDEST SWAP1 SWAP2 SSTORE POP POP JUMPDEST CALLVALUE PUSH1 0xB PUSH1 0x0 DUP3 DUP3 SLOAD PUSH2 0x88D SWAP2 SWAP1 PUSH2 0x1476 JUMP JUMPDEST SWAP1 SWAP2 SSTORE POP POP PUSH1 0x6 SLOAD PUSH1 0x7 SLOAD PUSH1 0xB SLOAD PUSH1 0x40 DUP1 MLOAD TIMESTAMP DUP2 MSTORE PUSH1 0x20 DUP2 ADD SWAP5 SWAP1 SWAP5 MSTORE DUP4 ADD SWAP2 SWAP1 SWAP2 MSTORE PUSH1 0x60 DUP3 ADD MSTORE PUSH32 0x5FD7E45CC570ECECA5A25E81AF5F4ACC6A2456C0FB1EEE17751EC71677D32F3C SWAP1 PUSH1 0x80 ADD PUSH1 0x40 MLOAD DUP1 SWAP2 SUB SWAP1 LOG1 CALLER PUSH1 0x1 PUSH1 0x1 PUSH1 0xA0 SHL SUB AND PUSH32 0x70BD4A33BF447720D717D08F3AFFB5AECFE4D2EBB8E3DD94539F5313E2447643 DUP3 CALLVALUE PUSH1 0x40 MLOAD PUSH2 0x91D SWAP3 SWAP2 SWAP1 PUSH2 0x149D JUMP JUMPDEST PUSH1 0x40 MLOAD DUP1 SWAP2 SUB SWAP1 LOG2 POP JUMP JUMPDEST PUSH2 0x930 PUSH2 0x1085 JUMP JUMPDEST SELFBALANCE DUP1 PUSH2 0x97E JUMPI PUSH1 0x40 MLOAD PUSH3 0x461BCD PUSH1 0xE5 SHL DUP2 MSTORE PUSH1 0x20 PUSH1 0x4 DUP3 ADD MSTORE PUSH1 0x17 PUSH1 0x24 DUP3 ADD MSTORE PUSH32 0x4E6F2062616C616E636520746F2077697468647261772E000000000000000000 PUSH1 0x44 DUP3 ADD MSTORE PUSH1 0x64 ADD PUSH2 0x5D9 JUMP JUMPDEST PUSH1 0x40 MLOAD CALLER SWAP1 DUP3 ISZERO PUSH2 0x8FC MUL SWAP1 DUP4 SWAP1 PUSH1 0x0 DUP2 DUP2 DUP2 DUP6 DUP9 DUP9 CALL SWAP4 POP POP POP POP ISZERO DUP1 ISZERO PUSH2 0x9AB JUMPI RETURNDATASIZE PUSH1 0x0 DUP1 RETURNDATACOPY RETURNDATASIZE PUSH1 0x0 REVERT JUMPDEST POP PUSH1 0x40 MLOAD DUP2 DUP2 MSTORE CALLER SWAP1 PUSH32 0x7FCF532C15F0A6DB0BD6D0E038BEA71D30D808C7D98CB3BF7268A95BF5081B65 SWAP1 PUSH1 0x20 ADD PUSH2 0x91D JUMP JUMPDEST PUSH2 0x9E6 PUSH2 0x1085 JUMP JUMPDEST PUSH2 0x9F0 PUSH1 0x0 PUSH2 0x1194 JUMP JUMPDEST JUMP JUMPDEST PUSH2 0x9FA PUSH2 0x1085 JUMP JUMPDEST PUSH1 0x0 PUSH1 0xC SLOAD PUSH2 0x100 SWAP1 DIV PUSH1 0xFF AND PUSH1 0x3 DUP2 GT ISZERO PUSH2 0xA18 JUMPI PUSH2 0xA18 PUSH2 0x11E4 JUMP JUMPDEST EQ PUSH2 0xA65 JUMPI PUSH1 0x40 MLOAD PUSH3 0x461BCD PUSH1 0xE5 SHL DUP2 MSTORE PUSH1 0x20 PUSH1 0x4 DUP3 ADD MSTORE PUSH1 0x1B PUSH1 0x24 DUP3 ADD MSTORE PUSH32 0x4D61726B6574206E6F7420696E2074726164696E672070686173650000000000 PUSH1 0x44 DUP3 ADD MSTORE PUSH1 0x64 ADD PUSH2 0x5D9 JUMP JUMPDEST PUSH1 0xC DUP1 SLOAD PUSH2 0xFF00 NOT AND PUSH2 0x100 OR SWAP1 SSTORE TIMESTAMP PUSH1 0x14 SSTORE JUMP JUMPDEST PUSH2 0xA82 PUSH2 0x1085 JUMP JUMPDEST PUSH1 0x2 PUSH1 0xC SLOAD PUSH2 0x100 SWAP1 DIV PUSH1 0xFF AND PUSH1 0x3 DUP2 GT ISZERO PUSH2 0xAA0 JUMPI PUSH2 0xAA0 PUSH2 0x11E4 JUMP JUMPDEST EQ PUSH2 0xAED JUMPI PUSH1 0x40 MLOAD PUSH3 0x461BCD PUSH1 0xE5 SHL DUP2 MSTORE PUSH1 0x20 PUSH1 0x4 DUP3 ADD MSTORE PUSH1 0x1C PUSH1 0x24 DUP3 ADD MSTORE PUSH32 0x4D61726B6574206E6F7420696E206D6174757269747920706861736500000000 PUSH1 0x44 DUP3 ADD MSTORE PUSH1 0x64 ADD PUSH2 0x5D9 JUMP JUMPDEST PUSH1 0xC SLOAD PUSH1 0xFF AND ISZERO ISZERO PUSH1 0x1 EQ PUSH2 0xB44 JUMPI PUSH1 0x40 MLOAD PUSH3 0x461BCD PUSH1 0xE5 SHL DUP2 MSTORE PUSH1 0x20 PUSH1 0x4 DUP3 ADD MSTORE PUSH1 0x1A PUSH1 0x24 DUP3 ADD MSTORE PUSH32 0x4D61726B6574206973206E6F74207265736F6C76656420796574000000000000 PUSH1 0x44 DUP3 ADD MSTORE PUSH1 0x64 ADD PUSH2 0x5D9 JUMP JUMPDEST PUSH1 0xC DUP1 SLOAD PUSH2 0xFF00 NOT AND PUSH2 0x300 OR SWAP1 SSTORE JUMP JUMPDEST PUSH1 0x3 SLOAD PUSH1 0x4 DUP1 SLOAD PUSH1 0x40 MLOAD PUSH4 0x2CFF56FB PUSH1 0xE1 SHL DUP2 MSTORE PUSH1 0x0 SWAP4 DUP5 SWAP4 PUSH1 0x1 PUSH1 0x1 PUSH1 0xA0 SHL SUB SWAP1 SWAP2 AND SWAP3 PUSH4 0x59FEADF6 SWAP3 PUSH2 0xBA5 SWAP3 PUSH1 0x58 SWAP3 SWAP1 SWAP3 SHL SWAP2 ADD PUSH11 0xFFFFFFFFFFFFFFFFFFFFFF NOT SWAP2 SWAP1 SWAP2 AND DUP2 MSTORE PUSH1 0x20 ADD SWAP1 JUMP JUMPDEST PUSH1 0x40 DUP1 MLOAD DUP1 DUP4 SUB DUP2 PUSH1 0x0 DUP8 GAS CALL ISZERO DUP1 ISZERO PUSH2 0xBC3 JUMPI RETURNDATASIZE PUSH1 0x0 DUP1 RETURNDATACOPY RETURNDATASIZE PUSH1 0x0 REVERT JUMPDEST POP POP POP POP PUSH1 0x40 MLOAD RETURNDATASIZE PUSH1 0x1F NOT PUSH1 0x1F DUP3 ADD AND DUP3 ADD DUP1 PUSH1 0x40 MSTORE POP DUP2 ADD SWAP1 PUSH2 0xBE7 SWAP2 SWAP1 PUSH2 0x14B8 JUMP JUMPDEST SWAP2 POP SWAP2 POP SWAP1 SWAP2 JUMP JUMPDEST PUSH1 0x3 PUSH1 0xC SLOAD PUSH2 0x100 SWAP1 DIV PUSH1 0xFF AND PUSH1 0x3 DUP2 GT ISZERO PUSH2 0xC0D JUMPI PUSH2 0xC0D PUSH2 0x11E4 JUMP JUMPDEST EQ PUSH2 0xC5A JUMPI PUSH1 0x40 MLOAD PUSH3 0x461BCD PUSH1 0xE5 SHL DUP2 MSTORE PUSH1 0x20 PUSH1 0x4 DUP3 ADD MSTORE PUSH1 0x1A PUSH1 0x24 DUP3 ADD MSTORE PUSH32 0x4D61726B6574206E6F7420696E20657870697279207068617365000000000000 PUSH1 0x44 DUP3 ADD MSTORE PUSH1 0x64 ADD PUSH2 0x5D9 JUMP JUMPDEST PUSH1 0xC SLOAD PUSH1 0xFF AND PUSH2 0xCAC JUMPI PUSH1 0x40 MLOAD PUSH3 0x461BCD PUSH1 0xE5 SHL DUP2 MSTORE PUSH1 0x20 PUSH1 0x4 DUP3 ADD MSTORE PUSH1 0x1A PUSH1 0x24 DUP3 ADD MSTORE PUSH32 0x4D61726B6574206973206E6F74207265736F6C76656420796574000000000000 PUSH1 0x44 DUP3 ADD MSTORE PUSH1 0x64 ADD PUSH2 0x5D9 JUMP JUMPDEST CALLER PUSH1 0x0 SWAP1 DUP2 MSTORE PUSH1 0x10 PUSH1 0x20 MSTORE PUSH1 0x40 SWAP1 KECCAK256 SLOAD PUSH1 0xFF AND ISZERO PUSH2 0xD05 JUMPI PUSH1 0x40 MLOAD PUSH3 0x461BCD PUSH1 0xE5 SHL DUP2 MSTORE PUSH1 0x20 PUSH1 0x4 DUP3 ADD MSTORE PUSH1 0x16 PUSH1 0x24 DUP3 ADD MSTORE PUSH22 0x14995DD85C9908185B1C9958591E4818DB185A5B5959 PUSH1 0x52 SHL PUSH1 0x44 DUP3 ADD MSTORE PUSH1 0x64 ADD PUSH2 0x5D9 JUMP JUMPDEST PUSH1 0x2 SLOAD PUSH1 0x1 SLOAD PUSH1 0x0 SWAP1 DUP3 LT PUSH2 0xD1C JUMPI POP PUSH1 0x0 PUSH2 0xD20 JUMP JUMPDEST POP PUSH1 0x1 JUMPDEST PUSH1 0x0 DUP1 DUP1 DUP1 DUP5 PUSH1 0x1 DUP2 GT ISZERO PUSH2 0xD37 JUMPI PUSH2 0xD37 PUSH2 0x11E4 JUMP JUMPDEST SUB PUSH2 0xD63 JUMPI CALLER PUSH1 0x0 SWAP1 DUP2 MSTORE PUSH1 0xE PUSH1 0x20 MSTORE PUSH1 0x40 SWAP1 KECCAK256 SLOAD PUSH1 0x6 SLOAD SWAP1 SWAP4 POP SWAP2 POP DUP3 ISZERO PUSH2 0xD5E JUMPI POP PUSH1 0x1 JUMPDEST PUSH2 0xD85 JUMP JUMPDEST CALLER PUSH1 0x0 SWAP1 DUP2 MSTORE PUSH1 0xF PUSH1 0x20 MSTORE PUSH1 0x40 SWAP1 KECCAK256 SLOAD PUSH1 0x7 SLOAD SWAP1 SWAP4 POP SWAP2 POP DUP3 ISZERO PUSH2 0xD85 JUMPI POP PUSH1 0x1 JUMPDEST CALLER PUSH1 0x1 PUSH1 0x1 PUSH1 0xA0 SHL SUB AND PUSH32 0xCAF126C1B7DF3CC94D90D37F4A60F866C0C7C56F50D45E3136FC1DC71E210EBA DUP6 DUP4 PUSH1 0x40 MLOAD PUSH2 0xDC0 SWAP3 SWAP2 SWAP1 PUSH2 0x14E4 JUMP JUMPDEST PUSH1 0x40 MLOAD DUP1 SWAP2 SUB SWAP1 LOG2 PUSH1 0x0 DUP4 GT PUSH2 0xE18 JUMPI PUSH1 0x40 MLOAD PUSH3 0x461BCD PUSH1 0xE5 SHL DUP2 MSTORE PUSH1 0x20 PUSH1 0x4 DUP3 ADD MSTORE PUSH1 0x1B PUSH1 0x24 DUP3 ADD MSTORE PUSH32 0x4E6F206465706F73697473206F6E2077696E6E696E6720736964650000000000 PUSH1 0x44 DUP3 ADD MSTORE PUSH1 0x64 ADD PUSH2 0x5D9 JUMP JUMPDEST PUSH1 0x0 DUP3 PUSH1 0xB SLOAD DUP6 PUSH2 0xE29 SWAP2 SWAP1 PUSH2 0x143D JUMP JUMPDEST PUSH2 0xE33 SWAP2 SWAP1 PUSH2 0x1454 JUMP JUMPDEST SWAP1 POP PUSH1 0x0 PUSH1 0x64 PUSH1 0xD SLOAD DUP4 PUSH2 0xE47 SWAP2 SWAP1 PUSH2 0x143D JUMP JUMPDEST PUSH2 0xE51 SWAP2 SWAP1 PUSH2 0x1454 JUMP JUMPDEST SWAP1 POP PUSH1 0x0 PUSH2 0xE5F DUP3 DUP5 PUSH2 0x1501 JUMP JUMPDEST CALLER PUSH1 0x0 DUP2 DUP2 MSTORE PUSH1 0x10 PUSH1 0x20 MSTORE PUSH1 0x40 DUP1 DUP3 KECCAK256 DUP1 SLOAD PUSH1 0xFF NOT AND PUSH1 0x1 OR SWAP1 SSTORE MLOAD SWAP3 SWAP4 POP SWAP1 SWAP2 DUP4 ISZERO PUSH2 0x8FC MUL SWAP2 DUP5 SWAP2 SWAP1 DUP2 DUP2 DUP2 DUP6 DUP9 DUP9 CALL SWAP4 POP POP POP POP ISZERO DUP1 ISZERO PUSH2 0xEA7 JUMPI RETURNDATASIZE PUSH1 0x0 DUP1 RETURNDATACOPY RETURNDATASIZE PUSH1 0x0 REVERT JUMPDEST POP PUSH1 0x40 MLOAD DUP2 DUP2 MSTORE CALLER SWAP1 PUSH32 0x106F923F993C2149D49B4255FF723ACAFA1F2D94393F561D3EDA32AE348F7241 SWAP1 PUSH1 0x20 ADD PUSH1 0x40 MLOAD DUP1 SWAP2 SUB SWAP1 LOG2 POP POP POP POP POP POP POP POP JUMP JUMPDEST PUSH1 0x5 DUP1 SLOAD PUSH2 0xEF4 SWAP1 PUSH2 0x1514 JUMP JUMPDEST DUP1 PUSH1 0x1F ADD PUSH1 0x20 DUP1 SWAP2 DIV MUL PUSH1 0x20 ADD PUSH1 0x40 MLOAD SWAP1 DUP2 ADD PUSH1 0x40 MSTORE DUP1 SWAP3 SWAP2 SWAP1 DUP2 DUP2 MSTORE PUSH1 0x20 ADD DUP3 DUP1 SLOAD PUSH2 0xF20 SWAP1 PUSH2 0x1514 JUMP JUMPDEST DUP1 ISZERO PUSH2 0xF6D JUMPI DUP1 PUSH1 0x1F LT PUSH2 0xF42 JUMPI PUSH2 0x100 DUP1 DUP4 SLOAD DIV MUL DUP4 MSTORE SWAP2 PUSH1 0x20 ADD SWAP2 PUSH2 0xF6D JUMP JUMPDEST DUP3 ADD SWAP2 SWAP1 PUSH1 0x0 MSTORE PUSH1 0x20 PUSH1 0x0 KECCAK256 SWAP1 JUMPDEST DUP2 SLOAD DUP2 MSTORE SWAP1 PUSH1 0x1 ADD SWAP1 PUSH1 0x20 ADD DUP1 DUP4 GT PUSH2 0xF50 JUMPI DUP3 SWAP1 SUB PUSH1 0x1F AND DUP3 ADD SWAP2 JUMPDEST POP POP POP POP POP DUP2 JUMP JUMPDEST PUSH1 0x3 SLOAD PUSH1 0x4 DUP1 SLOAD PUSH1 0x40 MLOAD PUSH4 0x49F4FC03 PUSH1 0xE1 SHL DUP2 MSTORE PUSH1 0x58 SWAP2 SWAP1 SWAP2 SHL PUSH11 0xFFFFFFFFFFFFFFFFFFFFFF NOT AND SWAP2 DUP2 ADD SWAP2 SWAP1 SWAP2 MSTORE PUSH1 0x0 SWAP2 DUP3 SWAP2 DUP3 SWAP2 PUSH1 0x1 PUSH1 0x1 PUSH1 0xA0 SHL SUB AND SWAP1 PUSH4 0x93E9F806 SWAP1 PUSH1 0x24 ADD PUSH1 0x60 PUSH1 0x40 MLOAD DUP1 DUP4 SUB DUP2 PUSH1 0x0 DUP8 GAS CALL ISZERO DUP1 ISZERO PUSH2 0xFDD JUMPI RETURNDATASIZE PUSH1 0x0 DUP1 RETURNDATACOPY RETURNDATASIZE PUSH1 0x0 REVERT JUMPDEST POP POP POP POP PUSH1 0x40 MLOAD RETURNDATASIZE PUSH1 0x1F NOT PUSH1 0x1F DUP3 ADD AND DUP3 ADD DUP1 PUSH1 0x40 MSTORE POP DUP2 ADD SWAP1 PUSH2 0x1001 SWAP2 SWAP1 PUSH2 0x12D0 JUMP JUMPDEST SWAP3 POP SWAP3 POP SWAP3 POP SWAP1 SWAP2 SWAP3 JUMP JUMPDEST PUSH2 0x1014 PUSH2 0x1085 JUMP JUMPDEST PUSH1 0x1 PUSH1 0x1 PUSH1 0xA0 SHL SUB DUP2 AND PUSH2 0x1079 JUMPI PUSH1 0x40 MLOAD PUSH3 0x461BCD PUSH1 0xE5 SHL DUP2 MSTORE PUSH1 0x20 PUSH1 0x4 DUP3 ADD MSTORE PUSH1 0x26 PUSH1 0x24 DUP3 ADD MSTORE PUSH32 0x4F776E61626C653A206E6577206F776E657220697320746865207A65726F2061 PUSH1 0x44 DUP3 ADD MSTORE PUSH6 0x646472657373 PUSH1 0xD0 SHL PUSH1 0x64 DUP3 ADD MSTORE PUSH1 0x84 ADD PUSH2 0x5D9 JUMP JUMPDEST PUSH2 0x1082 DUP2 PUSH2 0x1194 JUMP JUMPDEST POP JUMP JUMPDEST PUSH1 0x0 SLOAD PUSH1 0x1 PUSH1 0x1 PUSH1 0xA0 SHL SUB AND CALLER EQ PUSH2 0x9F0 JUMPI PUSH1 0x40 MLOAD PUSH3 0x461BCD PUSH1 0xE5 SHL DUP2 MSTORE PUSH1 0x20 PUSH1 0x4 DUP3 ADD DUP2 SWAP1 MSTORE PUSH1 0x24 DUP3 ADD MSTORE PUSH32 0x4F776E61626C653A2063616C6C6572206973206E6F7420746865206F776E6572 PUSH1 0x44 DUP3 ADD MSTORE PUSH1 0x64 ADD PUSH2 0x5D9 JUMP JUMPDEST PUSH1 0xC DUP1 SLOAD PUSH2 0x201 PUSH2 0xFFFF NOT SWAP1 SWAP2 AND OR SWAP1 SSTORE PUSH1 0x2 DUP3 SWAP1 SSTORE TIMESTAMP PUSH1 0x13 SSTORE PUSH1 0x40 DUP1 MLOAD DUP4 DUP2 MSTORE PUSH1 0x20 DUP2 ADD DUP4 SWAP1 MSTORE PUSH32 0x6DFC24F0F2FB42E49FB4FA3FFA8ABB148CAB908A1FB8335B3F128A08B2594AF1 SWAP2 ADD PUSH1 0x40 MLOAD DUP1 SWAP2 SUB SWAP1 LOG1 PUSH1 0x1 SLOAD PUSH1 0x0 SWAP1 DUP4 LT PUSH2 0x1146 JUMPI POP PUSH1 0x0 PUSH2 0x114A JUMP JUMPDEST POP PUSH1 0x1 JUMPDEST PUSH1 0x0 PUSH1 0x1 PUSH1 0x1 PUSH1 0xA0 SHL SUB AND PUSH32 0xCAF126C1B7DF3CC94D90D37F4A60F866C0C7C56F50D45E3136FC1DC71E210EBA DUP3 PUSH1 0x1 PUSH1 0x40 MLOAD PUSH2 0x1187 SWAP3 SWAP2 SWAP1 PUSH2 0x14E4 JUMP JUMPDEST PUSH1 0x40 MLOAD DUP1 SWAP2 SUB SWAP1 LOG2 POP POP POP JUMP JUMPDEST PUSH1 0x0 DUP1 SLOAD PUSH1 0x1 PUSH1 0x1 PUSH1 0xA0 SHL SUB DUP4 DUP2 AND PUSH1 0x1 PUSH1 0x1 PUSH1 0xA0 SHL SUB NOT DUP4 AND DUP2 OR DUP5 SSTORE PUSH1 0x40 MLOAD SWAP2 SWAP1 SWAP3 AND SWAP3 DUP4 SWAP2 PUSH32 0x8BE0079C531659141344CD1FD0A4F28419497F9722A3DAAFE3B4186F6B6457E0 SWAP2 SWAP1 LOG3 POP POP JUMP JUMPDEST PUSH4 0x4E487B71 PUSH1 0xE0 SHL PUSH1 0x0 MSTORE PUSH1 0x21 PUSH1 0x4 MSTORE PUSH1 0x24 PUSH1 0x0 REVERT JUMPDEST PUSH1 0x20 DUP2 ADD PUSH1 0x4 DUP4 LT PUSH2 0x120E JUMPI PUSH2 0x120E PUSH2 0x11E4 JUMP JUMPDEST SWAP2 SWAP1 MSTORE SWAP1 JUMP JUMPDEST PUSH1 0x0 PUSH1 0x20 DUP3 DUP5 SUB SLT ISZERO PUSH2 0x1226 JUMPI PUSH1 0x0 DUP1 REVERT JUMPDEST DUP2 CALLDATALOAD PUSH1 0x1 PUSH1 0x1 PUSH1 0xA0 SHL SUB DUP2 AND DUP2 EQ PUSH2 0x123D JUMPI PUSH1 0x0 DUP1 REVERT JUMPDEST SWAP4 SWAP3 POP POP POP JUMP JUMPDEST PUSH1 0x0 PUSH1 0x20 DUP3 DUP5 SUB SLT ISZERO PUSH2 0x1256 JUMPI PUSH1 0x0 DUP1 REVERT JUMPDEST DUP2 CALLDATALOAD PUSH1 0x2 DUP2 LT PUSH2 0x123D JUMPI PUSH1 0x0 DUP1 REVERT JUMPDEST PUSH1 0x0 PUSH1 0x20 DUP1 DUP4 MSTORE DUP4 MLOAD DUP1 DUP3 DUP6 ADD MSTORE PUSH1 0x0 JUMPDEST DUP2 DUP2 LT ISZERO PUSH2 0x1292 JUMPI DUP6 DUP2 ADD DUP4 ADD MLOAD DUP6 DUP3 ADD PUSH1 0x40 ADD MSTORE DUP3 ADD PUSH2 0x1276 JUMP JUMPDEST POP PUSH1 0x0 PUSH1 0x40 DUP3 DUP7 ADD ADD MSTORE PUSH1 0x40 PUSH1 0x1F NOT PUSH1 0x1F DUP4 ADD AND DUP6 ADD ADD SWAP3 POP POP POP SWAP3 SWAP2 POP POP JUMP JUMPDEST DUP1 MLOAD PUSH8 0xFFFFFFFFFFFFFFFF DUP2 AND DUP2 EQ PUSH2 0x12CB JUMPI PUSH1 0x0 DUP1 REVERT JUMPDEST SWAP2 SWAP1 POP JUMP JUMPDEST PUSH1 0x0 DUP1 PUSH1 0x0 PUSH1 0x60 DUP5 DUP7 SUB SLT ISZERO PUSH2 0x12E5 JUMPI PUSH1 0x0 DUP1 REVERT JUMPDEST DUP4 MLOAD SWAP3 POP PUSH1 0x20 DUP5 ADD MLOAD DUP1 PUSH1 0x0 SIGNEXTEND DUP2 EQ PUSH2 0x12FD JUMPI PUSH1 0x0 DUP1 REVERT JUMPDEST SWAP2 POP PUSH2 0x130B PUSH1 0x40 DUP6 ADD PUSH2 0x12B3 JUMP JUMPDEST SWAP1 POP SWAP3 POP SWAP3 POP SWAP3 JUMP JUMPDEST PUSH4 0x4E487B71 PUSH1 0xE0 SHL PUSH1 0x0 MSTORE PUSH1 0x11 PUSH1 0x4 MSTORE PUSH1 0x24 PUSH1 0x0 REVERT JUMPDEST PUSH1 0x0 DUP2 DUP2 SIGNEXTEND PUSH1 0x80 DUP2 ADD PUSH2 0x133F JUMPI PUSH2 0x133F PUSH2 0x1314 JUMP JUMPDEST PUSH1 0x0 SUB SWAP3 SWAP2 POP POP JUMP JUMPDEST PUSH1 0x1 DUP2 DUP2 JUMPDEST DUP1 DUP6 GT ISZERO PUSH2 0x1383 JUMPI DUP2 PUSH1 0x0 NOT DIV DUP3 GT ISZERO PUSH2 0x1369 JUMPI PUSH2 0x1369 PUSH2 0x1314 JUMP JUMPDEST DUP1 DUP6 AND ISZERO PUSH2 0x1376 JUMPI SWAP2 DUP2 MUL SWAP2 JUMPDEST SWAP4 DUP5 SHR SWAP4 SWAP1 DUP1 MUL SWAP1 PUSH2 0x134D JUMP JUMPDEST POP SWAP3 POP SWAP3 SWAP1 POP JUMP JUMPDEST PUSH1 0x0 DUP3 PUSH2 0x139A JUMPI POP PUSH1 0x1 PUSH2 0x1428 JUMP JUMPDEST DUP2 PUSH2 0x13A7 JUMPI POP PUSH1 0x0 PUSH2 0x1428 JUMP JUMPDEST DUP2 PUSH1 0x1 DUP2 EQ PUSH2 0x13BD JUMPI PUSH1 0x2 DUP2 EQ PUSH2 0x13C7 JUMPI PUSH2 0x13E3 JUMP JUMPDEST PUSH1 0x1 SWAP2 POP POP PUSH2 0x1428 JUMP JUMPDEST PUSH1 0xFF DUP5 GT ISZERO PUSH2 0x13D8 JUMPI PUSH2 0x13D8 PUSH2 0x1314 JUMP JUMPDEST POP POP PUSH1 0x1 DUP3 SHL PUSH2 0x1428 JUMP JUMPDEST POP PUSH1 0x20 DUP4 LT PUSH2 0x133 DUP4 LT AND PUSH1 0x4E DUP5 LT PUSH1 0xB DUP5 LT AND OR ISZERO PUSH2 0x1406 JUMPI POP DUP2 DUP2 EXP PUSH2 0x1428 JUMP JUMPDEST PUSH2 0x1410 DUP4 DUP4 PUSH2 0x1348 JUMP JUMPDEST DUP1 PUSH1 0x0 NOT DIV DUP3 GT ISZERO PUSH2 0x1424 JUMPI PUSH2 0x1424 PUSH2 0x1314 JUMP JUMPDEST MUL SWAP1 POP JUMPDEST SWAP3 SWAP2 POP POP JUMP JUMPDEST PUSH1 0x0 PUSH2 0x123D PUSH1 0xFF DUP5 AND DUP4 PUSH2 0x138B JUMP JUMPDEST DUP1 DUP3 MUL DUP2 ISZERO DUP3 DUP3 DIV DUP5 EQ OR PUSH2 0x1428 JUMPI PUSH2 0x1428 PUSH2 0x1314 JUMP JUMPDEST PUSH1 0x0 DUP3 PUSH2 0x1471 JUMPI PUSH4 0x4E487B71 PUSH1 0xE0 SHL PUSH1 0x0 MSTORE PUSH1 0x12 PUSH1 0x4 MSTORE PUSH1 0x24 PUSH1 0x0 REVERT JUMPDEST POP DIV SWAP1 JUMP JUMPDEST DUP1 DUP3 ADD DUP1 DUP3 GT ISZERO PUSH2 0x1428 JUMPI PUSH2 0x1428 PUSH2 0x1314 JUMP JUMPDEST PUSH1 0x2 DUP2 LT PUSH2 0x1499 JUMPI PUSH2 0x1499 PUSH2 0x11E4 JUMP JUMPDEST SWAP1 MSTORE JUMP JUMPDEST PUSH1 0x40 DUP2 ADD PUSH2 0x14AB DUP3 DUP6 PUSH2 0x1489 JUMP JUMPDEST DUP3 PUSH1 0x20 DUP4 ADD MSTORE SWAP4 SWAP3 POP POP POP JUMP JUMPDEST PUSH1 0x0 DUP1 PUSH1 0x40 DUP4 DUP6 SUB SLT ISZERO PUSH2 0x14CB JUMPI PUSH1 0x0 DUP1 REVERT JUMPDEST DUP3 MLOAD SWAP2 POP PUSH2 0x14DB PUSH1 0x20 DUP5 ADD PUSH2 0x12B3 JUMP JUMPDEST SWAP1 POP SWAP3 POP SWAP3 SWAP1 POP JUMP JUMPDEST PUSH1 0x40 DUP2 ADD PUSH2 0x14F2 DUP3 DUP6 PUSH2 0x1489 JUMP JUMPDEST DUP3 ISZERO ISZERO PUSH1 0x20 DUP4 ADD MSTORE SWAP4 SWAP3 POP POP POP JUMP JUMPDEST DUP2 DUP2 SUB DUP2 DUP2 GT ISZERO PUSH2 0x1428 JUMPI PUSH2 0x1428 PUSH2 0x1314 JUMP JUMPDEST PUSH1 0x1 DUP2 DUP2 SHR SWAP1 DUP3 AND DUP1 PUSH2 0x1528 JUMPI PUSH1 0x7F DUP3 AND SWAP2 POP JUMPDEST PUSH1 0x20 DUP3 LT DUP2 SUB PUSH2 0x1548 JUMPI PUSH4 0x4E487B71 PUSH1 0xE0 SHL PUSH1 0x0 MSTORE PUSH1 0x22 PUSH1 0x4 MSTORE PUSH1 0x24 PUSH1 0x0 REVERT JUMPDEST POP SWAP2 SWAP1 POP JUMP INVALID LOG2 PUSH5 0x6970667358 0x22 SLT KECCAK256 LOG2 0xAA CODESIZE SWAP1 0xF8 0xA5 SWAP14 SWAP5 RETURNDATASIZE 0xDE 0x4A DUP13 RETURNDATASIZE 0xD5 JUMPDEST LOG0 PUSH1 0x9B KECCAK256 0x1E 0x2C 0xBC 0xD3 CALLVALUE PUSH25 0xF1534D624EE23E64736F6C63430008140033A2646970667358 0x22 SLT KECCAK256 JUMPDEST CHAINID DUP5 0xE6 PUSH3 0xBBD299 0xC PUSH18 0x57735AFB3C71D964ABAD40B32DC21F1422FA 0xCF 0xDE 0x49 0xA7 PUSH5 0x736F6C6343 STOP ADDMOD EQ STOP CALLER "},"methodIdentifiers":{"createMarket(string,bytes21,uint256,uint256,uint256,uint8)":"1bee8cb9","deployedMarkets(uint256)":"5b51eb88","getDeployedMarkets()":"1b0bbbd2","getDeployedMarketsCount()":"0967803a","owner()":"8da5cb5b"}}}}}