{"contracts/FlarePriceFeedHelper.sol":{"FlarePriceFeedHelper":{"abi":[{"inputs":[],"stateMutability":"nonpayable","type":"constructor"},{"inputs":[],"name":"ADA_USD_FEED_ID","outputs":[{"internalType":"bytes21","name":"","type":"bytes21"}],"stateMutability":"view","type":"function"},{"inputs":[],"name":"ALGO_USD_FEED_ID","outputs":[{"internalType":"bytes21","name":"","type":"bytes21"}],"stateMutability":"view","type":"function"},{"inputs":[],"name":"BCH_USD_FEED_ID","outputs":[{"internalType":"bytes21","name":"","type":"bytes21"}],"stateMutability":"view","type":"function"},{"inputs":[],"name":"BTC_USD_FEED_ID","outputs":[{"internalType":"bytes21","name":"","type":"bytes21"}],"stateMutability":"view","type":"function"},{"inputs":[],"name":"DOGE_USD_FEED_ID","outputs":[{"internalType":"bytes21","name":"","type":"bytes21"}],"stateMutability":"view","type":"function"},{"inputs":[],"name":"ETH_USD_FEED_ID","outputs":[{"internalType":"bytes21","name":"","type":"bytes21"}],"stateMutability":"view","type":"function"},{"inputs":[],"name":"FLR_USD_FEED_ID","outputs":[{"internalType":"bytes21","name":"","type":"bytes21"}],"stateMutability":"view","type":"function"},{"inputs":[],"name":"LTC_USD_FEED_ID","outputs":[{"internalType":"bytes21","name":"","type":"bytes21"}],"stateMutability":"view","type":"function"},{"inputs":[],"name":"MATIC_USD_FEED_ID","outputs":[{"internalType":"bytes21","name":"","type":"bytes21"}],"stateMutability":"view","type":"function"},{"inputs":[],"name":"XRP_USD_FEED_ID","outputs":[{"internalType":"bytes21","name":"","type":"bytes21"}],"stateMutability":"view","type":"function"},{"inputs":[{"internalType":"bytes21[]","name":"feedIds","type":"bytes21[]"}],"name":"getBatchPrices","outputs":[{"internalType":"uint256[]","name":"prices","type":"uint256[]"},{"internalType":"int8[]","name":"decimals","type":"int8[]"},{"internalType":"uint64","name":"timestamp","type":"uint64"}],"stateMutability":"nonpayable","type":"function"},{"inputs":[{"internalType":"string","name":"symbol","type":"string"}],"name":"getFeedIdForSymbol","outputs":[{"internalType":"bytes21","name":"","type":"bytes21"}],"stateMutability":"pure","type":"function"},{"inputs":[{"internalType":"bytes21","name":"feedId","type":"bytes21"}],"name":"getFeedName","outputs":[{"internalType":"string","name":"","type":"string"}],"stateMutability":"pure","type":"function"},{"inputs":[{"internalType":"bytes21","name":"feedId","type":"bytes21"}],"name":"getPriceForFeed","outputs":[{"internalType":"uint256","name":"price","type":"uint256"},{"internalType":"int8","name":"decimals","type":"int8"},{"internalType":"uint64","name":"timestamp","type":"uint64"}],"stateMutability":"nonpayable","type":"function"},{"inputs":[{"internalType":"bytes21","name":"feedId","type":"bytes21"}],"name":"getPriceInWeiForFeed","outputs":[{"internalType":"uint256","name":"price","type":"uint256"},{"internalType":"uint64","name":"timestamp","type":"uint64"}],"stateMutability":"nonpayable","type":"function"}],"evm":{"bytecode":{"linkReferences":{},"object":"608060405234801561001057600080fd5b5061001961003e565b600080546001600160a01b0319166001600160a01b0392909216919091179055610137565b600073ad67fe66660fb8dfe9d6b1b4240d8650e30f60196001600160a01b031663159354a260405160200161008d90602080825260069082015265233a39b7ab1960d11b604082015260600190565b604051602081830303815290604052805190602001206040518263ffffffff1660e01b81526004016100c191815260200190565b602060405180830381865afa1580156100de573d6000803e3d6000fd5b505050506040513d601f19601f820116820180604052508101906101029190610107565b905090565b60006020828403121561011957600080fd5b81516001600160a01b038116811461013057600080fd5b9392505050565b610cf6806101466000396000f3fe608060405234801561001057600080fd5b50600436106100f55760003560e01c806380c675cd11610097578063b55f780a11610066578063b55f780a146101e7578063c0ece9d3146101f9578063c240102d14610234578063fc5cb4731461025657600080fd5b806380c675cd146101a1578063830cf393146101b4578063966a6709146101c55780639f1d9c41146101d657600080fd5b806315335296116100d3578063153352961461014c5780635036d81b1461016c5780635e9122041461017f57806369f161c41461019057600080fd5b806301454d6c146100fa57806302a81708146101295780631042e77c1461013a575b600080fd5b61010b665614940bd554d160c21b81565b6040516001600160581b031990911681526020015b60405180910390f35b61010b66509510cbd554d160c21b81565b61010b675113d1d14bd554d160ba1b81565b61015f61015a3660046107af565b610287565b60405161012091906107d1565b61010b61017a366004610866565b61052a565b61010b665051104bd554d160c21b81565b61010b665193148bd554d160c21b81565b61010b685350551250cbd554d160b21b81565b61010b665090d20bd554d160c21b81565b61010b665155120bd554d160c21b81565b61010b66531510cbd554d160c21b81565b61010b67505311d3cbd554d160ba1b81565b61020c6102073660046107af565b610608565b6040805193845260009290920b602084015267ffffffffffffffff1690820152606001610120565b61024761024236600461091f565b610692565b604051610120939291906109bc565b6102696102643660046107af565b610711565b6040805192835267ffffffffffffffff909116602083015201610120565b6060673fae6ceb742aab2f60c21b6001600160581b03198316016102c85750506040805180820190915260078152661193148bd554d160ca1b602082015290565b673faf6aef342aab2f60c21b6001600160581b0319831601610307575050604080518082019091526007815266109510cbd554d160ca1b602082015290565b673faeaaedf42aab2f60c21b6001600160581b03198316016103465750506040805180820190915260078152661155120bd554d160ca1b602082015290565b673fa9eb6bf42aab2f60c21b6001600160581b03198316016103855750506040805180820190915260078152661614940bd554d160ca1b602082015290565b683faeec2e2eb42aab2f60ba1b6001600160581b03198316016103c65750506040805180820190915260088152671113d1d14bd554d160c21b602082015290565b673fafaeefb42aab2f60c21b6001600160581b03198316016104055750506040805180820190915260078152661051104bd554d160ca1b602082015290565b683fafacee2c342aab2f60ba1b6001600160581b0319831601610446575050604080518082019091526008815267105311d3cbd554d160c21b602082015290565b673faf6f2df42aab2f60c21b6001600160581b03198316016104855750506040805180820190915260078152661090d20bd554d160ca1b602082015290565b673faceaef342aab2f60c21b6001600160581b03198316016104c4575050604080518082019091526007815266131510cbd554d160ca1b602082015290565b693facafaaedaf342aab2f60b21b6001600160581b03198316016105075750506040805180820190915260098152681350551250cbd554d160ba1b602082015290565b50506040805180820190915260078152662ab735b737bbb760c91b602082015290565b60408051601580825281830190925260009183918391602082018180368337019050509050600160f81b8160008151811061056757610567610a52565b60200101906001600160f81b031916908160001a90535060005b8251811080156105915750601381105b156105fc578281815181106105a8576105a8610a52565b01602001516001600160f81b031916826105c3836001610a7e565b815181106105d3576105d3610a52565b60200101906001600160f81b031916908160001a905350806105f481610a97565b915050610581565b50602001519392505050565b600080546040516349f4fc0360e11b81526001600160581b031984166004820152829182916001600160a01b03909116906393e9f806906024016060604051808303816000875af1158015610661573d6000803e3d6000fd5b505050506040513d601f19601f820116820180604052508101906106859190610ada565b9250925092509193909250565b60008054604051634c37574560e01b8152606092839290916001600160a01b0390911690634c375745906106ca908790600401610b16565b6000604051808303816000875af11580156106e9573d6000803e3d6000fd5b505050506040513d6000823e601f3d908101601f191682016040526106859190810190610bd1565b60008054604051632cff56fb60e11b81526001600160581b03198416600482015282916001600160a01b0316906359feadf69060240160408051808303816000875af1158015610765573d6000803e3d6000fd5b505050506040513d601f19601f820116820180604052508101906107899190610c94565b91509150915091565b80356001600160581b0319811681146107aa57600080fd5b919050565b6000602082840312156107c157600080fd5b6107ca82610792565b9392505050565b600060208083528351808285015260005b818110156107fe578581018301518582016040015282016107e2565b506000604082860101526040601f19601f8301168501019250505092915050565b634e487b7160e01b600052604160045260246000fd5b604051601f8201601f1916810167ffffffffffffffff8111828210171561085e5761085e61081f565b604052919050565b6000602080838503121561087957600080fd5b823567ffffffffffffffff8082111561089157600080fd5b818501915085601f8301126108a557600080fd5b8135818111156108b7576108b761081f565b6108c9601f8201601f19168501610835565b915080825286848285010111156108df57600080fd5b8084840185840137600090820190930192909252509392505050565b600067ffffffffffffffff8211156109155761091561081f565b5060051b60200190565b6000602080838503121561093257600080fd5b823567ffffffffffffffff81111561094957600080fd5b8301601f8101851361095a57600080fd5b803561096d610968826108fb565b610835565b81815260059190911b8201830190838101908783111561098c57600080fd5b928401925b828410156109b1576109a284610792565b82529284019290840190610991565b979650505050505050565b60608082528451908201819052600090602090608084019082880184805b838110156109f6578251855293850193918501916001016109da565b5086840385880152885180855289860194860193509150805b82811015610a2d578451820b84529385019392850192600101610a0f565b50505067ffffffffffffffff861660408601529250610a4a915050565b949350505050565b634e487b7160e01b600052603260045260246000fd5b634e487b7160e01b600052601160045260246000fd5b80820180821115610a9157610a91610a68565b92915050565b600060018201610aa957610aa9610a68565b5060010190565b8051600081900b81146107aa57600080fd5b805167ffffffffffffffff811681146107aa57600080fd5b600080600060608486031215610aef57600080fd5b83519250610aff60208501610ab0565b9150610b0d60408501610ac2565b90509250925092565b6020808252825182820181905260009190848201906040850190845b81811015610b585783516001600160581b03191683529284019291840191600101610b32565b50909695505050505050565b600082601f830112610b7557600080fd5b81516020610b85610968836108fb565b82815260059290921b84018101918181019086841115610ba457600080fd5b8286015b84811015610bc657610bb981610ab0565b8352918301918301610ba8565b509695505050505050565b600080600060608486031215610be657600080fd5b835167ffffffffffffffff80821115610bfe57600080fd5b818601915086601f830112610c1257600080fd5b81516020610c22610968836108fb565b82815260059290921b8401810191818101908a841115610c4157600080fd5b948201945b83861015610c5f57855182529482019490820190610c46565b91890151919750909350505080821115610c7857600080fd5b50610c8586828701610b64565b925050610b0d60408501610ac2565b60008060408385031215610ca757600080fd5b82519150610cb760208401610ac2565b9050925092905056fea2646970667358221220940d047bad9cf9f6cdb23b8a1da05d8258613fe856f1148fdd039d10f9979a1464736f6c63430008140033","opcodes":"PUSH1 0x80 PUSH1 0x40 MSTORE CALLVALUE DUP1 ISZERO PUSH2 0x10 JUMPI PUSH1 0x0 DUP1 REVERT JUMPDEST POP PUSH2 0x19 PUSH2 0x3E JUMP JUMPDEST PUSH1 0x0 DUP1 SLOAD PUSH1 0x1 PUSH1 0x1 PUSH1 0xA0 SHL SUB NOT AND PUSH1 0x1 PUSH1 0x1 PUSH1 0xA0 SHL SUB SWAP3 SWAP1 SWAP3 AND SWAP2 SWAP1 SWAP2 OR SWAP1 SSTORE PUSH2 0x137 JUMP JUMPDEST PUSH1 0x0 PUSH20 0xAD67FE66660FB8DFE9D6B1B4240D8650E30F6019 PUSH1 0x1 PUSH1 0x1 PUSH1 0xA0 SHL SUB AND PUSH4 0x159354A2 PUSH1 0x40 MLOAD PUSH1 0x20 ADD PUSH2 0x8D SWAP1 PUSH1 0x20 DUP1 DUP3 MSTORE PUSH1 0x6 SWAP1 DUP3 ADD MSTORE PUSH6 0x233A39B7AB19 PUSH1 0xD1 SHL PUSH1 0x40 DUP3 ADD MSTORE PUSH1 0x60 ADD SWAP1 JUMP JUMPDEST PUSH1 0x40 MLOAD PUSH1 0x20 DUP2 DUP4 SUB SUB DUP2 MSTORE SWAP1 PUSH1 0x40 MSTORE DUP1 MLOAD SWAP1 PUSH1 0x20 ADD KECCAK256 PUSH1 0x40 MLOAD DUP3 PUSH4 0xFFFFFFFF AND PUSH1 0xE0 SHL DUP2 MSTORE PUSH1 0x4 ADD PUSH2 0xC1 SWAP2 DUP2 MSTORE PUSH1 0x20 ADD SWAP1 JUMP JUMPDEST PUSH1 0x20 PUSH1 0x40 MLOAD DUP1 DUP4 SUB DUP2 DUP7 GAS STATICCALL ISZERO DUP1 ISZERO PUSH2 0xDE JUMPI RETURNDATASIZE PUSH1 0x0 DUP1 RETURNDATACOPY RETURNDATASIZE PUSH1 0x0 REVERT JUMPDEST POP POP POP POP PUSH1 0x40 MLOAD RETURNDATASIZE PUSH1 0x1F NOT PUSH1 0x1F DUP3 ADD AND DUP3 ADD DUP1 PUSH1 0x40 MSTORE POP DUP2 ADD SWAP1 PUSH2 0x102 SWAP2 SWAP1 PUSH2 0x107 JUMP JUMPDEST SWAP1 POP SWAP1 JUMP JUMPDEST PUSH1 0x0 PUSH1 0x20 DUP3 DUP5 SUB SLT ISZERO PUSH2 0x119 JUMPI PUSH1 0x0 DUP1 REVERT JUMPDEST DUP2 MLOAD PUSH1 0x1 PUSH1 0x1 PUSH1 0xA0 SHL SUB DUP2 AND DUP2 EQ PUSH2 0x130 JUMPI PUSH1 0x0 DUP1 REVERT JUMPDEST SWAP4 SWAP3 POP POP POP JUMP JUMPDEST PUSH2 0xCF6 DUP1 PUSH2 0x146 PUSH1 0x0 CODECOPY PUSH1 0x0 RETURN INVALID PUSH1 0x80 PUSH1 0x40 MSTORE CALLVALUE DUP1 ISZERO PUSH2 0x10 JUMPI PUSH1 0x0 DUP1 REVERT JUMPDEST POP PUSH1 0x4 CALLDATASIZE LT PUSH2 0xF5 JUMPI PUSH1 0x0 CALLDATALOAD PUSH1 0xE0 SHR DUP1 PUSH4 0x80C675CD GT PUSH2 0x97 JUMPI DUP1 PUSH4 0xB55F780A GT PUSH2 0x66 JUMPI DUP1 PUSH4 0xB55F780A EQ PUSH2 0x1E7 JUMPI DUP1 PUSH4 0xC0ECE9D3 EQ PUSH2 0x1F9 JUMPI DUP1 PUSH4 0xC240102D EQ PUSH2 0x234 JUMPI DUP1 PUSH4 0xFC5CB473 EQ PUSH2 0x256 JUMPI PUSH1 0x0 DUP1 REVERT JUMPDEST DUP1 PUSH4 0x80C675CD EQ PUSH2 0x1A1 JUMPI DUP1 PUSH4 0x830CF393 EQ PUSH2 0x1B4 JUMPI DUP1 PUSH4 0x966A6709 EQ PUSH2 0x1C5 JUMPI DUP1 PUSH4 0x9F1D9C41 EQ PUSH2 0x1D6 JUMPI PUSH1 0x0 DUP1 REVERT JUMPDEST DUP1 PUSH4 0x15335296 GT PUSH2 0xD3 JUMPI DUP1 PUSH4 0x15335296 EQ PUSH2 0x14C JUMPI DUP1 PUSH4 0x5036D81B EQ PUSH2 0x16C JUMPI DUP1 PUSH4 0x5E912204 EQ PUSH2 0x17F JUMPI DUP1 PUSH4 0x69F161C4 EQ PUSH2 0x190 JUMPI PUSH1 0x0 DUP1 REVERT JUMPDEST DUP1 PUSH4 0x1454D6C EQ PUSH2 0xFA JUMPI DUP1 PUSH4 0x2A81708 EQ PUSH2 0x129 JUMPI DUP1 PUSH4 0x1042E77C EQ PUSH2 0x13A JUMPI JUMPDEST PUSH1 0x0 DUP1 REVERT JUMPDEST PUSH2 0x10B PUSH7 0x5614940BD554D1 PUSH1 0xC2 SHL DUP2 JUMP JUMPDEST PUSH1 0x40 MLOAD PUSH1 0x1 PUSH1 0x1 PUSH1 0x58 SHL SUB NOT SWAP1 SWAP2 AND DUP2 MSTORE PUSH1 0x20 ADD JUMPDEST PUSH1 0x40 MLOAD DUP1 SWAP2 SUB SWAP1 RETURN JUMPDEST PUSH2 0x10B PUSH7 0x509510CBD554D1 PUSH1 0xC2 SHL DUP2 JUMP JUMPDEST PUSH2 0x10B PUSH8 0x5113D1D14BD554D1 PUSH1 0xBA SHL DUP2 JUMP JUMPDEST PUSH2 0x15F PUSH2 0x15A CALLDATASIZE PUSH1 0x4 PUSH2 0x7AF JUMP JUMPDEST PUSH2 0x287 JUMP JUMPDEST PUSH1 0x40 MLOAD PUSH2 0x120 SWAP2 SWAP1 PUSH2 0x7D1 JUMP JUMPDEST PUSH2 0x10B PUSH2 0x17A CALLDATASIZE PUSH1 0x4 PUSH2 0x866 JUMP JUMPDEST PUSH2 0x52A JUMP JUMPDEST PUSH2 0x10B PUSH7 0x5051104BD554D1 PUSH1 0xC2 SHL DUP2 JUMP JUMPDEST PUSH2 0x10B PUSH7 0x5193148BD554D1 PUSH1 0xC2 SHL DUP2 JUMP JUMPDEST PUSH2 0x10B PUSH9 0x5350551250CBD554D1 PUSH1 0xB2 SHL DUP2 JUMP JUMPDEST PUSH2 0x10B PUSH7 0x5090D20BD554D1 PUSH1 0xC2 SHL DUP2 JUMP JUMPDEST PUSH2 0x10B PUSH7 0x5155120BD554D1 PUSH1 0xC2 SHL DUP2 JUMP JUMPDEST PUSH2 0x10B PUSH7 0x531510CBD554D1 PUSH1 0xC2 SHL DUP2 JUMP JUMPDEST PUSH2 0x10B PUSH8 0x505311D3CBD554D1 PUSH1 0xBA SHL DUP2 JUMP JUMPDEST PUSH2 0x20C PUSH2 0x207 CALLDATASIZE PUSH1 0x4 PUSH2 0x7AF JUMP JUMPDEST PUSH2 0x608 JUMP JUMPDEST PUSH1 0x40 DUP1 MLOAD SWAP4 DUP5 MSTORE PUSH1 0x0 SWAP3 SWAP1 SWAP3 SIGNEXTEND PUSH1 0x20 DUP5 ADD MSTORE PUSH8 0xFFFFFFFFFFFFFFFF AND SWAP1 DUP3 ADD MSTORE PUSH1 0x60 ADD PUSH2 0x120 JUMP JUMPDEST PUSH2 0x247 PUSH2 0x242 CALLDATASIZE PUSH1 0x4 PUSH2 0x91F JUMP JUMPDEST PUSH2 0x692 JUMP JUMPDEST PUSH1 0x40 MLOAD PUSH2 0x120 SWAP4 SWAP3 SWAP2 SWAP1 PUSH2 0x9BC JUMP JUMPDEST PUSH2 0x269 PUSH2 0x264 CALLDATASIZE PUSH1 0x4 PUSH2 0x7AF JUMP JUMPDEST PUSH2 0x711 JUMP JUMPDEST PUSH1 0x40 DUP1 MLOAD SWAP3 DUP4 MSTORE PUSH8 0xFFFFFFFFFFFFFFFF SWAP1 SWAP2 AND PUSH1 0x20 DUP4 ADD MSTORE ADD PUSH2 0x120 JUMP JUMPDEST PUSH1 0x60 PUSH8 0x3FAE6CEB742AAB2F PUSH1 0xC2 SHL PUSH1 0x1 PUSH1 0x1 PUSH1 0x58 SHL SUB NOT DUP4 AND ADD PUSH2 0x2C8 JUMPI POP POP PUSH1 0x40 DUP1 MLOAD DUP1 DUP3 ADD SWAP1 SWAP2 MSTORE PUSH1 0x7 DUP2 MSTORE PUSH7 0x1193148BD554D1 PUSH1 0xCA SHL PUSH1 0x20 DUP3 ADD MSTORE SWAP1 JUMP JUMPDEST PUSH8 0x3FAF6AEF342AAB2F PUSH1 0xC2 SHL PUSH1 0x1 PUSH1 0x1 PUSH1 0x58 SHL SUB NOT DUP4 AND ADD PUSH2 0x307 JUMPI POP POP PUSH1 0x40 DUP1 MLOAD DUP1 DUP3 ADD SWAP1 SWAP2 MSTORE PUSH1 0x7 DUP2 MSTORE PUSH7 0x109510CBD554D1 PUSH1 0xCA SHL PUSH1 0x20 DUP3 ADD MSTORE SWAP1 JUMP JUMPDEST PUSH8 0x3FAEAAEDF42AAB2F PUSH1 0xC2 SHL PUSH1 0x1 PUSH1 0x1 PUSH1 0x58 SHL SUB NOT DUP4 AND ADD PUSH2 0x346 JUMPI POP POP PUSH1 0x40 DUP1 MLOAD DUP1 DUP3 ADD SWAP1 SWAP2 MSTORE PUSH1 0x7 DUP2 MSTORE PUSH7 0x1155120BD554D1 PUSH1 0xCA SHL PUSH1 0x20 DUP3 ADD MSTORE SWAP1 JUMP JUMPDEST PUSH8 0x3FA9EB6BF42AAB2F PUSH1 0xC2 SHL PUSH1 0x1 PUSH1 0x1 PUSH1 0x58 SHL SUB NOT DUP4 AND ADD PUSH2 0x385 JUMPI POP POP PUSH1 0x40 DUP1 MLOAD DUP1 DUP3 ADD SWAP1 SWAP2 MSTORE PUSH1 0x7 DUP2 MSTORE PUSH7 0x1614940BD554D1 PUSH1 0xCA SHL PUSH1 0x20 DUP3 ADD MSTORE SWAP1 JUMP JUMPDEST PUSH9 0x3FAEEC2E2EB42AAB2F PUSH1 0xBA SHL PUSH1 0x1 PUSH1 0x1 PUSH1 0x58 SHL SUB NOT DUP4 AND ADD PUSH2 0x3C6 JUMPI POP POP PUSH1 0x40 DUP1 MLOAD DUP1 DUP3 ADD SWAP1 SWAP2 MSTORE PUSH1 0x8 DUP2 MSTORE PUSH8 0x1113D1D14BD554D1 PUSH1 0xC2 SHL PUSH1 0x20 DUP3 ADD MSTORE SWAP1 JUMP JUMPDEST PUSH8 0x3FAFAEEFB42AAB2F PUSH1 0xC2 SHL PUSH1 0x1 PUSH1 0x1 PUSH1 0x58 SHL SUB NOT DUP4 AND ADD PUSH2 0x405 JUMPI POP POP PUSH1 0x40 DUP1 MLOAD DUP1 DUP3 ADD SWAP1 SWAP2 MSTORE PUSH1 0x7 DUP2 MSTORE PUSH7 0x1051104BD554D1 PUSH1 0xCA SHL PUSH1 0x20 DUP3 ADD MSTORE SWAP1 JUMP JUMPDEST PUSH9 0x3FAFACEE2C342AAB2F PUSH1 0xBA SHL PUSH1 0x1 PUSH1 0x1 PUSH1 0x58 SHL SUB NOT DUP4 AND ADD PUSH2 0x446 JUMPI POP POP PUSH1 0x40 DUP1 MLOAD DUP1 DUP3 ADD SWAP1 SWAP2 MSTORE PUSH1 0x8 DUP2 MSTORE PUSH8 0x105311D3CBD554D1 PUSH1 0xC2 SHL PUSH1 0x20 DUP3 ADD MSTORE SWAP1 JUMP JUMPDEST PUSH8 0x3FAF6F2DF42AAB2F PUSH1 0xC2 SHL PUSH1 0x1 PUSH1 0x1 PUSH1 0x58 SHL SUB NOT DUP4 AND ADD PUSH2 0x485 JUMPI POP POP PUSH1 0x40 DUP1 MLOAD DUP1 DUP3 ADD SWAP1 SWAP2 MSTORE PUSH1 0x7 DUP2 MSTORE PUSH7 0x1090D20BD554D1 PUSH1 0xCA SHL PUSH1 0x20 DUP3 ADD MSTORE SWAP1 JUMP JUMPDEST PUSH8 0x3FACEAEF342AAB2F PUSH1 0xC2 SHL PUSH1 0x1 PUSH1 0x1 PUSH1 0x58 SHL SUB NOT DUP4 AND ADD PUSH2 0x4C4 JUMPI POP POP PUSH1 0x40 DUP1 MLOAD DUP1 DUP3 ADD SWAP1 SWAP2 MSTORE PUSH1 0x7 DUP2 MSTORE PUSH7 0x131510CBD554D1 PUSH1 0xCA SHL PUSH1 0x20 DUP3 ADD MSTORE SWAP1 JUMP JUMPDEST PUSH10 0x3FACAFAAEDAF342AAB2F PUSH1 0xB2 SHL PUSH1 0x1 PUSH1 0x1 PUSH1 0x58 SHL SUB NOT DUP4 AND ADD PUSH2 0x507 JUMPI POP POP PUSH1 0x40 DUP1 MLOAD DUP1 DUP3 ADD SWAP1 SWAP2 MSTORE PUSH1 0x9 DUP2 MSTORE PUSH9 0x1350551250CBD554D1 PUSH1 0xBA SHL PUSH1 0x20 DUP3 ADD MSTORE SWAP1 JUMP JUMPDEST POP POP PUSH1 0x40 DUP1 MLOAD DUP1 DUP3 ADD SWAP1 SWAP2 MSTORE PUSH1 0x7 DUP2 MSTORE PUSH7 0x2AB735B737BBB7 PUSH1 0xC9 SHL PUSH1 0x20 DUP3 ADD MSTORE SWAP1 JUMP JUMPDEST PUSH1 0x40 DUP1 MLOAD PUSH1 0x15 DUP1 DUP3 MSTORE DUP2 DUP4 ADD SWAP1 SWAP3 MSTORE PUSH1 0x0 SWAP2 DUP4 SWAP2 DUP4 SWAP2 PUSH1 0x20 DUP3 ADD DUP2 DUP1 CALLDATASIZE DUP4 CALLDATACOPY ADD SWAP1 POP POP SWAP1 POP PUSH1 0x1 PUSH1 0xF8 SHL DUP2 PUSH1 0x0 DUP2 MLOAD DUP2 LT PUSH2 0x567 JUMPI PUSH2 0x567 PUSH2 0xA52 JUMP JUMPDEST PUSH1 0x20 ADD ADD SWAP1 PUSH1 0x1 PUSH1 0x1 PUSH1 0xF8 SHL SUB NOT AND SWAP1 DUP2 PUSH1 0x0 BYTE SWAP1 MSTORE8 POP PUSH1 0x0 JUMPDEST DUP3 MLOAD DUP2 LT DUP1 ISZERO PUSH2 0x591 JUMPI POP PUSH1 0x13 DUP2 LT JUMPDEST ISZERO PUSH2 0x5FC JUMPI DUP3 DUP2 DUP2 MLOAD DUP2 LT PUSH2 0x5A8 JUMPI PUSH2 0x5A8 PUSH2 0xA52 JUMP JUMPDEST ADD PUSH1 0x20 ADD MLOAD PUSH1 0x1 PUSH1 0x1 PUSH1 0xF8 SHL SUB NOT AND DUP3 PUSH2 0x5C3 DUP4 PUSH1 0x1 PUSH2 0xA7E JUMP JUMPDEST DUP2 MLOAD DUP2 LT PUSH2 0x5D3 JUMPI PUSH2 0x5D3 PUSH2 0xA52 JUMP JUMPDEST PUSH1 0x20 ADD ADD SWAP1 PUSH1 0x1 PUSH1 0x1 PUSH1 0xF8 SHL SUB NOT AND SWAP1 DUP2 PUSH1 0x0 BYTE SWAP1 MSTORE8 POP DUP1 PUSH2 0x5F4 DUP2 PUSH2 0xA97 JUMP JUMPDEST SWAP2 POP POP PUSH2 0x581 JUMP JUMPDEST POP PUSH1 0x20 ADD MLOAD SWAP4 SWAP3 POP POP POP JUMP JUMPDEST PUSH1 0x0 DUP1 SLOAD PUSH1 0x40 MLOAD PUSH4 0x49F4FC03 PUSH1 0xE1 SHL DUP2 MSTORE PUSH1 0x1 PUSH1 0x1 PUSH1 0x58 SHL SUB NOT DUP5 AND PUSH1 0x4 DUP3 ADD MSTORE DUP3 SWAP2 DUP3 SWAP2 PUSH1 0x1 PUSH1 0x1 PUSH1 0xA0 SHL SUB SWAP1 SWAP2 AND SWAP1 PUSH4 0x93E9F806 SWAP1 PUSH1 0x24 ADD PUSH1 0x60 PUSH1 0x40 MLOAD DUP1 DUP4 SUB DUP2 PUSH1 0x0 DUP8 GAS CALL ISZERO DUP1 ISZERO PUSH2 0x661 JUMPI RETURNDATASIZE PUSH1 0x0 DUP1 RETURNDATACOPY RETURNDATASIZE PUSH1 0x0 REVERT JUMPDEST POP POP POP POP PUSH1 0x40 MLOAD RETURNDATASIZE PUSH1 0x1F NOT PUSH1 0x1F DUP3 ADD AND DUP3 ADD DUP1 PUSH1 0x40 MSTORE POP DUP2 ADD SWAP1 PUSH2 0x685 SWAP2 SWAP1 PUSH2 0xADA JUMP JUMPDEST SWAP3 POP SWAP3 POP SWAP3 POP SWAP2 SWAP4 SWAP1 SWAP3 POP JUMP JUMPDEST PUSH1 0x0 DUP1 SLOAD PUSH1 0x40 MLOAD PUSH4 0x4C375745 PUSH1 0xE0 SHL DUP2 MSTORE PUSH1 0x60 SWAP3 DUP4 SWAP3 SWAP1 SWAP2 PUSH1 0x1 PUSH1 0x1 PUSH1 0xA0 SHL SUB SWAP1 SWAP2 AND SWAP1 PUSH4 0x4C375745 SWAP1 PUSH2 0x6CA SWAP1 DUP8 SWAP1 PUSH1 0x4 ADD PUSH2 0xB16 JUMP JUMPDEST PUSH1 0x0 PUSH1 0x40 MLOAD DUP1 DUP4 SUB DUP2 PUSH1 0x0 DUP8 GAS CALL ISZERO DUP1 ISZERO PUSH2 0x6E9 JUMPI RETURNDATASIZE PUSH1 0x0 DUP1 RETURNDATACOPY RETURNDATASIZE PUSH1 0x0 REVERT JUMPDEST POP POP POP POP PUSH1 0x40 MLOAD RETURNDATASIZE PUSH1 0x0 DUP3 RETURNDATACOPY PUSH1 0x1F RETURNDATASIZE SWAP1 DUP2 ADD PUSH1 0x1F NOT AND DUP3 ADD PUSH1 0x40 MSTORE PUSH2 0x685 SWAP2 SWAP1 DUP2 ADD SWAP1 PUSH2 0xBD1 JUMP JUMPDEST PUSH1 0x0 DUP1 SLOAD PUSH1 0x40 MLOAD PUSH4 0x2CFF56FB PUSH1 0xE1 SHL DUP2 MSTORE PUSH1 0x1 PUSH1 0x1 PUSH1 0x58 SHL SUB NOT DUP5 AND PUSH1 0x4 DUP3 ADD MSTORE DUP3 SWAP2 PUSH1 0x1 PUSH1 0x1 PUSH1 0xA0 SHL SUB AND SWAP1 PUSH4 0x59FEADF6 SWAP1 PUSH1 0x24 ADD PUSH1 0x40 DUP1 MLOAD DUP1 DUP4 SUB DUP2 PUSH1 0x0 DUP8 GAS CALL ISZERO DUP1 ISZERO PUSH2 0x765 JUMPI RETURNDATASIZE PUSH1 0x0 DUP1 RETURNDATACOPY RETURNDATASIZE PUSH1 0x0 REVERT JUMPDEST POP POP POP POP PUSH1 0x40 MLOAD RETURNDATASIZE PUSH1 0x1F NOT PUSH1 0x1F DUP3 ADD AND DUP3 ADD DUP1 PUSH1 0x40 MSTORE POP DUP2 ADD SWAP1 PUSH2 0x789 SWAP2 SWAP1 PUSH2 0xC94 JUMP JUMPDEST SWAP2 POP SWAP2 POP SWAP2 POP SWAP2 JUMP JUMPDEST DUP1 CALLDATALOAD PUSH1 0x1 PUSH1 0x1 PUSH1 0x58 SHL SUB NOT DUP2 AND DUP2 EQ PUSH2 0x7AA JUMPI PUSH1 0x0 DUP1 REVERT JUMPDEST SWAP2 SWAP1 POP JUMP JUMPDEST PUSH1 0x0 PUSH1 0x20 DUP3 DUP5 SUB SLT ISZERO PUSH2 0x7C1 JUMPI PUSH1 0x0 DUP1 REVERT JUMPDEST PUSH2 0x7CA DUP3 PUSH2 0x792 JUMP JUMPDEST SWAP4 SWAP3 POP POP POP JUMP JUMPDEST PUSH1 0x0 PUSH1 0x20 DUP1 DUP4 MSTORE DUP4 MLOAD DUP1 DUP3 DUP6 ADD MSTORE PUSH1 0x0 JUMPDEST DUP2 DUP2 LT ISZERO PUSH2 0x7FE JUMPI DUP6 DUP2 ADD DUP4 ADD MLOAD DUP6 DUP3 ADD PUSH1 0x40 ADD MSTORE DUP3 ADD PUSH2 0x7E2 JUMP JUMPDEST POP PUSH1 0x0 PUSH1 0x40 DUP3 DUP7 ADD ADD MSTORE PUSH1 0x40 PUSH1 0x1F NOT PUSH1 0x1F DUP4 ADD AND DUP6 ADD ADD SWAP3 POP POP POP SWAP3 SWAP2 POP POP JUMP JUMPDEST PUSH4 0x4E487B71 PUSH1 0xE0 SHL PUSH1 0x0 MSTORE PUSH1 0x41 PUSH1 0x4 MSTORE PUSH1 0x24 PUSH1 0x0 REVERT JUMPDEST PUSH1 0x40 MLOAD PUSH1 0x1F DUP3 ADD PUSH1 0x1F NOT AND DUP2 ADD PUSH8 0xFFFFFFFFFFFFFFFF DUP2 GT DUP3 DUP3 LT OR ISZERO PUSH2 0x85E JUMPI PUSH2 0x85E PUSH2 0x81F JUMP JUMPDEST PUSH1 0x40 MSTORE SWAP2 SWAP1 POP JUMP JUMPDEST PUSH1 0x0 PUSH1 0x20 DUP1 DUP4 DUP6 SUB SLT ISZERO PUSH2 0x879 JUMPI PUSH1 0x0 DUP1 REVERT JUMPDEST DUP3 CALLDATALOAD PUSH8 0xFFFFFFFFFFFFFFFF DUP1 DUP3 GT ISZERO PUSH2 0x891 JUMPI PUSH1 0x0 DUP1 REVERT JUMPDEST DUP2 DUP6 ADD SWAP2 POP DUP6 PUSH1 0x1F DUP4 ADD SLT PUSH2 0x8A5 JUMPI PUSH1 0x0 DUP1 REVERT JUMPDEST DUP2 CALLDATALOAD DUP2 DUP2 GT ISZERO PUSH2 0x8B7 JUMPI PUSH2 0x8B7 PUSH2 0x81F JUMP JUMPDEST PUSH2 0x8C9 PUSH1 0x1F DUP3 ADD PUSH1 0x1F NOT AND DUP6 ADD PUSH2 0x835 JUMP JUMPDEST SWAP2 POP DUP1 DUP3 MSTORE DUP7 DUP5 DUP3 DUP6 ADD ADD GT ISZERO PUSH2 0x8DF JUMPI PUSH1 0x0 DUP1 REVERT JUMPDEST DUP1 DUP5 DUP5 ADD DUP6 DUP5 ADD CALLDATACOPY PUSH1 0x0 SWAP1 DUP3 ADD SWAP1 SWAP4 ADD SWAP3 SWAP1 SWAP3 MSTORE POP SWAP4 SWAP3 POP POP POP JUMP JUMPDEST PUSH1 0x0 PUSH8 0xFFFFFFFFFFFFFFFF DUP3 GT ISZERO PUSH2 0x915 JUMPI PUSH2 0x915 PUSH2 0x81F JUMP JUMPDEST POP PUSH1 0x5 SHL PUSH1 0x20 ADD SWAP1 JUMP JUMPDEST PUSH1 0x0 PUSH1 0x20 DUP1 DUP4 DUP6 SUB SLT ISZERO PUSH2 0x932 JUMPI PUSH1 0x0 DUP1 REVERT JUMPDEST DUP3 CALLDATALOAD PUSH8 0xFFFFFFFFFFFFFFFF DUP2 GT ISZERO PUSH2 0x949 JUMPI PUSH1 0x0 DUP1 REVERT JUMPDEST DUP4 ADD PUSH1 0x1F DUP2 ADD DUP6 SGT PUSH2 0x95A JUMPI PUSH1 0x0 DUP1 REVERT JUMPDEST DUP1 CALLDATALOAD PUSH2 0x96D PUSH2 0x968 DUP3 PUSH2 0x8FB JUMP JUMPDEST PUSH2 0x835 JUMP JUMPDEST DUP2 DUP2 MSTORE PUSH1 0x5 SWAP2 SWAP1 SWAP2 SHL DUP3 ADD DUP4 ADD SWAP1 DUP4 DUP2 ADD SWAP1 DUP8 DUP4 GT ISZERO PUSH2 0x98C JUMPI PUSH1 0x0 DUP1 REVERT JUMPDEST SWAP3 DUP5 ADD SWAP3 JUMPDEST DUP3 DUP5 LT ISZERO PUSH2 0x9B1 JUMPI PUSH2 0x9A2 DUP5 PUSH2 0x792 JUMP JUMPDEST DUP3 MSTORE SWAP3 DUP5 ADD SWAP3 SWAP1 DUP5 ADD SWAP1 PUSH2 0x991 JUMP JUMPDEST SWAP8 SWAP7 POP POP POP POP POP POP POP JUMP JUMPDEST PUSH1 0x60 DUP1 DUP3 MSTORE DUP5 MLOAD SWAP1 DUP3 ADD DUP2 SWAP1 MSTORE PUSH1 0x0 SWAP1 PUSH1 0x20 SWAP1 PUSH1 0x80 DUP5 ADD SWAP1 DUP3 DUP9 ADD DUP5 DUP1 JUMPDEST DUP4 DUP2 LT ISZERO PUSH2 0x9F6 JUMPI DUP3 MLOAD DUP6 MSTORE SWAP4 DUP6 ADD SWAP4 SWAP2 DUP6 ADD SWAP2 PUSH1 0x1 ADD PUSH2 0x9DA JUMP JUMPDEST POP DUP7 DUP5 SUB DUP6 DUP9 ADD MSTORE DUP9 MLOAD DUP1 DUP6 MSTORE DUP10 DUP7 ADD SWAP5 DUP7 ADD SWAP4 POP SWAP2 POP DUP1 JUMPDEST DUP3 DUP2 LT ISZERO PUSH2 0xA2D JUMPI DUP5 MLOAD DUP3 SIGNEXTEND DUP5 MSTORE SWAP4 DUP6 ADD SWAP4 SWAP3 DUP6 ADD SWAP3 PUSH1 0x1 ADD PUSH2 0xA0F JUMP JUMPDEST POP POP POP PUSH8 0xFFFFFFFFFFFFFFFF DUP7 AND PUSH1 0x40 DUP7 ADD MSTORE SWAP3 POP PUSH2 0xA4A SWAP2 POP POP JUMP JUMPDEST SWAP5 SWAP4 POP POP POP POP JUMP JUMPDEST PUSH4 0x4E487B71 PUSH1 0xE0 SHL PUSH1 0x0 MSTORE PUSH1 0x32 PUSH1 0x4 MSTORE PUSH1 0x24 PUSH1 0x0 REVERT JUMPDEST PUSH4 0x4E487B71 PUSH1 0xE0 SHL PUSH1 0x0 MSTORE PUSH1 0x11 PUSH1 0x4 MSTORE PUSH1 0x24 PUSH1 0x0 REVERT JUMPDEST DUP1 DUP3 ADD DUP1 DUP3 GT ISZERO PUSH2 0xA91 JUMPI PUSH2 0xA91 PUSH2 0xA68 JUMP JUMPDEST SWAP3 SWAP2 POP POP JUMP JUMPDEST PUSH1 0x0 PUSH1 0x1 DUP3 ADD PUSH2 0xAA9 JUMPI PUSH2 0xAA9 PUSH2 0xA68 JUMP JUMPDEST POP PUSH1 0x1 ADD SWAP1 JUMP JUMPDEST DUP1 MLOAD PUSH1 0x0 DUP2 SWAP1 SIGNEXTEND DUP2 EQ PUSH2 0x7AA JUMPI PUSH1 0x0 DUP1 REVERT JUMPDEST DUP1 MLOAD PUSH8 0xFFFFFFFFFFFFFFFF DUP2 AND DUP2 EQ PUSH2 0x7AA JUMPI PUSH1 0x0 DUP1 REVERT JUMPDEST PUSH1 0x0 DUP1 PUSH1 0x0 PUSH1 0x60 DUP5 DUP7 SUB SLT ISZERO PUSH2 0xAEF JUMPI PUSH1 0x0 DUP1 REVERT JUMPDEST DUP4 MLOAD SWAP3 POP PUSH2 0xAFF PUSH1 0x20 DUP6 ADD PUSH2 0xAB0 JUMP JUMPDEST SWAP2 POP PUSH2 0xB0D PUSH1 0x40 DUP6 ADD PUSH2 0xAC2 JUMP JUMPDEST SWAP1 POP SWAP3 POP SWAP3 POP SWAP3 JUMP JUMPDEST PUSH1 0x20 DUP1 DUP3 MSTORE DUP3 MLOAD DUP3 DUP3 ADD DUP2 SWAP1 MSTORE PUSH1 0x0 SWAP2 SWAP1 DUP5 DUP3 ADD SWAP1 PUSH1 0x40 DUP6 ADD SWAP1 DUP5 JUMPDEST DUP2 DUP2 LT ISZERO PUSH2 0xB58 JUMPI DUP4 MLOAD PUSH1 0x1 PUSH1 0x1 PUSH1 0x58 SHL SUB NOT AND DUP4 MSTORE SWAP3 DUP5 ADD SWAP3 SWAP2 DUP5 ADD SWAP2 PUSH1 0x1 ADD PUSH2 0xB32 JUMP JUMPDEST POP SWAP1 SWAP7 SWAP6 POP POP POP POP POP POP JUMP JUMPDEST PUSH1 0x0 DUP3 PUSH1 0x1F DUP4 ADD SLT PUSH2 0xB75 JUMPI PUSH1 0x0 DUP1 REVERT JUMPDEST DUP2 MLOAD PUSH1 0x20 PUSH2 0xB85 PUSH2 0x968 DUP4 PUSH2 0x8FB JUMP JUMPDEST DUP3 DUP2 MSTORE PUSH1 0x5 SWAP3 SWAP1 SWAP3 SHL DUP5 ADD DUP2 ADD SWAP2 DUP2 DUP2 ADD SWAP1 DUP7 DUP5 GT ISZERO PUSH2 0xBA4 JUMPI PUSH1 0x0 DUP1 REVERT JUMPDEST DUP3 DUP7 ADD JUMPDEST DUP5 DUP2 LT ISZERO PUSH2 0xBC6 JUMPI PUSH2 0xBB9 DUP2 PUSH2 0xAB0 JUMP JUMPDEST DUP4 MSTORE SWAP2 DUP4 ADD SWAP2 DUP4 ADD PUSH2 0xBA8 JUMP JUMPDEST POP SWAP7 SWAP6 POP POP POP POP POP POP JUMP JUMPDEST PUSH1 0x0 DUP1 PUSH1 0x0 PUSH1 0x60 DUP5 DUP7 SUB SLT ISZERO PUSH2 0xBE6 JUMPI PUSH1 0x0 DUP1 REVERT JUMPDEST DUP4 MLOAD PUSH8 0xFFFFFFFFFFFFFFFF DUP1 DUP3 GT ISZERO PUSH2 0xBFE JUMPI PUSH1 0x0 DUP1 REVERT JUMPDEST DUP2 DUP7 ADD SWAP2 POP DUP7 PUSH1 0x1F DUP4 ADD SLT PUSH2 0xC12 JUMPI PUSH1 0x0 DUP1 REVERT JUMPDEST DUP2 MLOAD PUSH1 0x20 PUSH2 0xC22 PUSH2 0x968 DUP4 PUSH2 0x8FB JUMP JUMPDEST DUP3 DUP2 MSTORE PUSH1 0x5 SWAP3 SWAP1 SWAP3 SHL DUP5 ADD DUP2 ADD SWAP2 DUP2 DUP2 ADD SWAP1 DUP11 DUP5 GT ISZERO PUSH2 0xC41 JUMPI PUSH1 0x0 DUP1 REVERT JUMPDEST SWAP5 DUP3 ADD SWAP5 JUMPDEST DUP4 DUP7 LT ISZERO PUSH2 0xC5F JUMPI DUP6 MLOAD DUP3 MSTORE SWAP5 DUP3 ADD SWAP5 SWAP1 DUP3 ADD SWAP1 PUSH2 0xC46 JUMP JUMPDEST SWAP2 DUP10 ADD MLOAD SWAP2 SWAP8 POP SWAP1 SWAP4 POP POP POP DUP1 DUP3 GT ISZERO PUSH2 0xC78 JUMPI PUSH1 0x0 DUP1 REVERT JUMPDEST POP PUSH2 0xC85 DUP7 DUP3 DUP8 ADD PUSH2 0xB64 JUMP JUMPDEST SWAP3 POP POP PUSH2 0xB0D PUSH1 0x40 DUP6 ADD PUSH2 0xAC2 JUMP JUMPDEST PUSH1 0x0 DUP1 PUSH1 0x40 DUP4 DUP6 SUB SLT ISZERO PUSH2 0xCA7 JUMPI PUSH1 0x0 DUP1 REVERT JUMPDEST DUP3 MLOAD SWAP2 POP PUSH2 0xCB7 PUSH1 0x20 DUP5 ADD PUSH2 0xAC2 JUMP JUMPDEST SWAP1 POP SWAP3 POP SWAP3 SWAP1 POP JUMP INVALID LOG2 PUSH5 0x6970667358 0x22 SLT KECCAK256 SWAP5 0xD DIV PUSH28 0xAD9CF9F6CDB23B8A1DA05D8258613FE856F1148FDD039D10F9979A14 PUSH5 0x736F6C6343 STOP ADDMOD EQ STOP CALLER "},"methodIdentifiers":{"ADA_USD_FEED_ID()":"5e912204","ALGO_USD_FEED_ID()":"b55f780a","BCH_USD_FEED_ID()":"830cf393","BTC_USD_FEED_ID()":"02a81708","DOGE_USD_FEED_ID()":"1042e77c","ETH_USD_FEED_ID()":"966a6709","FLR_USD_FEED_ID()":"69f161c4","LTC_USD_FEED_ID()":"9f1d9c41","MATIC_USD_FEED_ID()":"80c675cd","XRP_USD_FEED_ID()":"01454d6c","getBatchPrices(bytes21[])":"c240102d","getFeedIdForSymbol(string)":"5036d81b","getFeedName(bytes21)":"15335296","getPriceForFeed(bytes21)":"c0ece9d3","getPriceInWeiForFeed(bytes21)":"fc5cb473"}}}}}