{
  "_format": "hh-sol-artifact-1",
  "contractName": "FlarePriceFeedHelper",
  "sourceName": "contracts/FlarePriceFeedHelper.sol",
  "abi": [
    {
      "inputs": [],
      "stateMutability": "nonpayable",
      "type": "constructor"
    },
    {
      "inputs": [],
      "name": "ADA_USD_FEED_ID",
      "outputs": [
        {
          "internalType": "bytes21",
          "name": "",
          "type": "bytes21"
        }
      ],
      "stateMutability": "view",
      "type": "function"
    },
    {
      "inputs": [],
      "name": "ALGO_USD_FEED_ID",
      "outputs": [
        {
          "internalType": "bytes21",
          "name": "",
          "type": "bytes21"
        }
      ],
      "stateMutability": "view",
      "type": "function"
    },
    {
      "inputs": [],
      "name": "BCH_USD_FEED_ID",
      "outputs": [
        {
          "internalType": "bytes21",
          "name": "",
          "type": "bytes21"
        }
      ],
      "stateMutability": "view",
      "type": "function"
    },
    {
      "inputs": [],
      "name": "BTC_USD_FEED_ID",
      "outputs": [
        {
          "internalType": "bytes21",
          "name": "",
          "type": "bytes21"
        }
      ],
      "stateMutability": "view",
      "type": "function"
    },
    {
      "inputs": [],
      "name": "DOGE_USD_FEED_ID",
      "outputs": [
        {
          "internalType": "bytes21",
          "name": "",
          "type": "bytes21"
        }
      ],
      "stateMutability": "view",
      "type": "function"
    },
    {
      "inputs": [],
      "name": "ETH_USD_FEED_ID",
      "outputs": [
        {
          "internalType": "bytes21",
          "name": "",
          "type": "bytes21"
        }
      ],
      "stateMutability": "view",
      "type": "function"
    },
    {
      "inputs": [],
      "name": "FLR_USD_FEED_ID",
      "outputs": [
        {
          "internalType": "bytes21",
          "name": "",
          "type": "bytes21"
        }
      ],
      "stateMutability": "view",
      "type": "function"
    },
    {
      "inputs": [],
      "name": "LTC_USD_FEED_ID",
      "outputs": [
        {
          "internalType": "bytes21",
          "name": "",
          "type": "bytes21"
        }
      ],
      "stateMutability": "view",
      "type": "function"
    },
    {
      "inputs": [],
      "name": "MATIC_USD_FEED_ID",
      "outputs": [
        {
          "internalType": "bytes21",
          "name": "",
          "type": "bytes21"
        }
      ],
      "stateMutability": "view",
      "type": "function"
    },
    {
      "inputs": [],
      "name": "XRP_USD_FEED_ID",
      "outputs": [
        {
          "internalType": "bytes21",
          "name": "",
          "type": "bytes21"
        }
      ],
      "stateMutability": "view",
      "type": "function"
    },
    {
      "inputs": [
        {
          "internalType": "bytes21[]",
          "name": "feedIds",
          "type": "bytes21[]"
        }
      ],
      "name": "getBatchPrices",
      "outputs": [
        {
          "internalType": "uint256[]",
          "name": "prices",
          "type": "uint256[]"
        },
        {
          "internalType": "int8[]",
          "name": "decimals",
          "type": "int8[]"
        },
        {
          "internalType": "uint64",
          "name": "timestamp",
          "type": "uint64"
        }
      ],
      "stateMutability": "nonpayable",
      "type": "function"
    },
    {
      "inputs": [
        {
          "internalType": "string",
          "name": "symbol",
          "type": "string"
        }
      ],
      "name": "getFeedIdForSymbol",
      "outputs": [
        {
          "internalType": "bytes21",
          "name": "",
          "type": "bytes21"
        }
      ],
      "stateMutability": "pure",
      "type": "function"
    },
    {
      "inputs": [
        {
          "internalType": "bytes21",
          "name": "feedId",
          "type": "bytes21"
        }
      ],
      "name": "getFeedName",
      "outputs": [
        {
          "internalType": "string",
          "name": "",
          "type": "string"
        }
      ],
      "stateMutability": "pure",
      "type": "function"
    },
    {
      "inputs": [
        {
          "internalType": "bytes21",
          "name": "feedId",
          "type": "bytes21"
        }
      ],
      "name": "getPriceForFeed",
      "outputs": [
        {
          "internalType": "uint256",
          "name": "price",
          "type": "uint256"
        },
        {
          "internalType": "int8",
          "name": "decimals",
          "type": "int8"
        },
        {
          "internalType": "uint64",
          "name": "timestamp",
          "type": "uint64"
        }
      ],
      "stateMutability": "nonpayable",
      "type": "function"
    },
    {
      "inputs": [
        {
          "internalType": "bytes21",
          "name": "feedId",
          "type": "bytes21"
        }
      ],
      "name": "getPriceInWeiForFeed",
      "outputs": [
        {
          "internalType": "uint256",
          "name": "price",
          "type": "uint256"
        },
        {
          "internalType": "uint64",
          "name": "timestamp",
          "type": "uint64"
        }
      ],
      "stateMutability": "nonpayable",
      "type": "function"
    }
  ],
  "bytecode": "0x608060405234801561001057600080fd5b5061001961003e565b600080546001600160a01b0319166001600160a01b0392909216919091179055610137565b600073ad67fe66660fb8dfe9d6b1b4240d8650e30f60196001600160a01b031663159354a260405160200161008d90602080825260069082015265233a39b7ab1960d11b604082015260600190565b604051602081830303815290604052805190602001206040518263ffffffff1660e01b81526004016100c191815260200190565b602060405180830381865afa1580156100de573d6000803e3d6000fd5b505050506040513d601f19601f820116820180604052508101906101029190610107565b905090565b60006020828403121561011957600080fd5b81516001600160a01b038116811461013057600080fd5b9392505050565b610cf6806101466000396000f3fe608060405234801561001057600080fd5b50600436106100f55760003560e01c806380c675cd11610097578063b55f780a11610066578063b55f780a146101e7578063c0ece9d3146101f9578063c240102d14610234578063fc5cb4731461025657600080fd5b806380c675cd146101a1578063830cf393146101b4578063966a6709146101c55780639f1d9c41146101d657600080fd5b806315335296116100d3578063153352961461014c5780635036d81b1461016c5780635e9122041461017f57806369f161c41461019057600080fd5b806301454d6c146100fa57806302a81708146101295780631042e77c1461013a575b600080fd5b61010b665614940bd554d160c21b81565b6040516001600160581b031990911681526020015b60405180910390f35b61010b66509510cbd554d160c21b81565b61010b675113d1d14bd554d160ba1b81565b61015f61015a3660046107af565b610287565b60405161012091906107d1565b61010b61017a366004610866565b61052a565b61010b665051104bd554d160c21b81565b61010b665193148bd554d160c21b81565b61010b685350551250cbd554d160b21b81565b61010b665090d20bd554d160c21b81565b61010b665155120bd554d160c21b81565b61010b66531510cbd554d160c21b81565b61010b67505311d3cbd554d160ba1b81565b61020c6102073660046107af565b610608565b6040805193845260009290920b602084015267ffffffffffffffff1690820152606001610120565b61024761024236600461091f565b610692565b604051610120939291906109bc565b6102696102643660046107af565b610711565b6040805192835267ffffffffffffffff909116602083015201610120565b6060673fae6ceb742aab2f60c21b6001600160581b03198316016102c85750506040805180820190915260078152661193148bd554d160ca1b602082015290565b673faf6aef342aab2f60c21b6001600160581b0319831601610307575050604080518082019091526007815266109510cbd554d160ca1b602082015290565b673faeaaedf42aab2f60c21b6001600160581b03198316016103465750506040805180820190915260078152661155120bd554d160ca1b602082015290565b673fa9eb6bf42aab2f60c21b6001600160581b03198316016103855750506040805180820190915260078152661614940bd554d160ca1b602082015290565b683faeec2e2eb42aab2f60ba1b6001600160581b03198316016103c65750506040805180820190915260088152671113d1d14bd554d160c21b602082015290565b673fafaeefb42aab2f60c21b6001600160581b03198316016104055750506040805180820190915260078152661051104bd554d160ca1b602082015290565b683fafacee2c342aab2f60ba1b6001600160581b0319831601610446575050604080518082019091526008815267105311d3cbd554d160c21b602082015290565b673faf6f2df42aab2f60c21b6001600160581b03198316016104855750506040805180820190915260078152661090d20bd554d160ca1b602082015290565b673faceaef342aab2f60c21b6001600160581b03198316016104c4575050604080518082019091526007815266131510cbd554d160ca1b602082015290565b693facafaaedaf342aab2f60b21b6001600160581b03198316016105075750506040805180820190915260098152681350551250cbd554d160ba1b602082015290565b50506040805180820190915260078152662ab735b737bbb760c91b602082015290565b60408051601580825281830190925260009183918391602082018180368337019050509050600160f81b8160008151811061056757610567610a52565b60200101906001600160f81b031916908160001a90535060005b8251811080156105915750601381105b156105fc578281815181106105a8576105a8610a52565b01602001516001600160f81b031916826105c3836001610a7e565b815181106105d3576105d3610a52565b60200101906001600160f81b031916908160001a905350806105f481610a97565b915050610581565b50602001519392505050565b600080546040516349f4fc0360e11b81526001600160581b031984166004820152829182916001600160a01b03909116906393e9f806906024016060604051808303816000875af1158015610661573d6000803e3d6000fd5b505050506040513d601f19601f820116820180604052508101906106859190610ada565b9250925092509193909250565b60008054604051634c37574560e01b8152606092839290916001600160a01b0390911690634c375745906106ca908790600401610b16565b6000604051808303816000875af11580156106e9573d6000803e3d6000fd5b505050506040513d6000823e601f3d908101601f191682016040526106859190810190610bd1565b60008054604051632cff56fb60e11b81526001600160581b03198416600482015282916001600160a01b0316906359feadf69060240160408051808303816000875af1158015610765573d6000803e3d6000fd5b505050506040513d601f19601f820116820180604052508101906107899190610c94565b91509150915091565b80356001600160581b0319811681146107aa57600080fd5b919050565b6000602082840312156107c157600080fd5b6107ca82610792565b9392505050565b600060208083528351808285015260005b818110156107fe578581018301518582016040015282016107e2565b506000604082860101526040601f19601f8301168501019250505092915050565b634e487b7160e01b600052604160045260246000fd5b604051601f8201601f1916810167ffffffffffffffff8111828210171561085e5761085e61081f565b604052919050565b6000602080838503121561087957600080fd5b823567ffffffffffffffff8082111561089157600080fd5b818501915085601f8301126108a557600080fd5b8135818111156108b7576108b761081f565b6108c9601f8201601f19168501610835565b915080825286848285010111156108df57600080fd5b8084840185840137600090820190930192909252509392505050565b600067ffffffffffffffff8211156109155761091561081f565b5060051b60200190565b6000602080838503121561093257600080fd5b823567ffffffffffffffff81111561094957600080fd5b8301601f8101851361095a57600080fd5b803561096d610968826108fb565b610835565b81815260059190911b8201830190838101908783111561098c57600080fd5b928401925b828410156109b1576109a284610792565b82529284019290840190610991565b979650505050505050565b60608082528451908201819052600090602090608084019082880184805b838110156109f6578251855293850193918501916001016109da565b5086840385880152885180855289860194860193509150805b82811015610a2d578451820b84529385019392850192600101610a0f565b50505067ffffffffffffffff861660408601529250610a4a915050565b949350505050565b634e487b7160e01b600052603260045260246000fd5b634e487b7160e01b600052601160045260246000fd5b80820180821115610a9157610a91610a68565b92915050565b600060018201610aa957610aa9610a68565b5060010190565b8051600081900b81146107aa57600080fd5b805167ffffffffffffffff811681146107aa57600080fd5b600080600060608486031215610aef57600080fd5b83519250610aff60208501610ab0565b9150610b0d60408501610ac2565b90509250925092565b6020808252825182820181905260009190848201906040850190845b81811015610b585783516001600160581b03191683529284019291840191600101610b32565b50909695505050505050565b600082601f830112610b7557600080fd5b81516020610b85610968836108fb565b82815260059290921b84018101918181019086841115610ba457600080fd5b8286015b84811015610bc657610bb981610ab0565b8352918301918301610ba8565b509695505050505050565b600080600060608486031215610be657600080fd5b835167ffffffffffffffff80821115610bfe57600080fd5b818601915086601f830112610c1257600080fd5b81516020610c22610968836108fb565b82815260059290921b8401810191818101908a841115610c4157600080fd5b948201945b83861015610c5f57855182529482019490820190610c46565b91890151919750909350505080821115610c7857600080fd5b50610c8586828701610b64565b925050610b0d60408501610ac2565b60008060408385031215610ca757600080fd5b82519150610cb760208401610ac2565b9050925092905056fea2646970667358221220940d047bad9cf9f6cdb23b8a1da05d8258613fe856f1148fdd039d10f9979a1464736f6c63430008140033",
  "linkReferences": {},
  "deployedLinkReferences": {}
}