{
  "_format": "hh-sol-artifact-1",
  "contractName": "RaffleExample",
  "sourceName": "contracts/apollo/examples/RaffleExample.sol",
  "abi": [
    {
      "inputs": [
        {
          "internalType": "address",
          "name": "_executorsRegistry",
          "type": "address"
        },
        {
          "internalType": "address",
          "name": "_apolloCoordinator",
          "type": "address"
        },
        {
          "internalType": "uint16",
          "name": "_maxNumberOfTickets",
          "type": "uint16"
        },
        {
          "internalType": "uint256",
          "name": "_ticketPrice",
          "type": "uint256"
        }
      ],
      "stateMutability": "nonpayable",
      "type": "constructor"
    },
    {
      "inputs": [
        {
          "internalType": "address",
          "name": "caller",
          "type": "address"
        }
      ],
      "name": "ApolloCallerUnauthorized",
      "type": "error"
    },
    {
      "inputs": [],
      "name": "apolloCoordinator",
      "outputs": [
        {
          "internalType": "contract IApolloCoordinator",
          "name": "",
          "type": "address"
        }
      ],
      "stateMutability": "view",
      "type": "function"
    },
    {
      "inputs": [],
      "name": "end_raffle",
      "outputs": [],
      "stateMutability": "nonpayable",
      "type": "function"
    },
    {
      "inputs": [],
      "name": "enterRaffle",
      "outputs": [],
      "stateMutability": "payable",
      "type": "function"
    },
    {
      "inputs": [
        {
          "internalType": "address",
          "name": "_addr",
          "type": "address"
        }
      ],
      "name": "isExecutor",
      "outputs": [
        {
          "internalType": "bool",
          "name": "",
          "type": "bool"
        }
      ],
      "stateMutability": "view",
      "type": "function"
    },
    {
      "inputs": [
        {
          "internalType": "bytes",
          "name": "data",
          "type": "bytes"
        }
      ],
      "name": "rawFulfillData",
      "outputs": [],
      "stateMutability": "nonpayable",
      "type": "function"
    }
  ],
  "bytecode": "0x608060405234801561001057600080fd5b5060405161095338038061095383398101604081905261002f91610096565b600080546001600160a01b039586166001600160a01b03199182161790915560018054959094169481169490941790925561ffff1660025560035560058054909116331790556100ea565b80516001600160a01b038116811461009157600080fd5b919050565b600080600080608085870312156100ac57600080fd5b6100b58561007a565b93506100c36020860161007a565b9250604085015161ffff811681146100da57600080fd5b6060959095015193969295505050565b61085a806100f96000396000f3fe60806040526004361061004a5760003560e01c8063059515e41461004f5780631f42ef3d1461008c5780632cfcc539146100ae578063de16f11e146100b6578063debfda30146100cb575b600080fd5b34801561005b57600080fd5b5060015461006f906001600160a01b031681565b6040516001600160a01b0390911681526020015b60405180910390f35b34801561009857600080fd5b506100ac6100a7366004610619565b6100fb565b005b6100ac610196565b3480156100c257600080fd5b506100ac610291565b3480156100d757600080fd5b506100eb6100e63660046106ae565b610378565b6040519015158152602001610083565b60005460405163023c33fb60e41b81523360048201526001600160a01b03909116906323c33fb090602401602060405180830381865afa158015610143573d6000803e3d6000fd5b505050506040513d601f19601f8201168201806040525081019061016791906106de565b61018a57604051626e4bc760e41b81523360048201526024015b60405180910390fd5b610193816103ed565b50565b600254600454106101e95760405162461bcd60e51b815260206004820152601d60248201527f526166666c654578616d706c653a20526166666c652069732066756c6c0000006044820152606401610181565b600354341461024d5760405162461bcd60e51b815260206004820152602a60248201527f526166666c654578616d706c653a205469636b6574207072696365206973206e6044820152691bdd0818dbdc9c9958dd60b21b6064820152608401610181565b600480546001810182556000919091527f8a35acfbc15ff81a39ae7d344fd709f28e8600b4aa8c65c6b64bfe7fe36bd19b0180546001600160a01b03191633179055565b6005546001600160a01b031633146103005760405162461bcd60e51b815260206004820152602c60248201527f526166666c654578616d706c653a204f6e6c79206f776e65722063616e20656e60448201526b642074686520726166666c6560a01b6064820152608401610181565b600180546040516362e71d2560e01b8152620493e0600482015260248101929092526001600160a01b0316906362e71d25906044016020604051808303816000875af1158015610354573d6000803e3d6000fd5b505050506040513d601f19601f820116820180604052508101906101939190610700565b6000805460405163023c33fb60e41b81526001600160a01b038481166004830152909116906323c33fb090602401602060405180830381865afa1580156103c3573d6000803e3d6000fd5b505050506040513d601f19601f820116820180604052508101906103e791906106de565b92915050565b6000818060200190518101906104039190610719565b915050600060048054905082600081518110610421576104216107cb565b602002602001015161043391906107e1565b61043e906001610803565b90506104498161044e565b505050565b60045460009061045e90836107e1565b9050600060048281548110610475576104756107cb565b60009182526020822001546040516001600160a01b039091169147919081818185875af1925050503d80600081146104c9576040519150601f19603f3d011682016040523d82523d6000602084013e6104ce565b606091505b50509050806105355760405162461bcd60e51b815260206004820152602d60248201527f526166666c654578616d706c653a204661696c656420746f2073656e6420457460448201526c3432b9103a37903bb4b73732b960991b6064820152608401610181565b604080516000815260208101918290525161055291600491610558565b50505050565b8280548282559060005260206000209081019282156105ad579160200282015b828111156105ad57825182546001600160a01b0319166001600160a01b03909116178255602090920191600190910190610578565b506105b99291506105bd565b5090565b5b808211156105b957600081556001016105be565b634e487b7160e01b600052604160045260246000fd5b604051601f8201601f1916810167ffffffffffffffff81118282101715610611576106116105d2565b604052919050565b6000602080838503121561062c57600080fd5b823567ffffffffffffffff8082111561064457600080fd5b818501915085601f83011261065857600080fd5b81358181111561066a5761066a6105d2565b61067c601f8201601f191685016105e8565b9150808252868482850101111561069257600080fd5b8084840185840137600090820190930192909252509392505050565b6000602082840312156106c057600080fd5b81356001600160a01b03811681146106d757600080fd5b9392505050565b6000602082840312156106f057600080fd5b815180151581146106d757600080fd5b60006020828403121561071257600080fd5b5051919050565b6000806040838503121561072c57600080fd5b8251915060208084015167ffffffffffffffff8082111561074c57600080fd5b818601915086601f83011261076057600080fd5b815181811115610772576107726105d2565b8060051b91506107838483016105e8565b818152918301840191848101908984111561079d57600080fd5b938501935b838510156107bb578451825293850193908501906107a2565b8096505050505050509250929050565b634e487b7160e01b600052603260045260246000fd5b6000826107fe57634e487b7160e01b600052601260045260246000fd5b500690565b808201808211156103e757634e487b7160e01b600052601160045260246000fdfea2646970667358221220bd4f123440ee331cb94f439137b26313ee3aea846ec8f3700eaf4861f8eec67a64736f6c63430008140033",
  "linkReferences": {},
  "deployedLinkReferences": {}
}