{
  "_format": "hh-sol-artifact-1",
  "contractName": "Factory",
  "sourceName": "contracts/Factory.sol",
  "abi": [
    {
      "anonymous": false,
      "inputs": [
        {
          "indexed": true,
          "internalType": "address",
          "name": "owner",
          "type": "address"
        },
        {
          "indexed": true,
          "internalType": "address",
          "name": "contractAddress",
          "type": "address"
        },
        {
          "indexed": false,
          "internalType": "uint256",
          "name": "index",
          "type": "uint256"
        }
      ],
      "name": "Deployed",
      "type": "event"
    },
    {
      "inputs": [
        {
          "internalType": "address",
          "name": "contractAddress",
          "type": "address"
        }
      ],
      "name": "deploy",
      "outputs": [],
      "stateMutability": "nonpayable",
      "type": "function"
    },
    {
      "inputs": [
        {
          "internalType": "address",
          "name": "owner",
          "type": "address"
        }
      ],
      "name": "getContractsByOwner",
      "outputs": [
        {
          "internalType": "address[]",
          "name": "",
          "type": "address[]"
        }
      ],
      "stateMutability": "view",
      "type": "function"
    },
    {
      "inputs": [
        {
          "internalType": "address",
          "name": "",
          "type": "address"
        },
        {
          "internalType": "uint256",
          "name": "",
          "type": "uint256"
        }
      ],
      "name": "ownerContracts",
      "outputs": [
        {
          "internalType": "address",
          "name": "",
          "type": "address"
        }
      ],
      "stateMutability": "view",
      "type": "function"
    }
  ],
  "bytecode": "0x608060405234801561001057600080fd5b50610349806100206000396000f3fe608060405234801561001057600080fd5b50600436106100415760003560e01c80631cea013a146100465780634c96a3891461006f578063ba528b7114610084575b600080fd5b610059610054366004610253565b6100af565b6040516100669190610275565b60405180910390f35b61008261007d366004610253565b610123565b005b6100976100923660046102c2565b6101ff565b6040516001600160a01b039091168152602001610066565b6001600160a01b0381166000908152602081815260409182902080548351818402810184019094528084526060939283018282801561011757602002820191906000526020600020905b81546001600160a01b031681526001909101906020018083116100f9575b50505050509050919050565b6001600160a01b03811661017d5760405162461bcd60e51b815260206004820152601860248201527f496e76616c696420636f6e747261637420616464726573730000000000000000604482015260640160405180910390fd5b3360008181526020818152604082208054600180820183558285529284200180546001600160a01b0319166001600160a01b03871690811790915592849052549192917f78c9d1e385f0bb7d4dd0237eb7ab708b0780c73031080977cd5469bab04ed690916101eb916102ec565b60405190815260200160405180910390a350565b6000602052816000526040600020818154811061021b57600080fd5b6000918252602090912001546001600160a01b03169150829050565b80356001600160a01b038116811461024e57600080fd5b919050565b60006020828403121561026557600080fd5b61026e82610237565b9392505050565b6020808252825182820181905260009190848201906040850190845b818110156102b65783516001600160a01b031683529284019291840191600101610291565b50909695505050505050565b600080604083850312156102d557600080fd5b6102de83610237565b946020939093013593505050565b8181038181111561030d57634e487b7160e01b600052601160045260246000fd5b9291505056fea2646970667358221220f3c4c873e45dc3473f424a2a0cf4f7ae3950edcc0ae03c9b67ba9da90fe0118d64736f6c63430008140033",
  "linkReferences": {},
  "deployedLinkReferences": {}
}