{
  "_format": "hh-sol-artifact-1",
  "contractName": "OrallyApolloConsumer",
  "sourceName": "contracts/apollo/OrallyApolloConsumer.sol",
  "abi": [
    {
      "inputs": [
        {
          "internalType": "address",
          "name": "_registry",
          "type": "address"
        }
      ],
      "stateMutability": "nonpayable",
      "type": "constructor"
    },
    {
      "inputs": [
        {
          "internalType": "address",
          "name": "caller",
          "type": "address"
        }
      ],
      "name": "ApolloCallerUnauthorized",
      "type": "error"
    },
    {
      "inputs": [
        {
          "internalType": "address",
          "name": "_addr",
          "type": "address"
        }
      ],
      "name": "isExecutor",
      "outputs": [
        {
          "internalType": "bool",
          "name": "",
          "type": "bool"
        }
      ],
      "stateMutability": "view",
      "type": "function"
    }
  ],
  "bytecode": "0x608060405234801561001057600080fd5b506040516101e73803806101e783398101604081905261002f91610054565b600080546001600160a01b0319166001600160a01b0392909216919091179055610084565b60006020828403121561006657600080fd5b81516001600160a01b038116811461007d57600080fd5b9392505050565b610154806100936000396000f3fe608060405234801561001057600080fd5b506004361061002b5760003560e01c8063debfda3014610030575b600080fd5b61004361003e3660046100cc565b610057565b604051901515815260200160405180910390f35b6000805460405163023c33fb60e41b81526001600160a01b038481166004830152909116906323c33fb090602401602060405180830381865afa1580156100a2573d6000803e3d6000fd5b505050506040513d601f19601f820116820180604052508101906100c691906100fc565b92915050565b6000602082840312156100de57600080fd5b81356001600160a01b03811681146100f557600080fd5b9392505050565b60006020828403121561010e57600080fd5b815180151581146100f557600080fdfea26469706673582212206af8dc7b17790ce132ccf0a2372579d21f019bb92f9d134c8687853dd7c002ff64736f6c63430008140033",
  "linkReferences": {},
  "deployedLinkReferences": {}
}