{
  "_format": "hh-sol-artifact-1",
  "contractName": "OrallyConsumer",
  "sourceName": "contracts/registry/OrallyConsumer.sol",
  "abi": [
    {
      "inputs": [
        {
          "internalType": "address",
          "name": "caller",
          "type": "address"
        }
      ],
      "name": "CallerUnauthorized",
      "type": "error"
    },
    {
      "inputs": [
        {
          "internalType": "address",
          "name": "_addr",
          "type": "address"
        }
      ],
      "name": "isExecutor",
      "outputs": [
        {
          "internalType": "bool",
          "name": "",
          "type": "bool"
        }
      ],
      "stateMutability": "view",
      "type": "function"
    }
  ],
  "bytecode": "0x608060405234801561001057600080fd5b506101c8806100206000396000f3fe608060405234801561001057600080fd5b506004361061002b5760003560e01c8063debfda3014610030575b600080fd5b61004361003e366004610140565b610057565b604051901515815260200160405180910390f35b600080546040516308432ecf60e41b81526001600160a01b03848116600483015290911690638432ecf090602401602060405180830381865afa1580156100a2573d6000803e3d6000fd5b505050506040513d601f19601f820116820180604052508101906100c69190610170565b8061013a575060005460405163023c33fb60e41b81526001600160a01b038481166004830152909116906323c33fb090602401602060405180830381865afa158015610116573d6000803e3d6000fd5b505050506040513d601f19601f8201168201806040525081019061013a9190610170565b92915050565b60006020828403121561015257600080fd5b81356001600160a01b038116811461016957600080fd5b9392505050565b60006020828403121561018257600080fd5b8151801515811461016957600080fdfea264697066735822122015404adcec0160238df71a237a20d2aeea387dcf49cbbc85da980981970ab7c664736f6c63430008140033",
  "linkReferences": {},
  "deployedLinkReferences": {}
}