{
  "_format": "hh-sol-artifact-1",
  "contractName": "BinaryOptionMarketFlareFactory",
  "sourceName": "contracts/BinaryOptionMarketFlareFactory.sol",
  "abi": [
    {
      "inputs": [],
      "stateMutability": "nonpayable",
      "type": "constructor"
    },
    {
      "anonymous": false,
      "inputs": [
        {
          "indexed": false,
          "internalType": "address",
          "name": "marketAddress",
          "type": "address"
        },
        {
          "indexed": false,
          "internalType": "string",
          "name": "tradingPair",
          "type": "string"
        },
        {
          "indexed": false,
          "internalType": "bytes21",
          "name": "priceFeedId",
          "type": "bytes21"
        },
        {
          "indexed": false,
          "internalType": "uint256",
          "name": "strikePrice",
          "type": "uint256"
        },
        {
          "indexed": false,
          "internalType": "uint256",
          "name": "maturityTime",
          "type": "uint256"
        },
        {
          "indexed": false,
          "internalType": "uint256",
          "name": "feePercentage",
          "type": "uint256"
        },
        {
          "indexed": false,
          "internalType": "uint8",
          "name": "indexBg",
          "type": "uint8"
        }
      ],
      "name": "MarketCreated",
      "type": "event"
    },
    {
      "inputs": [
        {
          "internalType": "string",
          "name": "tradingPair",
          "type": "string"
        },
        {
          "internalType": "bytes21",
          "name": "priceFeedId",
          "type": "bytes21"
        },
        {
          "internalType": "uint256",
          "name": "strikePrice",
          "type": "uint256"
        },
        {
          "internalType": "uint256",
          "name": "maturityTime",
          "type": "uint256"
        },
        {
          "internalType": "uint256",
          "name": "feePercentage",
          "type": "uint256"
        },
        {
          "internalType": "uint8",
          "name": "indexBg",
          "type": "uint8"
        }
      ],
      "name": "createMarket",
      "outputs": [
        {
          "internalType": "address",
          "name": "",
          "type": "address"
        }
      ],
      "stateMutability": "nonpayable",
      "type": "function"
    },
    {
      "inputs": [
        {
          "internalType": "uint256",
          "name": "",
          "type": "uint256"
        }
      ],
      "name": "deployedMarkets",
      "outputs": [
        {
          "internalType": "address",
          "name": "",
          "type": "address"
        }
      ],
      "stateMutability": "view",
      "type": "function"
    },
    {
      "inputs": [],
      "name": "getDeployedMarkets",
      "outputs": [
        {
          "internalType": "address[]",
          "name": "",
          "type": "address[]"
        }
      ],
      "stateMutability": "view",
      "type": "function"
    },
    {
      "inputs": [],
      "name": "getDeployedMarketsCount",
      "outputs": [
        {
          "internalType": "uint256",
          "name": "",
          "type": "uint256"
        }
      ],
      "stateMutability": "view",
      "type": "function"
    },
    {
      "inputs": [],
      "name": "owner",
      "outputs": [
        {
          "internalType": "address",
          "name": "",
          "type": "address"
        }
      ],
      "stateMutability": "view",
      "type": "function"
    }
  ],
  "bytecode": "0x608060405234801561001057600080fd5b50600080546001600160a01b031916331790556121c3806100326000396000f3fe60806040523480156200001157600080fd5b50600436106200005e5760003560e01c80630967803a14620000635780631b0bbbd214620000795780631bee8cb914620000925780635b51eb8814620000c25780638da5cb5b14620000d9575b600080fd5b6001546040519081526020015b60405180910390f35b62000083620000ed565b60405162000070919062000273565b620000a9620000a33660046200030c565b62000151565b6040516001600160a01b03909116815260200162000070565b620000a9620000d336600462000408565b6200023a565b600054620000a9906001600160a01b031681565b606060018054806020026020016040519081016040528092919081815260200182805480156200014757602002820191906000526020600020905b81546001600160a01b0316815260019091019060200180831162000128575b5050505050905090565b60008033888888888888604051620001699062000265565b6200017b979695949392919062000422565b604051809103906000f08015801562000198573d6000803e3d6000fd5b506001805480820182556000919091527fb10e2d527612073b26eecdfd717e6a320cf44b4afac2b0732d9fcbe2b7fa0cf60180546001600160a01b0319166001600160a01b03831617905560405190915081907f0ad75d32c9c29f6f238dce11f604f04cb1df28d1de8b7e8a67ce7acf4972e41690620002269083908c908c908c908c908c908c9062000422565b60405180910390a198975050505050505050565b600181815481106200024b57600080fd5b6000918252602090912001546001600160a01b0316905081565b611cc580620004c983390190565b6020808252825182820181905260009190848201906040850190845b81811015620002b65783516001600160a01b0316835292840192918401916001016200028f565b50909695505050505050565b634e487b7160e01b600052604160045260246000fd5b80356affffffffffffffffffffff1981168114620002f557600080fd5b919050565b803560ff81168114620002f557600080fd5b60008060008060008060c087890312156200032657600080fd5b863567ffffffffffffffff808211156200033f57600080fd5b818901915089601f8301126200035457600080fd5b813581811115620003695762000369620002c2565b604051601f8201601f19908116603f01168101908382118183101715620003945762000394620002c2565b816040528281528c6020848701011115620003ae57600080fd5b82602086016020830137600060208483010152809a505050505050620003d760208801620002d8565b9450604087013593506060870135925060808701359150620003fc60a08801620002fa565b90509295509295509295565b6000602082840312156200041b57600080fd5b5035919050565b60018060a01b03881681526000602060e08184015288518060e085015260005b8181101562000461578a81018301518582016101000152820162000442565b506101009150600082828601015281601f19601f830116850101925050506200049a60408301886affffffffffffffffffffff19169052565b8560608301528460808301528360a0830152620004bc60c083018460ff169052565b9897505050505050505056fe6080604052600a600d553480156200001657600080fd5b5060405162001cc538038062001cc5833981016040819052620000399162000486565b62000044336200022d565b428311620000a55760405162461bcd60e51b815260206004820152602360248201527f4d617475726974792074696d65206d75737420626520696e207468652066757460448201526275726560e81b60648201526084015b60405180910390fd5b60018210158015620000b8575060c88211155b620001065760405162461bcd60e51b815260206004820181905260248201527f466565206d757374206265206265747765656e20302e312520616e642032302560448201526064016200009c565b60018160ff16101580156200011f5750600a8160ff1611155b6200017f5760405162461bcd60e51b815260206004820152602960248201527f496e646578206261636b67726f756e64206d757374206265206265747765656e6044820152680203120616e642031360bc1b60648201526084016200009c565b620001896200027d565b600380546001600160a01b0319166001600160a01b03929092169190911790556005620001b7878262000640565b50600480546001600160a81b031916605887901c17905560408051808201909152848152600060209091018190526001859055600255601283905542601155600d8290556015805460ff191660ff8316179055600c805461ff001916905562000220876200034b565b5050505050505062000731565b600080546001600160a01b038381166001600160a01b0319831681178455604051919092169283917f8be0079c531659141344cd1fd0a4f28419497f9722a3daafe3b4186f6b6457e09190a35050565b600073ad67fe66660fb8dfe9d6b1b4240d8650e30f60196001600160a01b031663159354a2604051602001620002cd90602080825260069082015265233a39b7ab1960d11b604082015260600190565b604051602081830303815290604052805190602001206040518263ffffffff1660e01b81526004016200030291815260200190565b602060405180830381865afa15801562000320573d6000803e3d6000fd5b505050506040513d601f19601f820116820180604052508101906200034691906200070c565b905090565b62000355620003ca565b6001600160a01b038116620003bc5760405162461bcd60e51b815260206004820152602660248201527f4f776e61626c653a206e6577206f776e657220697320746865207a65726f206160448201526564647265737360d01b60648201526084016200009c565b620003c7816200022d565b50565b6000546001600160a01b03163314620004265760405162461bcd60e51b815260206004820181905260248201527f4f776e61626c653a2063616c6c6572206973206e6f7420746865206f776e657260448201526064016200009c565b565b80516001600160a01b03811681146200044057600080fd5b919050565b634e487b7160e01b600052604160045260246000fd5b80516001600160581b0319811681146200044057600080fd5b805160ff811681146200044057600080fd5b600080600080600080600060e0888a031215620004a257600080fd5b620004ad8862000428565b602089810151919850906001600160401b0380821115620004cd57600080fd5b818b0191508b601f830112620004e257600080fd5b815181811115620004f757620004f762000445565b604051601f8201601f19908116603f0116810190838211818310171562000522576200052262000445565b816040528281528e868487010111156200053b57600080fd5b600093505b828410156200055f578484018601518185018701529285019262000540565b6000868483010152809b505050505050506200057e604089016200045b565b9450606088015193506080880151925060a08801519150620005a360c0890162000474565b905092959891949750929550565b600181811c90821680620005c657607f821691505b602082108103620005e757634e487b7160e01b600052602260045260246000fd5b50919050565b601f8211156200063b57600081815260208120601f850160051c81016020861015620006165750805b601f850160051c820191505b81811015620006375782815560010162000622565b5050505b505050565b81516001600160401b038111156200065c576200065c62000445565b62000674816200066d8454620005b1565b84620005ed565b602080601f831160018114620006ac5760008415620006935750858301515b600019600386901b1c1916600185901b17855562000637565b600085815260208120601f198616915b82811015620006dd57888601518255948401946001909101908401620006bc565b5085821015620006fc5787850151600019600388901b60f8161c191681555b5050505050600190811b01905550565b6000602082840312156200071f57600080fd5b6200072a8262000428565b9392505050565b61158480620007416000396000f3fe6080604052600436106101b75760003560e01c80638da5cb5b116100ec578063b88a802f1161008a578063eb91d37e11610064578063eb91d37e146104cb578063f2fde38b14610508578063f86e83e514610528578063ff50abdc1461055457600080fd5b8063b88a802f14610479578063ba5b79821461048e578063d42f6e39146104a957600080fd5b80639ce05df7116100c65780639ce05df7146104065780639e891f3e1461041b578063a001ecdd14610430578063a5e1803a1461044657600080fd5b80638da5cb5b1461037457806398508ecd1461039c5780639af1d35a146103cc57600080fd5b80634e8bfdaa11610159578063715018a611610133578063715018a61461030457806373b2e80e146103195780637a40624b146103495780637d7b39e41461035f57600080fd5b80634e8bfdaa146102ab57806351b72dc5146102c1578063553fc574146102ee57600080fd5b80632b9b55b3116101955780632b9b55b31461024257806333500e26146102595780633ccfd60b1461026c5780633f6fa6551461028157600080fd5b8063055ad42e146101bc57806305ed76c4146101f15780631955e14614610215575b600080fd5b3480156101c857600080fd5b50600c546101db90610100900460ff1681565b6040516101e891906111fa565b60405180910390f35b3480156101fd57600080fd5b5061020760135481565b6040519081526020016101e8565b34801561022157600080fd5b50610207610230366004611214565b600e6020526000908152604090205481565b34801561024e57600080fd5b5061025761056a565b005b610257610267366004611244565b61072d565b34801561027857600080fd5b50610257610928565b34801561028d57600080fd5b50600c5461029b9060ff1681565b60405190151581526020016101e8565b3480156102b757600080fd5b5061020760125481565b3480156102cd57600080fd5b506102076102dc366004611214565b600f6020526000908152604090205481565b3480156102fa57600080fd5b5061020760145481565b34801561031057600080fd5b506102576109de565b34801561032557600080fd5b5061029b610334366004611214565b60106020526000908152604090205460ff1681565b34801561035557600080fd5b5061020760115481565b34801561036b57600080fd5b506102576109f2565b34801561038057600080fd5b506000546040516001600160a01b0390911681526020016101e8565b3480156103a857600080fd5b506001546002546103b7919082565b604080519283526020830191909152016101e8565b3480156103d857600080fd5b50600854600954600a546103eb92919083565b604080519384526020840192909252908201526060016101e8565b34801561041257600080fd5b50600254610207565b34801561042757600080fd5b50610257610a7a565b34801561043c57600080fd5b50610207600d5481565b34801561045257600080fd5b5061045b610b55565b6040805192835267ffffffffffffffff9091166020830152016101e8565b34801561048557600080fd5b50610257610bef565b34801561049a57600080fd5b506006546007546103b7919082565b3480156104b557600080fd5b506104be610ee7565b6040516101e89190611265565b3480156104d757600080fd5b506104e0610f75565b6040805193845260009290920b602084015267ffffffffffffffff16908201526060016101e8565b34801561051457600080fd5b50610257610523366004611214565b61100c565b34801561053457600080fd5b506015546105429060ff1681565b60405160ff90911681526020016101e8565b34801561056057600080fd5b50610207600b5481565b610572611085565b6000600c54610100900460ff166003811115610590576105906111e4565b146105e25760405162461bcd60e51b815260206004820152601b60248201527f4d61726b6574206e6f7420696e2074726164696e67207068617365000000000060448201526064015b60405180910390fd5b60125442101561062b5760405162461bcd60e51b8152602060048201526014602482015273546f6f206561726c7920746f207265736f6c766560601b60448201526064016105d9565b600354600480546040516349f4fc0360e11b815260589190911b6affffffffffffffffffffff191691810191909152600091829182916001600160a01b0316906393e9f806906024016060604051808303816000875af1158015610693573d6000803e3d6000fd5b505050506040513d601f19601f820116820180604052508101906106b791906112d0565b9194509250905082600083810b12156106ef576106d38361132a565b6106de90600a61142e565b6106e8908561143d565b9050610713565b60008360000b13156107135761070683600a61142e565b6107109085611454565b90505b610727818367ffffffffffffffff166110df565b50505050565b6001600c54610100900460ff16600381111561074b5761074b6111e4565b1461078f5760405162461bcd60e51b81526020600482015260146024820152734e6f7420696e2062696464696e6720706861736560601b60448201526064016105d9565b600034116107df5760405162461bcd60e51b815260206004820152601f60248201527f56616c7565206d7573742062652067726561746572207468616e207a65726f0060448201526064016105d9565b60008160018111156107f3576107f36111e4565b0361083c57346006600001600082825461080d9190611476565b9091555050336000908152600e602052604081208054349290610831908490611476565b9091555061087b9050565b34600660010160008282546108519190611476565b9091555050336000908152600f602052604081208054349290610875908490611476565b90915550505b34600b600082825461088d9190611476565b9091555050600654600754600b5460408051428152602081019490945283019190915260608201527f5fd7e45cc570ececa5a25e81af5f4acc6a2456c0fb1eee17751ec71677d32f3c9060800160405180910390a1336001600160a01b03167f70bd4a33bf447720d717d08f3affb5aecfe4d2ebb8e3dd94539f5313e2447643823460405161091d92919061149d565b60405180910390a250565b610930611085565b478061097e5760405162461bcd60e51b815260206004820152601760248201527f4e6f2062616c616e636520746f2077697468647261772e00000000000000000060448201526064016105d9565b604051339082156108fc029083906000818181858888f193505050501580156109ab573d6000803e3d6000fd5b5060405181815233907f7fcf532c15f0a6db0bd6d0e038bea71d30d808c7d98cb3bf7268a95bf5081b659060200161091d565b6109e6611085565b6109f06000611194565b565b6109fa611085565b6000600c54610100900460ff166003811115610a1857610a186111e4565b14610a655760405162461bcd60e51b815260206004820152601b60248201527f4d61726b6574206e6f7420696e2074726164696e67207068617365000000000060448201526064016105d9565b600c805461ff00191661010017905542601455565b610a82611085565b6002600c54610100900460ff166003811115610aa057610aa06111e4565b14610aed5760405162461bcd60e51b815260206004820152601c60248201527f4d61726b6574206e6f7420696e206d617475726974792070686173650000000060448201526064016105d9565b600c5460ff161515600114610b445760405162461bcd60e51b815260206004820152601a60248201527f4d61726b6574206973206e6f74207265736f6c7665642079657400000000000060448201526064016105d9565b600c805461ff001916610300179055565b60035460048054604051632cff56fb60e11b815260009384936001600160a01b03909116926359feadf692610ba59260589290921b91016affffffffffffffffffffff1991909116815260200190565b60408051808303816000875af1158015610bc3573d6000803e3d6000fd5b505050506040513d601f19601f82011682018060405250810190610be791906114b8565b915091509091565b6003600c54610100900460ff166003811115610c0d57610c0d6111e4565b14610c5a5760405162461bcd60e51b815260206004820152601a60248201527f4d61726b6574206e6f7420696e2065787069727920706861736500000000000060448201526064016105d9565b600c5460ff16610cac5760405162461bcd60e51b815260206004820152601a60248201527f4d61726b6574206973206e6f74207265736f6c7665642079657400000000000060448201526064016105d9565b3360009081526010602052604090205460ff1615610d055760405162461bcd60e51b815260206004820152601660248201527514995dd85c9908185b1c9958591e4818db185a5b595960521b60448201526064016105d9565b6002546001546000908210610d1c57506000610d20565b5060015b6000808080846001811115610d3757610d376111e4565b03610d6357336000908152600e602052604090205460065490935091508215610d5e575060015b610d85565b336000908152600f602052604090205460075490935091508215610d85575060015b336001600160a01b03167fcaf126c1b7df3cc94d90d37f4a60f866c0c7c56f50d45e3136fc1dc71e210eba8583604051610dc09291906114e4565b60405180910390a260008311610e185760405162461bcd60e51b815260206004820152601b60248201527f4e6f206465706f73697473206f6e2077696e6e696e672073696465000000000060448201526064016105d9565b600082600b5485610e29919061143d565b610e339190611454565b905060006064600d5483610e47919061143d565b610e519190611454565b90506000610e5f8284611501565b33600081815260106020526040808220805460ff1916600117905551929350909183156108fc0291849190818181858888f19350505050158015610ea7573d6000803e3d6000fd5b5060405181815233907f106f923f993c2149d49b4255ff723acafa1f2d94393f561d3eda32ae348f72419060200160405180910390a25050505050505050565b60058054610ef490611514565b80601f0160208091040260200160405190810160405280929190818152602001828054610f2090611514565b8015610f6d5780601f10610f4257610100808354040283529160200191610f6d565b820191906000526020600020905b815481529060010190602001808311610f5057829003601f168201915b505050505081565b600354600480546040516349f4fc0360e11b815260589190911b6affffffffffffffffffffff191691810191909152600091829182916001600160a01b0316906393e9f806906024016060604051808303816000875af1158015610fdd573d6000803e3d6000fd5b505050506040513d601f19601f8201168201806040525081019061100191906112d0565b925092509250909192565b611014611085565b6001600160a01b0381166110795760405162461bcd60e51b815260206004820152602660248201527f4f776e61626c653a206e6577206f776e657220697320746865207a65726f206160448201526564647265737360d01b60648201526084016105d9565b61108281611194565b50565b6000546001600160a01b031633146109f05760405162461bcd60e51b815260206004820181905260248201527f4f776e61626c653a2063616c6c6572206973206e6f7420746865206f776e657260448201526064016105d9565b600c805461020161ffff1990911617905560028290554260135560408051838152602081018390527f6dfc24f0f2fb42e49fb4fa3ffa8abb148cab908a1fb8335b3f128a08b2594af1910160405180910390a160015460009083106111465750600061114a565b5060015b60006001600160a01b03167fcaf126c1b7df3cc94d90d37f4a60f866c0c7c56f50d45e3136fc1dc71e210eba8260016040516111879291906114e4565b60405180910390a2505050565b600080546001600160a01b038381166001600160a01b0319831681178455604051919092169283917f8be0079c531659141344cd1fd0a4f28419497f9722a3daafe3b4186f6b6457e09190a35050565b634e487b7160e01b600052602160045260246000fd5b602081016004831061120e5761120e6111e4565b91905290565b60006020828403121561122657600080fd5b81356001600160a01b038116811461123d57600080fd5b9392505050565b60006020828403121561125657600080fd5b81356002811061123d57600080fd5b600060208083528351808285015260005b8181101561129257858101830151858201604001528201611276565b506000604082860101526040601f19601f8301168501019250505092915050565b805167ffffffffffffffff811681146112cb57600080fd5b919050565b6000806000606084860312156112e557600080fd5b8351925060208401518060000b81146112fd57600080fd5b915061130b604085016112b3565b90509250925092565b634e487b7160e01b600052601160045260246000fd5b600081810b6080810161133f5761133f611314565b60000392915050565b600181815b8085111561138357816000190482111561136957611369611314565b8085161561137657918102915b93841c939080029061134d565b509250929050565b60008261139a57506001611428565b816113a757506000611428565b81600181146113bd57600281146113c7576113e3565b6001915050611428565b60ff8411156113d8576113d8611314565b50506001821b611428565b5060208310610133831016604e8410600b8410161715611406575081810a611428565b6114108383611348565b806000190482111561142457611424611314565b0290505b92915050565b600061123d60ff84168361138b565b808202811582820484141761142857611428611314565b60008261147157634e487b7160e01b600052601260045260246000fd5b500490565b8082018082111561142857611428611314565b60028110611499576114996111e4565b9052565b604081016114ab8285611489565b8260208301529392505050565b600080604083850312156114cb57600080fd5b825191506114db602084016112b3565b90509250929050565b604081016114f28285611489565b82151560208301529392505050565b8181038181111561142857611428611314565b600181811c9082168061152857607f821691505b60208210810361154857634e487b7160e01b600052602260045260246000fd5b5091905056fea2646970667358221220a2aa3890f8a59d943dde4a8c3dd55ba0609b201e2cbcd33478f1534d624ee23e64736f6c63430008140033a26469706673582212205b4684e662bbd2990c7157735afb3c71d964abad40b32dc21f1422facfde49a764736f6c63430008140033",
  "linkReferences": {},
  "deployedLinkReferences": {}
}