{
  "_format": "hh-sol-artifact-1",
  "contractName": "ApolloConsumerExample",
  "sourceName": "contracts/apollo/examples/ApolloConsumerExample.sol",
  "abi": [
    {
      "inputs": [
        {
          "internalType": "address",
          "name": "_executorsRegistry",
          "type": "address"
        },
        {
          "internalType": "address",
          "name": "_apolloCoordinator",
          "type": "address"
        }
      ],
      "stateMutability": "nonpayable",
      "type": "constructor"
    },
    {
      "inputs": [
        {
          "internalType": "address",
          "name": "caller",
          "type": "address"
        }
      ],
      "name": "ApolloCallerUnauthorized",
      "type": "error"
    },
    {
      "inputs": [],
      "name": "apolloCoordinator",
      "outputs": [
        {
          "internalType": "contract IApolloCoordinator",
          "name": "",
          "type": "address"
        }
      ],
      "stateMutability": "view",
      "type": "function"
    },
    {
      "inputs": [],
      "name": "dataFeedId",
      "outputs": [
        {
          "internalType": "string",
          "name": "",
          "type": "string"
        }
      ],
      "stateMutability": "view",
      "type": "function"
    },
    {
      "inputs": [],
      "name": "decimals",
      "outputs": [
        {
          "internalType": "uint256",
          "name": "",
          "type": "uint256"
        }
      ],
      "stateMutability": "view",
      "type": "function"
    },
    {
      "inputs": [
        {
          "internalType": "address",
          "name": "_addr",
          "type": "address"
        }
      ],
      "name": "isExecutor",
      "outputs": [
        {
          "internalType": "bool",
          "name": "",
          "type": "bool"
        }
      ],
      "stateMutability": "view",
      "type": "function"
    },
    {
      "inputs": [],
      "name": "rate",
      "outputs": [
        {
          "internalType": "uint256",
          "name": "",
          "type": "uint256"
        }
      ],
      "stateMutability": "view",
      "type": "function"
    },
    {
      "inputs": [
        {
          "internalType": "bytes",
          "name": "data",
          "type": "bytes"
        }
      ],
      "name": "rawFulfillData",
      "outputs": [],
      "stateMutability": "nonpayable",
      "type": "function"
    },
    {
      "inputs": [],
      "name": "requestId",
      "outputs": [
        {
          "internalType": "uint256",
          "name": "",
          "type": "uint256"
        }
      ],
      "stateMutability": "view",
      "type": "function"
    },
    {
      "inputs": [],
      "name": "requestValue",
      "outputs": [],
      "stateMutability": "nonpayable",
      "type": "function"
    },
    {
      "inputs": [],
      "name": "timestamp",
      "outputs": [
        {
          "internalType": "uint256",
          "name": "",
          "type": "uint256"
        }
      ],
      "stateMutability": "view",
      "type": "function"
    }
  ],
  "bytecode": "0x608060405234801561001057600080fd5b5060405161085138038061085183398101604081905261002f9161007c565b600080546001600160a01b039384166001600160a01b031991821617909155600180549290931691161790556100af565b80516001600160a01b038116811461007757600080fd5b919050565b6000806040838503121561008f57600080fd5b61009883610060565b91506100a660208401610060565b90509250929050565b610793806100be6000396000f3fe608060405234801561001057600080fd5b50600436106100925760003560e01c8063313ce56711610066578063313ce567146100fc578063370c826b14610105578063b80777ea1461011a578063debfda3014610123578063fdc415aa1461014657600080fd5b80626d6cae14610097578063059515e4146100b35780631f42ef3d146100de5780632c4e722e146100f3575b600080fd5b6100a060025481565b6040519081526020015b60405180910390f35b6001546100c6906001600160a01b031681565b6040516001600160a01b0390911681526020016100aa565b6100f16100ec366004610436565b61014e565b005b6100a060045481565b6100a060055481565b61010d6101e8565b6040516100aa91906104da565b6100a060065481565b61013661013136600461050d565b610276565b60405190151581526020016100aa565b6100f16102eb565b60005460405163023c33fb60e41b81523360048201526001600160a01b03909116906323c33fb090602401602060405180830381865afa158015610196573d6000803e3d6000fd5b505050506040513d601f19601f820116820180604052508101906101ba919061053d565b6101dc57604051626e4bc760e41b815233600482015260240160405180910390fd5b6101e58161037c565b50565b600380546101f59061055f565b80601f01602080910402602001604051908101604052809291908181526020018280546102219061055f565b801561026e5780601f106102435761010080835404028352916020019161026e565b820191906000526020600020905b81548152906001019060200180831161025157829003601f168201915b505050505081565b6000805460405163023c33fb60e41b81526001600160a01b038481166004830152909116906323c33fb090602401602060405180830381865afa1580156102c1573d6000803e3d6000fd5b505050506040513d601f19601f820116820180604052508101906102e5919061053d565b92915050565b6001546040805163146b3de160e01b8152600481019190915260076044820152661250d40bd554d160ca1b6064820152620493e060248201526001600160a01b039091169063146b3de1906084016020604051808303816000875af1158015610358573d6000803e3d6000fd5b505050506040513d601f19601f820116820180604052508101906101e59190610599565b60008060008060008580602001905181019061039891906105b2565b600285905593985091965094509250905060036103b5858261069d565b50600492909255600555600655505050565b634e487b7160e01b600052604160045260246000fd5b604051601f8201601f1916810167ffffffffffffffff81118282101715610406576104066103c7565b604052919050565b600067ffffffffffffffff821115610428576104286103c7565b50601f01601f191660200190565b60006020828403121561044857600080fd5b813567ffffffffffffffff81111561045f57600080fd5b8201601f8101841361047057600080fd5b803561048361047e8261040e565b6103dd565b81815285602083850101111561049857600080fd5b81602084016020830137600091810160200191909152949350505050565b60005b838110156104d15781810151838201526020016104b9565b50506000910152565b60208152600082518060208401526104f98160408501602087016104b6565b601f01601f19169190910160400192915050565b60006020828403121561051f57600080fd5b81356001600160a01b038116811461053657600080fd5b9392505050565b60006020828403121561054f57600080fd5b8151801515811461053657600080fd5b600181811c9082168061057357607f821691505b60208210810361059357634e487b7160e01b600052602260045260246000fd5b50919050565b6000602082840312156105ab57600080fd5b5051919050565b600080600080600060a086880312156105ca57600080fd5b85519450602086015167ffffffffffffffff8111156105e857600080fd5b8601601f810188136105f957600080fd5b805161060761047e8261040e565b81815289602083850101111561061c57600080fd5b61062d8260208301602086016104b6565b604089015160608a01516080909a0151989b919a5098979650945050505050565b601f82111561069857600081815260208120601f850160051c810160208610156106755750805b601f850160051c820191505b8181101561069457828155600101610681565b5050505b505050565b815167ffffffffffffffff8111156106b7576106b76103c7565b6106cb816106c5845461055f565b8461064e565b602080601f83116001811461070057600084156106e85750858301515b600019600386901b1c1916600185901b178555610694565b600085815260208120601f198616915b8281101561072f57888601518255948401946001909101908401610710565b508582101561074d5787850151600019600388901b60f8161c191681555b5050505050600190811b0190555056fea2646970667358221220998c5cb9399ddc7dabd41a24263f54b26a20e05018178b86d2180b55caf91cec64736f6c63430008140033",
  "linkReferences": {},
  "deployedLinkReferences": {}
}