{
    "abi": [
        {
            "type": "constructor",
            "inputs": [
                {
                    "name": "_strikePrice",
                    "type": "int256",
                    "internalType": "int256"
                },
                {
                    "name": "_owner",
                    "type": "address",
                    "internalType": "address"
                },
                {
                    "name": "_tradingPair",
                    "type": "string",
                    "internalType": "string"
                },
                {
                    "name": "_priceFeedAddress",
                    "type": "address",
                    "internalType": "address"
                },
                {
                    "name": "_maturityTime",
                    "type": "uint256",
                    "internalType": "uint256"
                },
                {
                    "name": "_feePercentage",
                    "type": "uint256",
                    "internalType": "uint256"
                },
                {
                    "name": "_indexBg",
                    "type": "uint256",
                    "internalType": "uint256"
                }
            ],
            "stateMutability": "nonpayable"
        },
        {
            "type": "function",
            "name": "bid",
            "inputs": [
                {
                    "name": "side",
                    "type": "uint8",
                    "internalType": "enum BinaryOptionMarket.Side"
                }
            ],
            "outputs": [],
            "stateMutability": "payable"
        },
        {
            "type": "function",
            "name": "biddingStartTime",
            "inputs": [],
            "outputs": [
                {
                    "name": "",
                    "type": "uint256",
                    "internalType": "uint256"
                }
            ],
            "stateMutability": "view"
        },
        {
            "type": "function",
            "name": "claimReward",
            "inputs": [],
            "outputs": [],
            "stateMutability": "nonpayable"
        },
        {
            "type": "function",
            "name": "currentPhase",
            "inputs": [],
            "outputs": [
                {
                    "name": "",
                    "type": "uint8",
                    "internalType": "enum BinaryOptionMarket.Phase"
                }
            ],
            "stateMutability": "view"
        },
        {
            "type": "function",
            "name": "deployTime",
            "inputs": [],
            "outputs": [
                {
                    "name": "",
                    "type": "uint256",
                    "internalType": "uint256"
                }
            ],
            "stateMutability": "view"
        },
        {
            "type": "function",
            "name": "expireMarket",
            "inputs": [],
            "outputs": [],
            "stateMutability": "nonpayable"
        },
        {
            "type": "function",
            "name": "feePercentage",
            "inputs": [],
            "outputs": [
                {
                    "name": "",
                    "type": "uint256",
                    "internalType": "uint256"
                }
            ],
            "stateMutability": "view"
        },
        {
            "type": "function",
            "name": "fees",
            "inputs": [],
            "outputs": [
                {
                    "name": "poolFee",
                    "type": "uint256",
                    "internalType": "uint256"
                },
                {
                    "name": "creatorFee",
                    "type": "uint256",
                    "internalType": "uint256"
                },
                {
                    "name": "refundFee",
                    "type": "uint256",
                    "internalType": "uint256"
                }
            ],
            "stateMutability": "view"
        },
        {
            "type": "function",
            "name": "getChainlinkDataFeedLatestAnswer",
            "inputs": [],
            "outputs": [
                {
                    "name": "",
                    "type": "int256",
                    "internalType": "int256"
                }
            ],
            "stateMutability": "view"
        },
        {
            "type": "function",
            "name": "getFinalPrice",
            "inputs": [],
            "outputs": [
                {
                    "name": "",
                    "type": "int256",
                    "internalType": "int256"
                }
            ],
            "stateMutability": "view"
        },
        {
            "type": "function",
            "name": "hasClaimed",
            "inputs": [
                {
                    "name": "",
                    "type": "address",
                    "internalType": "address"
                }
            ],
            "outputs": [
                {
                    "name": "",
                    "type": "bool",
                    "internalType": "bool"
                }
            ],
            "stateMutability": "view"
        },
        {
            "type": "function",
            "name": "indexBg",
            "inputs": [],
            "outputs": [
                {
                    "name": "",
                    "type": "uint256",
                    "internalType": "uint256"
                }
            ],
            "stateMutability": "view"
        },
        {
            "type": "function",
            "name": "longBids",
            "inputs": [
                {
                    "name": "",
                    "type": "address",
                    "internalType": "address"
                }
            ],
            "outputs": [
                {
                    "name": "",
                    "type": "uint256",
                    "internalType": "uint256"
                }
            ],
            "stateMutability": "view"
        },
        {
            "type": "function",
            "name": "maturityTime",
            "inputs": [],
            "outputs": [
                {
                    "name": "",
                    "type": "uint256",
                    "internalType": "uint256"
                }
            ],
            "stateMutability": "view"
        },
        {
            "type": "function",
            "name": "oracleDetails",
            "inputs": [],
            "outputs": [
                {
                    "name": "strikePrice",
                    "type": "int256",
                    "internalType": "int256"
                },
                {
                    "name": "finalPrice",
                    "type": "int256",
                    "internalType": "int256"
                }
            ],
            "stateMutability": "view"
        },
        {
            "type": "function",
            "name": "owner",
            "inputs": [],
            "outputs": [
                {
                    "name": "",
                    "type": "address",
                    "internalType": "address"
                }
            ],
            "stateMutability": "view"
        },
        {
            "type": "function",
            "name": "positions",
            "inputs": [],
            "outputs": [
                {
                    "name": "long",
                    "type": "uint256",
                    "internalType": "uint256"
                },
                {
                    "name": "short",
                    "type": "uint256",
                    "internalType": "uint256"
                }
            ],
            "stateMutability": "view"
        },
        {
            "type": "function",
            "name": "priceDecimals",
            "inputs": [],
            "outputs": [
                {
                    "name": "",
                    "type": "uint8",
                    "internalType": "uint8"
                }
            ],
            "stateMutability": "view"
        },
        {
            "type": "function",
            "name": "renounceOwnership",
            "inputs": [],
            "outputs": [],
            "stateMutability": "nonpayable"
        },
        {
            "type": "function",
            "name": "resolveMarket",
            "inputs": [],
            "outputs": [],
            "stateMutability": "nonpayable"
        },
        {
            "type": "function",
            "name": "resolveTime",
            "inputs": [],
            "outputs": [
                {
                    "name": "",
                    "type": "uint256",
                    "internalType": "uint256"
                }
            ],
            "stateMutability": "view"
        },
        {
            "type": "function",
            "name": "resolved",
            "inputs": [],
            "outputs": [
                {
                    "name": "",
                    "type": "bool",
                    "internalType": "bool"
                }
            ],
            "stateMutability": "view"
        },
        {
            "type": "function",
            "name": "shortBids",
            "inputs": [
                {
                    "name": "",
                    "type": "address",
                    "internalType": "address"
                }
            ],
            "outputs": [
                {
                    "name": "",
                    "type": "uint256",
                    "internalType": "uint256"
                }
            ],
            "stateMutability": "view"
        },
        {
            "type": "function",
            "name": "startBidding",
            "inputs": [],
            "outputs": [],
            "stateMutability": "nonpayable"
        },
        {
            "type": "function",
            "name": "strikePrice",
            "inputs": [],
            "outputs": [
                {
                    "name": "",
                    "type": "uint256",
                    "internalType": "uint256"
                }
            ],
            "stateMutability": "view"
        },
        {
            "type": "function",
            "name": "totalDeposited",
            "inputs": [],
            "outputs": [
                {
                    "name": "",
                    "type": "uint256",
                    "internalType": "uint256"
                }
            ],
            "stateMutability": "view"
        },
        {
            "type": "function",
            "name": "tradingPair",
            "inputs": [],
            "outputs": [
                {
                    "name": "",
                    "type": "string",
                    "internalType": "string"
                }
            ],
            "stateMutability": "view"
        },
        {
            "type": "function",
            "name": "transferOwnership",
            "inputs": [
                {
                    "name": "newOwner",
                    "type": "address",
                    "internalType": "address"
                }
            ],
            "outputs": [],
            "stateMutability": "nonpayable"
        },
        {
            "type": "function",
            "name": "withdraw",
            "inputs": [],
            "outputs": [],
            "stateMutability": "nonpayable"
        },
        {
            "type": "event",
            "name": "Bid",
            "inputs": [
                {
                    "name": "side",
                    "type": "uint8",
                    "indexed": false,
                    "internalType": "enum BinaryOptionMarket.Side"
                },
                {
                    "name": "account",
                    "type": "address",
                    "indexed": true,
                    "internalType": "address"
                },
                {
                    "name": "value",
                    "type": "uint256",
                    "indexed": false,
                    "internalType": "uint256"
                }
            ],
            "anonymous": false
        },
        {
            "type": "event",
            "name": "MarketOutcome",
            "inputs": [
                {
                    "name": "winningSide",
                    "type": "uint8",
                    "indexed": false,
                    "internalType": "enum BinaryOptionMarket.Side"
                },
                {
                    "name": "user",
                    "type": "address",
                    "indexed": true,
                    "internalType": "address"
                },
                {
                    "name": "isWinner",
                    "type": "bool",
                    "indexed": false,
                    "internalType": "bool"
                }
            ],
            "anonymous": false
        },
        {
            "type": "event",
            "name": "MarketResolved",
            "inputs": [
                {
                    "name": "finalPrice",
                    "type": "int256",
                    "indexed": false,
                    "internalType": "int256"
                },
                {
                    "name": "timeStamp",
                    "type": "uint256",
                    "indexed": false,
                    "internalType": "uint256"
                }
            ],
            "anonymous": false
        },
        {
            "type": "event",
            "name": "OwnershipTransferred",
            "inputs": [
                {
                    "name": "previousOwner",
                    "type": "address",
                    "indexed": true,
                    "internalType": "address"
                },
                {
                    "name": "newOwner",
                    "type": "address",
                    "indexed": true,
                    "internalType": "address"
                }
            ],
            "anonymous": false
        },
        {
            "type": "event",
            "name": "PositionUpdated",
            "inputs": [
                {
                    "name": "timestamp",
                    "type": "uint256",
                    "indexed": false,
                    "internalType": "uint256"
                },
                {
                    "name": "longAmount",
                    "type": "uint256",
                    "indexed": false,
                    "internalType": "uint256"
                },
                {
                    "name": "shortAmount",
                    "type": "uint256",
                    "indexed": false,
                    "internalType": "uint256"
                },
                {
                    "name": "totalDeposited",
                    "type": "uint256",
                    "indexed": false,
                    "internalType": "uint256"
                }
            ],
            "anonymous": false
        },
        {
            "type": "event",
            "name": "RewardClaimed",
            "inputs": [
                {
                    "name": "account",
                    "type": "address",
                    "indexed": true,
                    "internalType": "address"
                },
                {
                    "name": "value",
                    "type": "uint256",
                    "indexed": false,
                    "internalType": "uint256"
                }
            ],
            "anonymous": false
        },
        {
            "type": "event",
            "name": "Withdrawal",
            "inputs": [
                {
                    "name": "user",
                    "type": "address",
                    "indexed": true,
                    "internalType": "address"
                },
                {
                    "name": "amount",
                    "type": "uint256",
                    "indexed": false,
                    "internalType": "uint256"
                }
            ],
            "anonymous": false
        },
        {
            "type": "error",
            "name": "OwnableInvalidOwner",
            "inputs": [
                {
                    "name": "owner",
                    "type": "address",
                    "internalType": "address"
                }
            ]
        },
        {
            "type": "error",
            "name": "OwnableUnauthorizedAccount",
            "inputs": [
                {
                    "name": "account",
                    "type": "address",
                    "internalType": "address"
                }
            ]
        }
    ],
    "bytecode": {
        "object": "0x608060405234801561000f575f5ffd5b506040516131e33803806131e383398181016040528101906100319190610740565b855f73ffffffffffffffffffffffffffffffffffffffff168173ffffffffffffffffffffffffffffffffffffffff16036100a2575f6040517f1e4fbdf70000000000000000000000000000000000000000000000000000000081526004016100999190610808565b60405180910390fd5b6100b18161031b60201b60201c565b504283116100f4576040517f08c379a00000000000000000000000000000000000000000000000000000000081526004016100eb906108a1565b60405180910390fd5b60018210158015610106575060c88211155b610145576040517f08c379a000000000000000000000000000000000000000000000000000000000815260040161013c90610909565b60405180910390fd5b600181101580156101575750600a8111155b610196576040517f08c379a000000000000000000000000000000000000000000000000000000000815260040161018d90610997565b60405180910390fd5b60405180604001604052808881526020018881525060015f820151815f01556020820151816001015590505084601190816101d19190610bbc565b50826007819055504260058190555081601081905550806012819055508360035f6101000a81548173ffffffffffffffffffffffffffffffffffffffff021916908373ffffffffffffffffffffffffffffffffffffffff16021790555060035f9054906101000a900473ffffffffffffffffffffffffffffffffffffffff1673ffffffffffffffffffffffffffffffffffffffff1663313ce5676040518163ffffffff1660e01b8152600401602060405180830381865afa158015610298573d5f5f3e3d5ffd5b505050506040513d601f19601f820116820180604052508101906102bc9190610cc1565b600360146101000a81548160ff021916908360ff1602179055505f600f60016101000a81548160ff021916908360038111156102fb576102fa610cec565b5b021790555061030f336103dc60201b60201c565b50505050505050610d19565b5f5f5f9054906101000a900473ffffffffffffffffffffffffffffffffffffffff169050815f5f6101000a81548173ffffffffffffffffffffffffffffffffffffffff021916908373ffffffffffffffffffffffffffffffffffffffff1602179055508173ffffffffffffffffffffffffffffffffffffffff168173ffffffffffffffffffffffffffffffffffffffff167f8be0079c531659141344cd1fd0a4f28419497f9722a3daafe3b4186f6b6457e060405160405180910390a35050565b6103ea61046c60201b60201c565b5f73ffffffffffffffffffffffffffffffffffffffff168173ffffffffffffffffffffffffffffffffffffffff160361045a575f6040517f1e4fbdf70000000000000000000000000000000000000000000000000000000081526004016104519190610808565b60405180910390fd5b6104698161031b60201b60201c565b50565b61047a61050560201b60201c565b73ffffffffffffffffffffffffffffffffffffffff1661049e61050c60201b60201c565b73ffffffffffffffffffffffffffffffffffffffff1614610503576104c761050560201b60201c565b6040517f118cdaa70000000000000000000000000000000000000000000000000000000081526004016104fa9190610808565b60405180910390fd5b565b5f33905090565b5f5f5f9054906101000a900473ffffffffffffffffffffffffffffffffffffffff16905090565b5f604051905090565b5f5ffd5b5f5ffd5b5f819050919050565b61055681610544565b8114610560575f5ffd5b50565b5f815190506105718161054d565b92915050565b5f73ffffffffffffffffffffffffffffffffffffffff82169050919050565b5f6105a082610577565b9050919050565b6105b081610596565b81146105ba575f5ffd5b50565b5f815190506105cb816105a7565b92915050565b5f5ffd5b5f5ffd5b5f601f19601f8301169050919050565b7f4e487b71000000000000000000000000000000000000000000000000000000005f52604160045260245ffd5b61061f826105d9565b810181811067ffffffffffffffff8211171561063e5761063d6105e9565b5b80604052505050565b5f610650610533565b905061065c8282610616565b919050565b5f67ffffffffffffffff82111561067b5761067a6105e9565b5b610684826105d9565b9050602081019050919050565b8281835e5f83830152505050565b5f6106b16106ac84610661565b610647565b9050828152602081018484840111156106cd576106cc6105d5565b5b6106d8848285610691565b509392505050565b5f82601f8301126106f4576106f36105d1565b5b815161070484826020860161069f565b91505092915050565b5f819050919050565b61071f8161070d565b8114610729575f5ffd5b50565b5f8151905061073a81610716565b92915050565b5f5f5f5f5f5f5f60e0888a03121561075b5761075a61053c565b5b5f6107688a828b01610563565b97505060206107798a828b016105bd565b965050604088015167ffffffffffffffff81111561079a57610799610540565b5b6107a68a828b016106e0565b95505060606107b78a828b016105bd565b94505060806107c88a828b0161072c565b93505060a06107d98a828b0161072c565b92505060c06107ea8a828b0161072c565b91505092959891949750929550565b61080281610596565b82525050565b5f60208201905061081b5f8301846107f9565b92915050565b5f82825260208201905092915050565b7f4d617475726974792074696d65206d75737420626520696e20746865206675745f8201527f7572650000000000000000000000000000000000000000000000000000000000602082015250565b5f61088b602383610821565b915061089682610831565b604082019050919050565b5f6020820190508181035f8301526108b88161087f565b9050919050565b7f466565206d757374206265206265747765656e20302e312520616e64203230255f82015250565b5f6108f3602083610821565b91506108fe826108bf565b602082019050919050565b5f6020820190508181035f830152610920816108e7565b9050919050565b7f496e646578206261636b67726f756e64206d757374206265206265747765656e5f8201527f203120616e642031300000000000000000000000000000000000000000000000602082015250565b5f610981602983610821565b915061098c82610927565b604082019050919050565b5f6020820190508181035f8301526109ae81610975565b9050919050565b5f81519050919050565b7f4e487b71000000000000000000000000000000000000000000000000000000005f52602260045260245ffd5b5f6002820490506001821680610a0357607f821691505b602082108103610a1657610a156109bf565b5b50919050565b5f819050815f5260205f209050919050565b5f6020601f8301049050919050565b5f82821b905092915050565b5f60088302610a787fffffffffffffffffffffffffffffffffffffffffffffffffffffffffffffffff82610a3d565b610a828683610a3d565b95508019841693508086168417925050509392505050565b5f819050919050565b5f610abd610ab8610ab38461070d565b610a9a565b61070d565b9050919050565b5f819050919050565b610ad683610aa3565b610aea610ae282610ac4565b848454610a49565b825550505050565b5f5f905090565b610b01610af2565b610b0c818484610acd565b505050565b5b81811015610b2f57610b245f82610af9565b600181019050610b12565b5050565b601f821115610b7457610b4581610a1c565b610b4e84610a2e565b81016020851015610b5d578190505b610b71610b6985610a2e565b830182610b11565b50505b505050565b5f82821c905092915050565b5f610b945f1984600802610b79565b1980831691505092915050565b5f610bac8383610b85565b9150826002028217905092915050565b610bc5826109b5565b67ffffffffffffffff811115610bde57610bdd6105e9565b5b610be882546109ec565b610bf3828285610b33565b5f60209050601f831160018114610c24575f8415610c12578287015190505b610c1c8582610ba1565b865550610c83565b601f198416610c3286610a1c565b5f5b82811015610c5957848901518255600182019150602085019450602081019050610c34565b86831015610c765784890151610c72601f891682610b85565b8355505b6001600288020188555050505b505050505050565b5f60ff82169050919050565b610ca081610c8b565b8114610caa575f5ffd5b50565b5f81519050610cbb81610c97565b92915050565b5f60208284031215610cd657610cd561053c565b5b5f610ce384828501610cad565b91505092915050565b7f4e487b71000000000000000000000000000000000000000000000000000000005f52602160045260245ffd5b6124bd80610d265f395ff3fe6080604052600436106101c1575f3560e01c80637d7b39e4116100f6578063b88a802f11610094578063d42f6e3911610063578063d42f6e3914610593578063f2fde38b146105bd578063f86e83e5146105e5578063ff50abdc1461060f576101c1565b8063b88a802f146104fe578063ba5b798214610514578063bea4dfb51461053f578063c52987cf14610569576101c1565b80639af1d35a116100d05780639af1d35a146104685780639ce05df7146104945780639e891f3e146104be578063a001ecdd146104d4576101c1565b80637d7b39e4146103fd5780638da5cb5b1461041357806398508ecd1461043d576101c1565b80633f6fa65511610163578063553fc5741161013d578063553fc57414610357578063715018a61461038157806373b2e80e146103975780637a40624b146103d3576101c1565b80633f6fa655146102c75780634e8bfdaa146102f157806351b72dc51461031b576101c1565b80631955e1461161019f5780631955e146146102435780632b9b55b31461027f57806333500e26146102955780633ccfd60b146102b1576101c1565b806305300b28146101c5578063055ad42e146101ef57806305ed76c414610219575b5f5ffd5b3480156101d0575f5ffd5b506101d9610639565b6040516101e69190611718565b60405180910390f35b3480156101fa575f5ffd5b5061020361064c565b60405161021091906117a4565b60405180910390f35b348015610224575f5ffd5b5061022d61065f565b60405161023a91906117d5565b60405180910390f35b34801561024e575f5ffd5b506102696004803603810190610264919061184c565b610665565b60405161027691906117d5565b60405180910390f35b34801561028a575f5ffd5b5061029361067a565b005b6102af60048036038101906102aa919061189a565b610814565b005b3480156102bc575f5ffd5b506102c5610a8b565b005b3480156102d2575f5ffd5b506102db610b6e565b6040516102e891906118df565b60405180910390f35b3480156102fc575f5ffd5b50610305610b80565b60405161031291906117d5565b60405180910390f35b348015610326575f5ffd5b50610341600480360381019061033c919061184c565b610b86565b60405161034e91906117d5565b60405180910390f35b348015610362575f5ffd5b5061036b610b9b565b60405161037891906117d5565b60405180910390f35b34801561038c575f5ffd5b50610395610ba1565b005b3480156103a2575f5ffd5b506103bd60048036038101906103b8919061184c565b610bb4565b6040516103ca91906118df565b60405180910390f35b3480156103de575f5ffd5b506103e7610bd1565b6040516103f491906117d5565b60405180910390f35b348015610408575f5ffd5b50610411610bd7565b005b34801561041e575f5ffd5b50610427610c88565b6040516104349190611907565b60405180910390f35b348015610448575f5ffd5b50610451610caf565b60405161045f929190611938565b60405180910390f35b348015610473575f5ffd5b5061047c610cc0565b60405161048b9392919061195f565b60405180910390f35b34801561049f575f5ffd5b506104a8610cd7565b6040516104b59190611994565b60405180910390f35b3480156104c9575f5ffd5b506104d2610ce2565b005b3480156104df575f5ffd5b506104e8610de2565b6040516104f591906117d5565b60405180910390f35b348015610509575f5ffd5b50610512610de8565b005b34801561051f575f5ffd5b50610528611201565b6040516105369291906119ad565b60405180910390f35b34801561054a575f5ffd5b50610553611212565b6040516105609190611994565b60405180910390f35b348015610574575f5ffd5b5061057d6112af565b60405161058a91906117d5565b60405180910390f35b34801561059e575f5ffd5b506105a76112b5565b6040516105b49190611a44565b60405180910390f35b3480156105c8575f5ffd5b506105e360048036038101906105de919061184c565b611341565b005b3480156105f0575f5ffd5b506105f96113c5565b60405161060691906117d5565b60405180910390f35b34801561061a575f5ffd5b506106236113cb565b60405161063091906117d5565b60405180910390f35b600360149054906101000a900460ff1681565b600f60019054906101000a900460ff1681565b60085481565b6013602052805f5260405f205f915090505481565b6106826113d1565b6001600381111561069657610695611731565b5b600f60019054906101000a900460ff1660038111156106b8576106b7611731565b5b146106f8576040517f08c379a00000000000000000000000000000000000000000000000000000000081526004016106ef90611aae565b60405180910390fd5b60075442101561073d576040517f08c379a000000000000000000000000000000000000000000000000000000000815260040161073490611b16565b60405180910390fd5b6002600f60016101000a81548160ff0219169083600381111561076357610762611731565b5b0217905550426008819055505f5f60035f9054906101000a900473ffffffffffffffffffffffffffffffffffffffff1673ffffffffffffffffffffffffffffffffffffffff1663feaf968c6040518163ffffffff1660e01b815260040160a060405180830381865afa1580156107db573d5f5f3e3d5ffd5b505050506040513d601f19601f820116820180604052508101906107ff9190611bc7565b509350509250506108108282611458565b5050565b6001600381111561082857610827611731565b5b600f60019054906101000a900460ff16600381111561084a57610849611731565b5b1461088a576040517f08c379a000000000000000000000000000000000000000000000000000000000815260040161088190611c88565b60405180910390fd5b5f34116108cc576040517f08c379a00000000000000000000000000000000000000000000000000000000081526004016108c390611cf0565b60405180910390fd5b5f60018111156108df576108de611731565b5b8160018111156108f2576108f1611731565b5b03610969573460095f015f82825461090a9190611d3b565b925050819055503460135f3373ffffffffffffffffffffffffffffffffffffffff1673ffffffffffffffffffffffffffffffffffffffff1681526020019081526020015f205f82825461095d9190611d3b565b925050819055506109d8565b3460096001015f82825461097d9190611d3b565b925050819055503460145f3373ffffffffffffffffffffffffffffffffffffffff1673ffffffffffffffffffffffffffffffffffffffff1681526020019081526020015f205f8282546109d09190611d3b565b925050819055505b34600e5f8282546109e99190611d3b565b925050819055507f5fd7e45cc570ececa5a25e81af5f4acc6a2456c0fb1eee17751ec71677d32f3c4260095f0154600960010154600e54604051610a309493929190611d6e565b60405180910390a13373ffffffffffffffffffffffffffffffffffffffff167f70bd4a33bf447720d717d08f3affb5aecfe4d2ebb8e3dd94539f5313e24476438234604051610a80929190611df7565b60405180910390a250565b610a936113d1565b5f4790505f8111610ad9576040517f08c379a0000000000000000000000000000000000000000000000000000000008152600401610ad090611e68565b60405180910390fd5b3373ffffffffffffffffffffffffffffffffffffffff166108fc8290811502906040515f60405180830381858888f19350505050158015610b1c573d5f5f3e3d5ffd5b503373ffffffffffffffffffffffffffffffffffffffff167f7fcf532c15f0a6db0bd6d0e038bea71d30d808c7d98cb3bf7268a95bf5081b6582604051610b6391906117d5565b60405180910390a250565b600f5f9054906101000a900460ff1681565b60075481565b6014602052805f5260405f205f915090505481565b60065481565b610ba96113d1565b610bb25f611565565b565b6015602052805f5260405f205f915054906101000a900460ff1681565b60055481565b610bdf6113d1565b5f6003811115610bf257610bf1611731565b5b600f60019054906101000a900460ff166003811115610c1457610c13611731565b5b14610c54576040517f08c379a0000000000000000000000000000000000000000000000000000000008152600401610c4b90611ed0565b60405180910390fd5b426006819055506001600f60016101000a81548160ff02191690836003811115610c8157610c80611731565b5b0217905550565b5f5f5f9054906101000a900473ffffffffffffffffffffffffffffffffffffffff16905090565b6001805f0154908060010154905082565b600b805f0154908060010154908060020154905083565b5f6001800154905090565b610cea6113d1565b60026003811115610cfe57610cfd611731565b5b600f60019054906101000a900460ff166003811115610d2057610d1f611731565b5b14610d60576040517f08c379a0000000000000000000000000000000000000000000000000000000008152600401610d5790611f38565b60405180910390fd5b60011515600f5f9054906101000a900460ff16151514610db5576040517f08c379a0000000000000000000000000000000000000000000000000000000008152600401610dac90611fa0565b60405180910390fd5b6003600f60016101000a81548160ff02191690836003811115610ddb57610dda611731565b5b0217905550565b60105481565b600380811115610dfb57610dfa611731565b5b600f60019054906101000a900460ff166003811115610e1d57610e1c611731565b5b14610e5d576040517f08c379a0000000000000000000000000000000000000000000000000000000008152600401610e5490612008565b60405180910390fd5b600f5f9054906101000a900460ff16610eab576040517f08c379a0000000000000000000000000000000000000000000000000000000008152600401610ea290611fa0565b60405180910390fd5b60155f3373ffffffffffffffffffffffffffffffffffffffff1673ffffffffffffffffffffffffffffffffffffffff1681526020019081526020015f205f9054906101000a900460ff1615610f35576040517f08c379a0000000000000000000000000000000000000000000000000000000008152600401610f2c90612070565b60405180910390fd5b5f600180015490505f60015f01548212610f51575f9050610f56565b600190505b5f5f5f5f90505f6001811115610f6f57610f6e611731565b5b846001811115610f8257610f81611731565b5b03610fe05760135f3373ffffffffffffffffffffffffffffffffffffffff1673ffffffffffffffffffffffffffffffffffffffff1681526020019081526020015f2054925060095f015491505f831115610fdb57600190505b611036565b60145f3373ffffffffffffffffffffffffffffffffffffffff1673ffffffffffffffffffffffffffffffffffffffff1681526020019081526020015f2054925060096001015491505f83111561103557600190505b5b3373ffffffffffffffffffffffffffffffffffffffff167fcaf126c1b7df3cc94d90d37f4a60f866c0c7c56f50d45e3136fc1dc71e210eba858360405161107e92919061208e565b60405180910390a25f83116110c8576040517f08c379a00000000000000000000000000000000000000000000000000000000081526004016110bf906120ff565b60405180910390fd5b5f82600e54856110d8919061211d565b6110e2919061218b565b90505f6064601054836110f5919061211d565b6110ff919061218b565b90505f818361110e91906121bb565b9050600160155f3373ffffffffffffffffffffffffffffffffffffffff1673ffffffffffffffffffffffffffffffffffffffff1681526020019081526020015f205f6101000a81548160ff0219169083151502179055503373ffffffffffffffffffffffffffffffffffffffff166108fc8290811502906040515f60405180830381858888f193505050501580156111a8573d5f5f3e3d5ffd5b503373ffffffffffffffffffffffffffffffffffffffff167f106f923f993c2149d49b4255ff723acafa1f2d94393f561d3eda32ae348f7241826040516111ef91906117d5565b60405180910390a25050505050505050565b6009805f0154908060010154905082565b5f5f60035f9054906101000a900473ffffffffffffffffffffffffffffffffffffffff1673ffffffffffffffffffffffffffffffffffffffff1663feaf968c6040518163ffffffff1660e01b815260040160a060405180830381865afa15801561127e573d5f5f3e3d5ffd5b505050506040513d601f19601f820116820180604052508101906112a29190611bc7565b5050509150508091505090565b60045481565b601180546112c29061221b565b80601f01602080910402602001604051908101604052809291908181526020018280546112ee9061221b565b80156113395780601f1061131057610100808354040283529160200191611339565b820191905f5260205f20905b81548152906001019060200180831161131c57829003601f168201915b505050505081565b6113496113d1565b5f73ffffffffffffffffffffffffffffffffffffffff168173ffffffffffffffffffffffffffffffffffffffff16036113b9575f6040517f1e4fbdf70000000000000000000000000000000000000000000000000000000081526004016113b09190611907565b60405180910390fd5b6113c281611565565b50565b60125481565b600e5481565b6113d9611626565b73ffffffffffffffffffffffffffffffffffffffff166113f7610c88565b73ffffffffffffffffffffffffffffffffffffffff16146114565761141a611626565b6040517f118cdaa700000000000000000000000000000000000000000000000000000000815260040161144d9190611907565b60405180910390fd5b565b5f8290505f8290505f61146a8361162d565b90506001600f5f6101000a81548160ff0219169083151502179055506002600f60016101000a81548160ff021916908360038111156114ac576114ab611731565b5b02179055508060018001819055507f9fd8e2fb430a5a31913b0b0ba4cb3a01b11cc041c6a81ac719f9db32aa5f052d83836040516114eb92919061224b565b60405180910390a15f60015f01548412611507575f905061150c565b600190505b5f73ffffffffffffffffffffffffffffffffffffffff167fcaf126c1b7df3cc94d90d37f4a60f866c0c7c56f50d45e3136fc1dc71e210eba82600160405161155592919061208e565b60405180910390a2505050505050565b5f5f5f9054906101000a900473ffffffffffffffffffffffffffffffffffffffff169050815f5f6101000a81548173ffffffffffffffffffffffffffffffffffffffff021916908373ffffffffffffffffffffffffffffffffffffffff1602179055508173ffffffffffffffffffffffffffffffffffffffff168173ffffffffffffffffffffffffffffffffffffffff167f8be0079c531659141344cd1fd0a4f28419497f9722a3daafe3b4186f6b6457e060405160405180910390a35050565b5f33905090565b5f5f821215611671576040517f08c379a0000000000000000000000000000000000000000000000000000000008152600401611668906122bc565b60405180910390fd5b5f600360149054906101000a900460ff16905060088160ff160361169857829150506116f8565b60088160ff1610156116d0578060086116b191906122da565b600a6116bd919061243d565b836116c8919061211d565b9150506116f8565b6008816116dd91906122da565b600a6116e9919061243d565b836116f4919061218b565b9150505b919050565b5f60ff82169050919050565b611712816116fd565b82525050565b5f60208201905061172b5f830184611709565b92915050565b7f4e487b71000000000000000000000000000000000000000000000000000000005f52602160045260245ffd5b6004811061176f5761176e611731565b5b50565b5f81905061177f8261175e565b919050565b5f61178e82611772565b9050919050565b61179e81611784565b82525050565b5f6020820190506117b75f830184611795565b92915050565b5f819050919050565b6117cf816117bd565b82525050565b5f6020820190506117e85f8301846117c6565b92915050565b5f5ffd5b5f73ffffffffffffffffffffffffffffffffffffffff82169050919050565b5f61181b826117f2565b9050919050565b61182b81611811565b8114611835575f5ffd5b50565b5f8135905061184681611822565b92915050565b5f60208284031215611861576118606117ee565b5b5f61186e84828501611838565b91505092915050565b60028110611883575f5ffd5b50565b5f8135905061189481611877565b92915050565b5f602082840312156118af576118ae6117ee565b5b5f6118bc84828501611886565b91505092915050565b5f8115159050919050565b6118d9816118c5565b82525050565b5f6020820190506118f25f8301846118d0565b92915050565b61190181611811565b82525050565b5f60208201905061191a5f8301846118f8565b92915050565b5f819050919050565b61193281611920565b82525050565b5f60408201905061194b5f830185611929565b6119586020830184611929565b9392505050565b5f6060820190506119725f8301866117c6565b61197f60208301856117c6565b61198c60408301846117c6565b949350505050565b5f6020820190506119a75f830184611929565b92915050565b5f6040820190506119c05f8301856117c6565b6119cd60208301846117c6565b9392505050565b5f81519050919050565b5f82825260208201905092915050565b8281835e5f83830152505050565b5f601f19601f8301169050919050565b5f611a16826119d4565b611a2081856119de565b9350611a308185602086016119ee565b611a39816119fc565b840191505092915050565b5f6020820190508181035f830152611a5c8184611a0c565b905092915050565b7f4d61726b6574206e6f7420696e2062696464696e6720706861736500000000005f82015250565b5f611a98601b836119de565b9150611aa382611a64565b602082019050919050565b5f6020820190508181035f830152611ac581611a8c565b9050919050565b7f546f6f206561726c7920746f207265736f6c76650000000000000000000000005f82015250565b5f611b006014836119de565b9150611b0b82611acc565b602082019050919050565b5f6020820190508181035f830152611b2d81611af4565b9050919050565b5f69ffffffffffffffffffff82169050919050565b611b5281611b34565b8114611b5c575f5ffd5b50565b5f81519050611b6d81611b49565b92915050565b611b7c81611920565b8114611b86575f5ffd5b50565b5f81519050611b9781611b73565b92915050565b611ba6816117bd565b8114611bb0575f5ffd5b50565b5f81519050611bc181611b9d565b92915050565b5f5f5f5f5f60a08688031215611be057611bdf6117ee565b5b5f611bed88828901611b5f565b9550506020611bfe88828901611b89565b9450506040611c0f88828901611bb3565b9350506060611c2088828901611bb3565b9250506080611c3188828901611b5f565b9150509295509295909350565b7f4e6f7420696e2062696464696e672070686173650000000000000000000000005f82015250565b5f611c726014836119de565b9150611c7d82611c3e565b602082019050919050565b5f6020820190508181035f830152611c9f81611c66565b9050919050565b7f56616c7565206d7573742062652067726561746572207468616e207a65726f005f82015250565b5f611cda601f836119de565b9150611ce582611ca6565b602082019050919050565b5f6020820190508181035f830152611d0781611cce565b9050919050565b7f4e487b71000000000000000000000000000000000000000000000000000000005f52601160045260245ffd5b5f611d45826117bd565b9150611d50836117bd565b9250828201905080821115611d6857611d67611d0e565b5b92915050565b5f608082019050611d815f8301876117c6565b611d8e60208301866117c6565b611d9b60408301856117c6565b611da860608301846117c6565b95945050505050565b60028110611dc257611dc1611731565b5b50565b5f819050611dd282611db1565b919050565b5f611de182611dc5565b9050919050565b611df181611dd7565b82525050565b5f604082019050611e0a5f830185611de8565b611e1760208301846117c6565b9392505050565b7f4e6f2062616c616e636520746f2077697468647261772e0000000000000000005f82015250565b5f611e526017836119de565b9150611e5d82611e1e565b602082019050919050565b5f6020820190508181035f830152611e7f81611e46565b9050919050565b7f4d61726b6574206e6f7420696e2074726164696e6720706861736500000000005f82015250565b5f611eba601b836119de565b9150611ec582611e86565b602082019050919050565b5f6020820190508181035f830152611ee781611eae565b9050919050565b7f4d61726b6574206e6f7420696e206d61747572697479207068617365000000005f82015250565b5f611f22601c836119de565b9150611f2d82611eee565b602082019050919050565b5f6020820190508181035f830152611f4f81611f16565b9050919050565b7f4d61726b6574206973206e6f74207265736f6c766564207965740000000000005f82015250565b5f611f8a601a836119de565b9150611f9582611f56565b602082019050919050565b5f6020820190508181035f830152611fb781611f7e565b9050919050565b7f4d61726b6574206e6f7420696e206578706972792070686173650000000000005f82015250565b5f611ff2601a836119de565b9150611ffd82611fbe565b602082019050919050565b5f6020820190508181035f83015261201f81611fe6565b9050919050565b7f52657761726420616c726561647920636c61696d6564000000000000000000005f82015250565b5f61205a6016836119de565b915061206582612026565b602082019050919050565b5f6020820190508181035f8301526120878161204e565b9050919050565b5f6040820190506120a15f830185611de8565b6120ae60208301846118d0565b9392505050565b7f4e6f206465706f73697473206f6e2077696e6e696e67207369646500000000005f82015250565b5f6120e9601b836119de565b91506120f4826120b5565b602082019050919050565b5f6020820190508181035f830152612116816120dd565b9050919050565b5f612127826117bd565b9150612132836117bd565b9250828202612140816117bd565b9150828204841483151761215757612156611d0e565b5b5092915050565b7f4e487b71000000000000000000000000000000000000000000000000000000005f52601260045260245ffd5b5f612195826117bd565b91506121a0836117bd565b9250826121b0576121af61215e565b5b828204905092915050565b5f6121c5826117bd565b91506121d0836117bd565b92508282039050818111156121e8576121e7611d0e565b5b92915050565b7f4e487b71000000000000000000000000000000000000000000000000000000005f52602260045260245ffd5b5f600282049050600182168061223257607f821691505b602082108103612245576122446121ee565b5b50919050565b5f60408201905061225e5f830185611929565b61226b60208301846117c6565b9392505050565b7f496e76616c6964206e65676174697665207072696365000000000000000000005f82015250565b5f6122a66016836119de565b91506122b182612272565b602082019050919050565b5f6020820190508181035f8301526122d38161229a565b9050919050565b5f6122e4826116fd565b91506122ef836116fd565b9250828203905060ff81111561230857612307611d0e565b5b92915050565b5f8160011c9050919050565b5f5f8291508390505b60018511156123635780860481111561233f5761233e611d0e565b5b600185161561234e5780820291505b808102905061235c8561230e565b9450612323565b94509492505050565b5f8261237b5760019050612436565b81612388575f9050612436565b816001811461239e57600281146123a8576123d7565b6001915050612436565b60ff8411156123ba576123b9611d0e565b5b8360020a9150848211156123d1576123d0611d0e565b5b50612436565b5060208310610133831016604e8410600b841016171561240c5782820a90508381111561240757612406611d0e565b5b612436565b612419848484600161231a565b925090508184048111156124305761242f611d0e565b5b81810290505b9392505050565b5f612447826117bd565b9150612452836116fd565b925061247f7fffffffffffffffffffffffffffffffffffffffffffffffffffffffffffffffff848461236c565b90509291505056fea2646970667358221220188bb676653321e3121d8dd71880a2676edabfd9ece384c123de545c199c00f964736f6c634300081c0033",
        "linkReferences": {}
    },
    "methodIdentifiers": {
        "bid(uint8)": "33500e26",
        "biddingStartTime()": "553fc574",
        "claimReward()": "b88a802f",
        "currentPhase()": "055ad42e",
        "deployTime()": "7a40624b",
        "expireMarket()": "9e891f3e",
        "feePercentage()": "a001ecdd",
        "fees()": "9af1d35a",
        "getChainlinkDataFeedLatestAnswer()": "bea4dfb5",
        "getFinalPrice()": "9ce05df7",
        "hasClaimed(address)": "73b2e80e",
        "indexBg()": "f86e83e5",
        "longBids(address)": "1955e146",
        "maturityTime()": "4e8bfdaa",
        "oracleDetails()": "98508ecd",
        "owner()": "8da5cb5b",
        "positions()": "ba5b7982",
        "priceDecimals()": "05300b28",
        "renounceOwnership()": "715018a6",
        "resolveMarket()": "2b9b55b3",
        "resolveTime()": "05ed76c4",
        "resolved()": "3f6fa655",
        "shortBids(address)": "51b72dc5",
        "startBidding()": "7d7b39e4",
        "strikePrice()": "c52987cf",
        "totalDeposited()": "ff50abdc",
        "tradingPair()": "d42f6e39",
        "transferOwnership(address)": "f2fde38b",
        "withdraw()": "3ccfd60b"
    },
    "id": 0
}