{
    "abi": [
        {
            "type": "constructor",
            "inputs": [
                {
                    "name": "_strikePrice",
                    "type": "int256",
                    "internalType": "int256"
                },
                {
                    "name": "_owner",
                    "type": "address",
                    "internalType": "address"
                },
                {
                    "name": "_priceFeedAddress",
                    "type": "address",
                    "internalType": "address"
                },
                {
                    "name": "_maturityTime",
                    "type": "uint256",
                    "internalType": "uint256"
                },
                {
                    "name": "_feePercentage",
                    "type": "uint256",
                    "internalType": "uint256"
                }
            ],
            "stateMutability": "nonpayable"
        },
        {
            "type": "function",
            "name": "bid",
            "inputs": [
                {
                    "name": "side",
                    "type": "uint8",
                    "internalType": "enum BinaryOptionMarket.Side"
                }
            ],
            "outputs": [],
            "stateMutability": "payable"
        },
        {
            "type": "function",
            "name": "biddingStartTime",
            "inputs": [],
            "outputs": [
                {
                    "name": "",
                    "type": "uint256",
                    "internalType": "uint256"
                }
            ],
            "stateMutability": "view"
        },
        {
            "type": "function",
            "name": "claimReward",
            "inputs": [],
            "outputs": [],
            "stateMutability": "nonpayable"
        },
        {
            "type": "function",
            "name": "currentPhase",
            "inputs": [],
            "outputs": [
                {
                    "name": "",
                    "type": "uint8",
                    "internalType": "enum BinaryOptionMarket.Phase"
                }
            ],
            "stateMutability": "view"
        },
        {
            "type": "function",
            "name": "deployTime",
            "inputs": [],
            "outputs": [
                {
                    "name": "",
                    "type": "uint256",
                    "internalType": "uint256"
                }
            ],
            "stateMutability": "view"
        },
        {
            "type": "function",
            "name": "expireMarket",
            "inputs": [],
            "outputs": [],
            "stateMutability": "nonpayable"
        },
        {
            "type": "function",
            "name": "feePercentage",
            "inputs": [],
            "outputs": [
                {
                    "name": "",
                    "type": "uint256",
                    "internalType": "uint256"
                }
            ],
            "stateMutability": "view"
        },
        {
            "type": "function",
            "name": "fees",
            "inputs": [],
            "outputs": [
                {
                    "name": "poolFee",
                    "type": "uint256",
                    "internalType": "uint256"
                },
                {
                    "name": "creatorFee",
                    "type": "uint256",
                    "internalType": "uint256"
                },
                {
                    "name": "refundFee",
                    "type": "uint256",
                    "internalType": "uint256"
                }
            ],
            "stateMutability": "view"
        },
        {
            "type": "function",
            "name": "getChainlinkDataFeedLatestAnswer",
            "inputs": [],
            "outputs": [
                {
                    "name": "",
                    "type": "int256",
                    "internalType": "int256"
                }
            ],
            "stateMutability": "view"
        },
        {
            "type": "function",
            "name": "getFinalPrice",
            "inputs": [],
            "outputs": [
                {
                    "name": "",
                    "type": "int256",
                    "internalType": "int256"
                }
            ],
            "stateMutability": "view"
        },
        {
            "type": "function",
            "name": "hasClaimed",
            "inputs": [
                {
                    "name": "",
                    "type": "address",
                    "internalType": "address"
                }
            ],
            "outputs": [
                {
                    "name": "",
                    "type": "bool",
                    "internalType": "bool"
                }
            ],
            "stateMutability": "view"
        },
        {
            "type": "function",
            "name": "longBids",
            "inputs": [
                {
                    "name": "",
                    "type": "address",
                    "internalType": "address"
                }
            ],
            "outputs": [
                {
                    "name": "",
                    "type": "uint256",
                    "internalType": "uint256"
                }
            ],
            "stateMutability": "view"
        },
        {
            "type": "function",
            "name": "maturityTime",
            "inputs": [],
            "outputs": [
                {
                    "name": "",
                    "type": "uint256",
                    "internalType": "uint256"
                }
            ],
            "stateMutability": "view"
        },
        {
            "type": "function",
            "name": "oracleDetails",
            "inputs": [],
            "outputs": [
                {
                    "name": "strikePrice",
                    "type": "int256",
                    "internalType": "int256"
                },
                {
                    "name": "finalPrice",
                    "type": "int256",
                    "internalType": "int256"
                }
            ],
            "stateMutability": "view"
        },
        {
            "type": "function",
            "name": "owner",
            "inputs": [],
            "outputs": [
                {
                    "name": "",
                    "type": "address",
                    "internalType": "address"
                }
            ],
            "stateMutability": "view"
        },
        {
            "type": "function",
            "name": "positions",
            "inputs": [],
            "outputs": [
                {
                    "name": "long",
                    "type": "uint256",
                    "internalType": "uint256"
                },
                {
                    "name": "short",
                    "type": "uint256",
                    "internalType": "uint256"
                }
            ],
            "stateMutability": "view"
        },
        {
            "type": "function",
            "name": "priceDecimals",
            "inputs": [],
            "outputs": [
                {
                    "name": "",
                    "type": "uint8",
                    "internalType": "uint8"
                }
            ],
            "stateMutability": "view"
        },
        {
            "type": "function",
            "name": "renounceOwnership",
            "inputs": [],
            "outputs": [],
            "stateMutability": "nonpayable"
        },
        {
            "type": "function",
            "name": "resolveMarket",
            "inputs": [],
            "outputs": [],
            "stateMutability": "nonpayable"
        },
        {
            "type": "function",
            "name": "resolveTime",
            "inputs": [],
            "outputs": [
                {
                    "name": "",
                    "type": "uint256",
                    "internalType": "uint256"
                }
            ],
            "stateMutability": "view"
        },
        {
            "type": "function",
            "name": "resolved",
            "inputs": [],
            "outputs": [
                {
                    "name": "",
                    "type": "bool",
                    "internalType": "bool"
                }
            ],
            "stateMutability": "view"
        },
        {
            "type": "function",
            "name": "shortBids",
            "inputs": [
                {
                    "name": "",
                    "type": "address",
                    "internalType": "address"
                }
            ],
            "outputs": [
                {
                    "name": "",
                    "type": "uint256",
                    "internalType": "uint256"
                }
            ],
            "stateMutability": "view"
        },
        {
            "type": "function",
            "name": "startBidding",
            "inputs": [],
            "outputs": [],
            "stateMutability": "nonpayable"
        },
        {
            "type": "function",
            "name": "strikePrice",
            "inputs": [],
            "outputs": [
                {
                    "name": "",
                    "type": "uint256",
                    "internalType": "uint256"
                }
            ],
            "stateMutability": "view"
        },
        {
            "type": "function",
            "name": "totalDeposited",
            "inputs": [],
            "outputs": [
                {
                    "name": "",
                    "type": "uint256",
                    "internalType": "uint256"
                }
            ],
            "stateMutability": "view"
        },
        {
            "type": "function",
            "name": "transferOwnership",
            "inputs": [
                {
                    "name": "newOwner",
                    "type": "address",
                    "internalType": "address"
                }
            ],
            "outputs": [],
            "stateMutability": "nonpayable"
        },
        {
            "type": "function",
            "name": "withdraw",
            "inputs": [],
            "outputs": [],
            "stateMutability": "nonpayable"
        },
        {
            "type": "event",
            "name": "Bid",
            "inputs": [
                {
                    "name": "side",
                    "type": "uint8",
                    "indexed": false,
                    "internalType": "enum BinaryOptionMarket.Side"
                },
                {
                    "name": "account",
                    "type": "address",
                    "indexed": true,
                    "internalType": "address"
                },
                {
                    "name": "value",
                    "type": "uint256",
                    "indexed": false,
                    "internalType": "uint256"
                }
            ],
            "anonymous": false
        },
        {
            "type": "event",
            "name": "MarketOutcome",
            "inputs": [
                {
                    "name": "winningSide",
                    "type": "uint8",
                    "indexed": false,
                    "internalType": "enum BinaryOptionMarket.Side"
                },
                {
                    "name": "user",
                    "type": "address",
                    "indexed": true,
                    "internalType": "address"
                },
                {
                    "name": "isWinner",
                    "type": "bool",
                    "indexed": false,
                    "internalType": "bool"
                }
            ],
            "anonymous": false
        },
        {
            "type": "event",
            "name": "MarketResolved",
            "inputs": [
                {
                    "name": "finalPrice",
                    "type": "int256",
                    "indexed": false,
                    "internalType": "int256"
                },
                {
                    "name": "timeStamp",
                    "type": "uint256",
                    "indexed": false,
                    "internalType": "uint256"
                }
            ],
            "anonymous": false
        },
        {
            "type": "event",
            "name": "OwnershipTransferred",
            "inputs": [
                {
                    "name": "previousOwner",
                    "type": "address",
                    "indexed": true,
                    "internalType": "address"
                },
                {
                    "name": "newOwner",
                    "type": "address",
                    "indexed": true,
                    "internalType": "address"
                }
            ],
            "anonymous": false
        },
        {
            "type": "event",
            "name": "PositionUpdated",
            "inputs": [
                {
                    "name": "timestamp",
                    "type": "uint256",
                    "indexed": false,
                    "internalType": "uint256"
                },
                {
                    "name": "longAmount",
                    "type": "uint256",
                    "indexed": false,
                    "internalType": "uint256"
                },
                {
                    "name": "shortAmount",
                    "type": "uint256",
                    "indexed": false,
                    "internalType": "uint256"
                },
                {
                    "name": "totalDeposited",
                    "type": "uint256",
                    "indexed": false,
                    "internalType": "uint256"
                }
            ],
            "anonymous": false
        },
        {
            "type": "event",
            "name": "RewardClaimed",
            "inputs": [
                {
                    "name": "account",
                    "type": "address",
                    "indexed": true,
                    "internalType": "address"
                },
                {
                    "name": "value",
                    "type": "uint256",
                    "indexed": false,
                    "internalType": "uint256"
                }
            ],
            "anonymous": false
        },
        {
            "type": "event",
            "name": "Withdrawal",
            "inputs": [
                {
                    "name": "user",
                    "type": "address",
                    "indexed": true,
                    "internalType": "address"
                },
                {
                    "name": "amount",
                    "type": "uint256",
                    "indexed": false,
                    "internalType": "uint256"
                }
            ],
            "anonymous": false
        },
        {
            "type": "error",
            "name": "OwnableInvalidOwner",
            "inputs": [
                {
                    "name": "owner",
                    "type": "address",
                    "internalType": "address"
                }
            ]
        },
        {
            "type": "error",
            "name": "OwnableUnauthorizedAccount",
            "inputs": [
                {
                    "name": "account",
                    "type": "address",
                    "internalType": "address"
                }
            ]
        }
    ],
    "bytecode": {
        "object": "0x608060405234801561000f575f5ffd5b50604051612b4d380380612b4d8339818101604052810190610031919061058d565b835f73ffffffffffffffffffffffffffffffffffffffff168173ffffffffffffffffffffffffffffffffffffffff16036100a2575f6040517f1e4fbdf70000000000000000000000000000000000000000000000000000000081526004016100999190610613565b60405180910390fd5b6100b1816102b160201b60201c565b504282116100f4576040517f08c379a00000000000000000000000000000000000000000000000000000000081526004016100eb906106ac565b60405180910390fd5b60018110158015610106575060c88111155b610145576040517f08c379a000000000000000000000000000000000000000000000000000000000815260040161013c90610714565b60405180910390fd5b60405180604001604052808681526020018681525060015f820151815f0155602082015181600101559050508160078190555042600581905550806010819055508260035f6101000a81548173ffffffffffffffffffffffffffffffffffffffff021916908373ffffffffffffffffffffffffffffffffffffffff16021790555060035f9054906101000a900473ffffffffffffffffffffffffffffffffffffffff1673ffffffffffffffffffffffffffffffffffffffff1663313ce5676040518163ffffffff1660e01b8152600401602060405180830381865afa158015610230573d5f5f3e3d5ffd5b505050506040513d601f19601f820116820180604052508101906102549190610768565b600360146101000a81548160ff021916908360ff1602179055505f600f60016101000a81548160ff0219169083600381111561029357610292610793565b5b02179055506102a73361037260201b60201c565b50505050506107c0565b5f5f5f9054906101000a900473ffffffffffffffffffffffffffffffffffffffff169050815f5f6101000a81548173ffffffffffffffffffffffffffffffffffffffff021916908373ffffffffffffffffffffffffffffffffffffffff1602179055508173ffffffffffffffffffffffffffffffffffffffff168173ffffffffffffffffffffffffffffffffffffffff167f8be0079c531659141344cd1fd0a4f28419497f9722a3daafe3b4186f6b6457e060405160405180910390a35050565b61038061040260201b60201c565b5f73ffffffffffffffffffffffffffffffffffffffff168173ffffffffffffffffffffffffffffffffffffffff16036103f0575f6040517f1e4fbdf70000000000000000000000000000000000000000000000000000000081526004016103e79190610613565b60405180910390fd5b6103ff816102b160201b60201c565b50565b61041061049b60201b60201c565b73ffffffffffffffffffffffffffffffffffffffff166104346104a260201b60201c565b73ffffffffffffffffffffffffffffffffffffffff16146104995761045d61049b60201b60201c565b6040517f118cdaa70000000000000000000000000000000000000000000000000000000081526004016104909190610613565b60405180910390fd5b565b5f33905090565b5f5f5f9054906101000a900473ffffffffffffffffffffffffffffffffffffffff16905090565b5f5ffd5b5f819050919050565b6104df816104cd565b81146104e9575f5ffd5b50565b5f815190506104fa816104d6565b92915050565b5f73ffffffffffffffffffffffffffffffffffffffff82169050919050565b5f61052982610500565b9050919050565b6105398161051f565b8114610543575f5ffd5b50565b5f8151905061055481610530565b92915050565b5f819050919050565b61056c8161055a565b8114610576575f5ffd5b50565b5f8151905061058781610563565b92915050565b5f5f5f5f5f60a086880312156105a6576105a56104c9565b5b5f6105b3888289016104ec565b95505060206105c488828901610546565b94505060406105d588828901610546565b93505060606105e688828901610579565b92505060806105f788828901610579565b9150509295509295909350565b61060d8161051f565b82525050565b5f6020820190506106265f830184610604565b92915050565b5f82825260208201905092915050565b7f4d617475726974792074696d65206d75737420626520696e20746865206675745f8201527f7572650000000000000000000000000000000000000000000000000000000000602082015250565b5f61069660238361062c565b91506106a18261063c565b604082019050919050565b5f6020820190508181035f8301526106c38161068a565b9050919050565b7f466565206d757374206265206265747765656e20302e312520616e64203230255f82015250565b5f6106fe60208361062c565b9150610709826106ca565b602082019050919050565b5f6020820190508181035f83015261072b816106f2565b9050919050565b5f60ff82169050919050565b61074781610732565b8114610751575f5ffd5b50565b5f815190506107628161073e565b92915050565b5f6020828403121561077d5761077c6104c9565b5b5f61078a84828501610754565b91505092915050565b7f4e487b71000000000000000000000000000000000000000000000000000000005f52602160045260245ffd5b612380806107cd5f395ff3fe60806040526004361061019b575f3560e01c80637a40624b116100eb578063a001ecdd11610089578063bea4dfb511610063578063bea4dfb514610519578063c52987cf14610543578063f2fde38b1461056d578063ff50abdc146105955761019b565b8063a001ecdd146104ae578063b88a802f146104d8578063ba5b7982146104ee5761019b565b806398508ecd116100c557806398508ecd146104175780639af1d35a146104425780639ce05df71461046e5780639e891f3e146104985761019b565b80637a40624b146103ad5780637d7b39e4146103d75780638da5cb5b146103ed5761019b565b80633ccfd60b1161015857806351b72dc51161013257806351b72dc5146102f5578063553fc57414610331578063715018a61461035b57806373b2e80e146103715761019b565b80633ccfd60b1461028b5780633f6fa655146102a15780634e8bfdaa146102cb5761019b565b806305300b281461019f578063055ad42e146101c957806305ed76c4146101f35780631955e1461461021d5780632b9b55b31461025957806333500e261461026f575b5f5ffd5b3480156101aa575f5ffd5b506101b36105bf565b6040516101c09190611650565b60405180910390f35b3480156101d4575f5ffd5b506101dd6105d2565b6040516101ea91906116dc565b60405180910390f35b3480156101fe575f5ffd5b506102076105e5565b604051610214919061170d565b60405180910390f35b348015610228575f5ffd5b50610243600480360381019061023e9190611784565b6105eb565b604051610250919061170d565b60405180910390f35b348015610264575f5ffd5b5061026d610600565b005b610289600480360381019061028491906117d2565b61079a565b005b348015610296575f5ffd5b5061029f610a55565b005b3480156102ac575f5ffd5b506102b5610b38565b6040516102c29190611817565b60405180910390f35b3480156102d6575f5ffd5b506102df610b4a565b6040516102ec919061170d565b60405180910390f35b348015610300575f5ffd5b5061031b60048036038101906103169190611784565b610b50565b604051610328919061170d565b60405180910390f35b34801561033c575f5ffd5b50610345610b65565b604051610352919061170d565b60405180910390f35b348015610366575f5ffd5b5061036f610b6b565b005b34801561037c575f5ffd5b5061039760048036038101906103929190611784565b610b7e565b6040516103a49190611817565b60405180910390f35b3480156103b8575f5ffd5b506103c1610b9b565b6040516103ce919061170d565b60405180910390f35b3480156103e2575f5ffd5b506103eb610ba1565b005b3480156103f8575f5ffd5b50610401610c52565b60405161040e919061183f565b60405180910390f35b348015610422575f5ffd5b5061042b610c79565b604051610439929190611870565b60405180910390f35b34801561044d575f5ffd5b50610456610c8a565b60405161046593929190611897565b60405180910390f35b348015610479575f5ffd5b50610482610ca1565b60405161048f91906118cc565b60405180910390f35b3480156104a3575f5ffd5b506104ac610cac565b005b3480156104b9575f5ffd5b506104c2610dac565b6040516104cf919061170d565b60405180910390f35b3480156104e3575f5ffd5b506104ec610db2565b005b3480156104f9575f5ffd5b506105026111cb565b6040516105109291906118e5565b60405180910390f35b348015610524575f5ffd5b5061052d6111dc565b60405161053a91906118cc565b60405180910390f35b34801561054e575f5ffd5b50610557611279565b604051610564919061170d565b60405180910390f35b348015610578575f5ffd5b50610593600480360381019061058e9190611784565b61127f565b005b3480156105a0575f5ffd5b506105a9611303565b6040516105b6919061170d565b60405180910390f35b600360149054906101000a900460ff1681565b600f60019054906101000a900460ff1681565b60085481565b6011602052805f5260405f205f915090505481565b610608611309565b6001600381111561061c5761061b611669565b5b600f60019054906101000a900460ff16600381111561063e5761063d611669565b5b1461067e576040517f08c379a000000000000000000000000000000000000000000000000000000000815260040161067590611966565b60405180910390fd5b6007544210156106c3576040517f08c379a00000000000000000000000000000000000000000000000000000000081526004016106ba906119ce565b60405180910390fd5b6002600f60016101000a81548160ff021916908360038111156106e9576106e8611669565b5b0217905550426008819055505f5f60035f9054906101000a900473ffffffffffffffffffffffffffffffffffffffff1673ffffffffffffffffffffffffffffffffffffffff1663feaf968c6040518163ffffffff1660e01b815260040160a060405180830381865afa158015610761573d5f5f3e3d5ffd5b505050506040513d601f19601f820116820180604052508101906107859190611a7f565b509350509250506107968282611390565b5050565b600160038111156107ae576107ad611669565b5b600f60019054906101000a900460ff1660038111156107d0576107cf611669565b5b14610810576040517f08c379a000000000000000000000000000000000000000000000000000000000815260040161080790611b40565b60405180910390fd5b5f3411610852576040517f08c379a000000000000000000000000000000000000000000000000000000000815260040161084990611ba8565b60405180910390fd5b6008544210610896576040517f08c379a000000000000000000000000000000000000000000000000000000000815260040161088d90611c10565b60405180910390fd5b5f60018111156108a9576108a8611669565b5b8160018111156108bc576108bb611669565b5b03610933573460095f015f8282546108d49190611c5b565b925050819055503460115f3373ffffffffffffffffffffffffffffffffffffffff1673ffffffffffffffffffffffffffffffffffffffff1681526020019081526020015f205f8282546109279190611c5b565b925050819055506109a2565b3460096001015f8282546109479190611c5b565b925050819055503460125f3373ffffffffffffffffffffffffffffffffffffffff1673ffffffffffffffffffffffffffffffffffffffff1681526020019081526020015f205f82825461099a9190611c5b565b925050819055505b34600e5f8282546109b39190611c5b565b925050819055507f5fd7e45cc570ececa5a25e81af5f4acc6a2456c0fb1eee17751ec71677d32f3c4260095f0154600960010154600e546040516109fa9493929190611c8e565b60405180910390a13373ffffffffffffffffffffffffffffffffffffffff167f70bd4a33bf447720d717d08f3affb5aecfe4d2ebb8e3dd94539f5313e24476438234604051610a4a929190611d17565b60405180910390a250565b610a5d611309565b5f4790505f8111610aa3576040517f08c379a0000000000000000000000000000000000000000000000000000000008152600401610a9a90611d88565b60405180910390fd5b3373ffffffffffffffffffffffffffffffffffffffff166108fc8290811502906040515f60405180830381858888f19350505050158015610ae6573d5f5f3e3d5ffd5b503373ffffffffffffffffffffffffffffffffffffffff167f7fcf532c15f0a6db0bd6d0e038bea71d30d808c7d98cb3bf7268a95bf5081b6582604051610b2d919061170d565b60405180910390a250565b600f5f9054906101000a900460ff1681565b60075481565b6012602052805f5260405f205f915090505481565b60065481565b610b73611309565b610b7c5f61149d565b565b6013602052805f5260405f205f915054906101000a900460ff1681565b60055481565b610ba9611309565b5f6003811115610bbc57610bbb611669565b5b600f60019054906101000a900460ff166003811115610bde57610bdd611669565b5b14610c1e576040517f08c379a0000000000000000000000000000000000000000000000000000000008152600401610c1590611df0565b60405180910390fd5b426006819055506001600f60016101000a81548160ff02191690836003811115610c4b57610c4a611669565b5b0217905550565b5f5f5f9054906101000a900473ffffffffffffffffffffffffffffffffffffffff16905090565b6001805f0154908060010154905082565b600b805f0154908060010154908060020154905083565b5f6001800154905090565b610cb4611309565b60026003811115610cc857610cc7611669565b5b600f60019054906101000a900460ff166003811115610cea57610ce9611669565b5b14610d2a576040517f08c379a0000000000000000000000000000000000000000000000000000000008152600401610d2190611e58565b60405180910390fd5b60011515600f5f9054906101000a900460ff16151514610d7f576040517f08c379a0000000000000000000000000000000000000000000000000000000008152600401610d7690611ec0565b60405180910390fd5b6003600f60016101000a81548160ff02191690836003811115610da557610da4611669565b5b0217905550565b60105481565b600380811115610dc557610dc4611669565b5b600f60019054906101000a900460ff166003811115610de757610de6611669565b5b14610e27576040517f08c379a0000000000000000000000000000000000000000000000000000000008152600401610e1e90611f28565b60405180910390fd5b600f5f9054906101000a900460ff16610e75576040517f08c379a0000000000000000000000000000000000000000000000000000000008152600401610e6c90611ec0565b60405180910390fd5b60135f3373ffffffffffffffffffffffffffffffffffffffff1673ffffffffffffffffffffffffffffffffffffffff1681526020019081526020015f205f9054906101000a900460ff1615610eff576040517f08c379a0000000000000000000000000000000000000000000000000000000008152600401610ef690611f90565b60405180910390fd5b5f600180015490505f60015f01548212610f1b575f9050610f20565b600190505b5f5f5f5f90505f6001811115610f3957610f38611669565b5b846001811115610f4c57610f4b611669565b5b03610faa5760115f3373ffffffffffffffffffffffffffffffffffffffff1673ffffffffffffffffffffffffffffffffffffffff1681526020019081526020015f2054925060095f015491505f831115610fa557600190505b611000565b60125f3373ffffffffffffffffffffffffffffffffffffffff1673ffffffffffffffffffffffffffffffffffffffff1681526020019081526020015f2054925060096001015491505f831115610fff57600190505b5b3373ffffffffffffffffffffffffffffffffffffffff167fcaf126c1b7df3cc94d90d37f4a60f866c0c7c56f50d45e3136fc1dc71e210eba8583604051611048929190611fae565b60405180910390a25f8311611092576040517f08c379a00000000000000000000000000000000000000000000000000000000081526004016110899061201f565b60405180910390fd5b5f82600e54856110a2919061203d565b6110ac91906120ab565b90505f6064601054836110bf919061203d565b6110c991906120ab565b90505f81836110d891906120db565b9050600160135f3373ffffffffffffffffffffffffffffffffffffffff1673ffffffffffffffffffffffffffffffffffffffff1681526020019081526020015f205f6101000a81548160ff0219169083151502179055503373ffffffffffffffffffffffffffffffffffffffff166108fc8290811502906040515f60405180830381858888f19350505050158015611172573d5f5f3e3d5ffd5b503373ffffffffffffffffffffffffffffffffffffffff167f106f923f993c2149d49b4255ff723acafa1f2d94393f561d3eda32ae348f7241826040516111b9919061170d565b60405180910390a25050505050505050565b6009805f0154908060010154905082565b5f5f60035f9054906101000a900473ffffffffffffffffffffffffffffffffffffffff1673ffffffffffffffffffffffffffffffffffffffff1663feaf968c6040518163ffffffff1660e01b815260040160a060405180830381865afa158015611248573d5f5f3e3d5ffd5b505050506040513d601f19601f8201168201806040525081019061126c9190611a7f565b5050509150508091505090565b60045481565b611287611309565b5f73ffffffffffffffffffffffffffffffffffffffff168173ffffffffffffffffffffffffffffffffffffffff16036112f7575f6040517f1e4fbdf70000000000000000000000000000000000000000000000000000000081526004016112ee919061183f565b60405180910390fd5b6113008161149d565b50565b600e5481565b61131161155e565b73ffffffffffffffffffffffffffffffffffffffff1661132f610c52565b73ffffffffffffffffffffffffffffffffffffffff161461138e5761135261155e565b6040517f118cdaa7000000000000000000000000000000000000000000000000000000008152600401611385919061183f565b60405180910390fd5b565b5f8290505f8290505f6113a283611565565b90506001600f5f6101000a81548160ff0219169083151502179055506002600f60016101000a81548160ff021916908360038111156113e4576113e3611669565b5b02179055508060018001819055507f9fd8e2fb430a5a31913b0b0ba4cb3a01b11cc041c6a81ac719f9db32aa5f052d838360405161142392919061210e565b60405180910390a15f60015f0154841261143f575f9050611444565b600190505b5f73ffffffffffffffffffffffffffffffffffffffff167fcaf126c1b7df3cc94d90d37f4a60f866c0c7c56f50d45e3136fc1dc71e210eba82600160405161148d929190611fae565b60405180910390a2505050505050565b5f5f5f9054906101000a900473ffffffffffffffffffffffffffffffffffffffff169050815f5f6101000a81548173ffffffffffffffffffffffffffffffffffffffff021916908373ffffffffffffffffffffffffffffffffffffffff1602179055508173ffffffffffffffffffffffffffffffffffffffff168173ffffffffffffffffffffffffffffffffffffffff167f8be0079c531659141344cd1fd0a4f28419497f9722a3daafe3b4186f6b6457e060405160405180910390a35050565b5f33905090565b5f5f8212156115a9576040517f08c379a00000000000000000000000000000000000000000000000000000000081526004016115a09061217f565b60405180910390fd5b5f600360149054906101000a900460ff16905060088160ff16036115d05782915050611630565b60088160ff161015611608578060086115e9919061219d565b600a6115f59190612300565b83611600919061203d565b915050611630565b600881611615919061219d565b600a6116219190612300565b8361162c91906120ab565b9150505b919050565b5f60ff82169050919050565b61164a81611635565b82525050565b5f6020820190506116635f830184611641565b92915050565b7f4e487b71000000000000000000000000000000000000000000000000000000005f52602160045260245ffd5b600481106116a7576116a6611669565b5b50565b5f8190506116b782611696565b919050565b5f6116c6826116aa565b9050919050565b6116d6816116bc565b82525050565b5f6020820190506116ef5f8301846116cd565b92915050565b5f819050919050565b611707816116f5565b82525050565b5f6020820190506117205f8301846116fe565b92915050565b5f5ffd5b5f73ffffffffffffffffffffffffffffffffffffffff82169050919050565b5f6117538261172a565b9050919050565b61176381611749565b811461176d575f5ffd5b50565b5f8135905061177e8161175a565b92915050565b5f6020828403121561179957611798611726565b5b5f6117a684828501611770565b91505092915050565b600281106117bb575f5ffd5b50565b5f813590506117cc816117af565b92915050565b5f602082840312156117e7576117e6611726565b5b5f6117f4848285016117be565b91505092915050565b5f8115159050919050565b611811816117fd565b82525050565b5f60208201905061182a5f830184611808565b92915050565b61183981611749565b82525050565b5f6020820190506118525f830184611830565b92915050565b5f819050919050565b61186a81611858565b82525050565b5f6040820190506118835f830185611861565b6118906020830184611861565b9392505050565b5f6060820190506118aa5f8301866116fe565b6118b760208301856116fe565b6118c460408301846116fe565b949350505050565b5f6020820190506118df5f830184611861565b92915050565b5f6040820190506118f85f8301856116fe565b61190560208301846116fe565b9392505050565b5f82825260208201905092915050565b7f4d61726b6574206e6f7420696e2062696464696e6720706861736500000000005f82015250565b5f611950601b8361190c565b915061195b8261191c565b602082019050919050565b5f6020820190508181035f83015261197d81611944565b9050919050565b7f546f6f206561726c7920746f207265736f6c76650000000000000000000000005f82015250565b5f6119b860148361190c565b91506119c382611984565b602082019050919050565b5f6020820190508181035f8301526119e5816119ac565b9050919050565b5f69ffffffffffffffffffff82169050919050565b611a0a816119ec565b8114611a14575f5ffd5b50565b5f81519050611a2581611a01565b92915050565b611a3481611858565b8114611a3e575f5ffd5b50565b5f81519050611a4f81611a2b565b92915050565b611a5e816116f5565b8114611a68575f5ffd5b50565b5f81519050611a7981611a55565b92915050565b5f5f5f5f5f60a08688031215611a9857611a97611726565b5b5f611aa588828901611a17565b9550506020611ab688828901611a41565b9450506040611ac788828901611a6b565b9350506060611ad888828901611a6b565b9250506080611ae988828901611a17565b9150509295509295909350565b7f4e6f7420696e2062696464696e672070686173650000000000000000000000005f82015250565b5f611b2a60148361190c565b9150611b3582611af6565b602082019050919050565b5f6020820190508181035f830152611b5781611b1e565b9050919050565b7f56616c7565206d7573742062652067726561746572207468616e207a65726f005f82015250565b5f611b92601f8361190c565b9150611b9d82611b5e565b602082019050919050565b5f6020820190508181035f830152611bbf81611b86565b9050919050565b7f4d617475726974792074696d65206861732070617373656400000000000000005f82015250565b5f611bfa60188361190c565b9150611c0582611bc6565b602082019050919050565b5f6020820190508181035f830152611c2781611bee565b9050919050565b7f4e487b71000000000000000000000000000000000000000000000000000000005f52601160045260245ffd5b5f611c65826116f5565b9150611c70836116f5565b9250828201905080821115611c8857611c87611c2e565b5b92915050565b5f608082019050611ca15f8301876116fe565b611cae60208301866116fe565b611cbb60408301856116fe565b611cc860608301846116fe565b95945050505050565b60028110611ce257611ce1611669565b5b50565b5f819050611cf282611cd1565b919050565b5f611d0182611ce5565b9050919050565b611d1181611cf7565b82525050565b5f604082019050611d2a5f830185611d08565b611d3760208301846116fe565b9392505050565b7f4e6f2062616c616e636520746f2077697468647261772e0000000000000000005f82015250565b5f611d7260178361190c565b9150611d7d82611d3e565b602082019050919050565b5f6020820190508181035f830152611d9f81611d66565b9050919050565b7f4d61726b6574206e6f7420696e2074726164696e6720706861736500000000005f82015250565b5f611dda601b8361190c565b9150611de582611da6565b602082019050919050565b5f6020820190508181035f830152611e0781611dce565b9050919050565b7f4d61726b6574206e6f7420696e206d61747572697479207068617365000000005f82015250565b5f611e42601c8361190c565b9150611e4d82611e0e565b602082019050919050565b5f6020820190508181035f830152611e6f81611e36565b9050919050565b7f4d61726b6574206973206e6f74207265736f6c766564207965740000000000005f82015250565b5f611eaa601a8361190c565b9150611eb582611e76565b602082019050919050565b5f6020820190508181035f830152611ed781611e9e565b9050919050565b7f4d61726b6574206e6f7420696e206578706972792070686173650000000000005f82015250565b5f611f12601a8361190c565b9150611f1d82611ede565b602082019050919050565b5f6020820190508181035f830152611f3f81611f06565b9050919050565b7f52657761726420616c726561647920636c61696d6564000000000000000000005f82015250565b5f611f7a60168361190c565b9150611f8582611f46565b602082019050919050565b5f6020820190508181035f830152611fa781611f6e565b9050919050565b5f604082019050611fc15f830185611d08565b611fce6020830184611808565b9392505050565b7f4e6f206465706f73697473206f6e2077696e6e696e67207369646500000000005f82015250565b5f612009601b8361190c565b915061201482611fd5565b602082019050919050565b5f6020820190508181035f83015261203681611ffd565b9050919050565b5f612047826116f5565b9150612052836116f5565b9250828202612060816116f5565b9150828204841483151761207757612076611c2e565b5b5092915050565b7f4e487b71000000000000000000000000000000000000000000000000000000005f52601260045260245ffd5b5f6120b5826116f5565b91506120c0836116f5565b9250826120d0576120cf61207e565b5b828204905092915050565b5f6120e5826116f5565b91506120f0836116f5565b925082820390508181111561210857612107611c2e565b5b92915050565b5f6040820190506121215f830185611861565b61212e60208301846116fe565b9392505050565b7f496e76616c6964206e65676174697665207072696365000000000000000000005f82015250565b5f61216960168361190c565b915061217482612135565b602082019050919050565b5f6020820190508181035f8301526121968161215d565b9050919050565b5f6121a782611635565b91506121b283611635565b9250828203905060ff8111156121cb576121ca611c2e565b5b92915050565b5f8160011c9050919050565b5f5f8291508390505b60018511156122265780860481111561220257612201611c2e565b5b60018516156122115780820291505b808102905061221f856121d1565b94506121e6565b94509492505050565b5f8261223e57600190506122f9565b8161224b575f90506122f9565b8160018114612261576002811461226b5761229a565b60019150506122f9565b60ff84111561227d5761227c611c2e565b5b8360020a91508482111561229457612293611c2e565b5b506122f9565b5060208310610133831016604e8410600b84101617156122cf5782820a9050838111156122ca576122c9611c2e565b5b6122f9565b6122dc84848460016121dd565b925090508184048111156122f3576122f2611c2e565b5b81810290505b9392505050565b5f61230a826116f5565b915061231583611635565b92506123427fffffffffffffffffffffffffffffffffffffffffffffffffffffffffffffffff848461222f565b90509291505056fea26469706673582212204cc32b8fd519bd62304239ee8e52b098a0a1edfab7e9eaf2949e46c1cc1112ae64736f6c634300081c0033",
        "linkReferences": {}
    },
    "methodIdentifiers": {
        "bid(uint8)": "33500e26",
        "biddingStartTime()": "553fc574",
        "claimReward()": "b88a802f",
        "currentPhase()": "055ad42e",
        "deployTime()": "7a40624b",
        "expireMarket()": "9e891f3e",
        "feePercentage()": "a001ecdd",
        "fees()": "9af1d35a",
        "getChainlinkDataFeedLatestAnswer()": "bea4dfb5",
        "getFinalPrice()": "9ce05df7",
        "hasClaimed(address)": "73b2e80e",
        "longBids(address)": "1955e146",
        "maturityTime()": "4e8bfdaa",
        "oracleDetails()": "98508ecd",
        "owner()": "8da5cb5b",
        "positions()": "ba5b7982",
        "priceDecimals()": "05300b28",
        "renounceOwnership()": "715018a6",
        "resolveMarket()": "2b9b55b3",
        "resolveTime()": "05ed76c4",
        "resolved()": "3f6fa655",
        "shortBids(address)": "51b72dc5",
        "startBidding()": "7d7b39e4",
        "strikePrice()": "c52987cf",
        "totalDeposited()": "ff50abdc",
        "transferOwnership(address)": "f2fde38b",
        "withdraw()": "3ccfd60b"
    },
    "id": 0
}